:1000000002C1000031C100002FC100002DC100005D
:100010002BC1000029C1000027C1000025C100003C
:1000200023C1000021C100001FC100001DC100004C
:100030001BC1000019C1000017C10000CCC40000A2
:1000400013C1000011C100000FC100000DC100006C
:100050000BC1000009C1000007C1000072C400000C
:1000600003C10000C1C2000096C20000FDC0000034
:10007000FBC00000F9C00000F7C00000F5C00000A0
:10008000F3C00000F1C00000EFC00000EDC00000B0
:10009000EBC00000E9C00000E7C00000E5C00000C0
:1000A000E3C00000E1C00000DFC00000DDC00000D0
:1000B000DBC00000D9C00000D7C00000D5C00000E0
:1000C000D3C00000D1C00000CFC00000CDC00000F0
:1000D000CBC00000C9C00000C7C00000C5C0000000
:1000E000C3C0000000002200250028002B002E00C5
:1000F0003100340002010000050108010B0100007D
:100100002100240027002A002D00300033000101C7
:100110000000040107010A0100002000230026005E
:1001200029002C002F00320000010000030106010D
:10013000090105050505070508080808020202026D
:100140000A0A080804040404010101010101010173
:100150000303030303030303040707070C0C0C0C3E
:100160000C0C0C0C02020202060606060606060627
:100170000B0B0B0B0B0B0B0B0102102020080810B4
:100180002040102040800201020108040201010207
:1001900004081020408080402010080402018004E0
:1001A000020180402010080402010804020101023B
:1001B0000408102040800102040810204080000044
:1001C0000A0B02090C0D0E080703040100000000D1
:1001D000000000000000000000000000000000001F
:1001E00000000000000000000000121110000000DC
:1001F00000000000000000000000000000000000FF
:1002000000000000100C11241FBECFEFD1E2DEBFB2
:10021000CDBF00E00CBF12E0A0E0B2E0E4EAFBE1F9
:1002200000E00BBF02C007900D92A831B107D9F7CB
:1002300022E0A8E1B2E001C01D92AE3FB207E1F7B3
:1002400011E0C3E0D1E000E006C021970109802F52
:10025000FE010E94C80DC230D10780E00807A9F74F
:100260000E949B0B0C94D00DCBCEAF92BF92CF923D
:10027000DF92EF92FF920F931F93CF93DF936C0166
:100280007B018B01040F151FEB015E01AE18BF0847
:10029000C017D10759F06991D601ED91FC910190F9
:1002A000F081E02DC6011995892B79F7C501DF9101
:1002B000CF911F910F91FF90EF90DF90CF90BF9063
:1002C000AF900895FC01538D448D252F30E0842F8D
:1002D00090E0821B930B541710F0CF96089501976E
:1002E0000895FC01918D828D981761F0A28DAE0F5B
:1002F000BF2FB11D5D968C91928D9F5F9F73928FE2
:1003000090E008958FEF9FEF0895FC01918D828D0D
:10031000981731F0828DE80FF11D858D90E00895DA
:100320008FEF9FEF0895FC01918D228D892F90E032
:10033000805C9F4F821B91098F739927089588E1F4
:1003400092E0F1DF21E0892B09F420E0822F08956B
:10035000FC01A48DA80FB92FB11DA35ABF4F2C913A
:10036000848D90E001968F739927848FA689B78931
:100370002C93A089B1898C91837080648C93938D28
:10038000848D981306C00288F389E02D80818F7DCB
:1003900080830895EF92FF920F931F93CF93DF9383
:1003A000EC0181E0888F9B8D8C8D98131AC0E889B1
:1003B000F989808185FF15C09FB7F894EE89FF8980
:1003C0006083E889F98980818370806480839FBF1E
:1003D00081E090E0DF91CF911F910F91FF90EF901E
:1003E0000895F62E0B8D10E00F5F1F4F0F7311272E
:1003F000E02E8C8D8E110BC00FB607FCFACFE8896A
:10040000F989808185FFF5CFCE01A2DFF2CFEB8D98
:10041000EC0FFD2FF11DE35AFF4FF0829FB7F894C8
:100420000B8FEA89FB8980818062D0CFCF93DF93E5
:10043000EC01888D8823B1F0AA89BB89E889F98904
:100440008C9185FD03C0808186FD0CC00FB607FC32
:10045000F7CF8C9185FFF2CF808185FFEDCFCE0164
:1004600077DFEACFDF91CF91089580E090E0892B8C
:1004700021F065DF81110E94000080E090E0892B6F
:1004800049F080E090E0892B29F00E940000811162
:100490000E94000080E090E0892B49F080E090E02D
:1004A000892B29F00E94000081110E94000080E049
:1004B00090E0892B49F080E090E0892B29F00E94A0
:1004C000000081110C94000008953FB7F8948091CA
:1004D000C7029091C802A091C902B091CA0226B584
:1004E000A89B05C02F3F19F00196A11DB11D3FBF6C
:1004F000BA2FA92F982F8827BC01CD01620F711D3B
:10050000811D911D42E0660F771F881F991F4A9534
:10051000D1F708954F925F926F927F92AF92BF9200
:10052000CF92DF92EF92FF920F931F93CF93DF93BF
:10053000CDB7DEB729013A019B01AC012419350979
:10054000460957098A899B89AC89BD89BC01CD01BF
:100550006A197B098C099D090E94B90DA8019701B0
:1005600024193509460957090E94620DCA01B901CB
:100570006A0D7B1D8C1D9D1DDF91CF911F910F91E9
:10058000FF90EF90DF90CF90BF90AF907F906F90F3
:100590005F904F9008951F920F920FB60F92112403
:1005A0000BB60F922F933F934F935F936F937F936D
:1005B0008F939F93AF93BF93EF93FF9388E192E064
:1005C000C7DEFF91EF91BF91AF919F918F917F9186
:1005D0006F915F914F913F912F910F900BBE0F90B4
:1005E0000FBE0F901F9018951F920F920FB60F928B
:1005F00011240BB60F922F938F939F93EF93FF933A
:10060000E0912802F09129028081E0912E02F09180
:100610002F0282FD1DC09081809131028F5F8F7308
:1006200020913202821741F0E0913102F0E0E85E61
:10063000FD4F958F80933102FF91EF919F918F91A4
:100640002F910F900BBE0F900FBE0F901F9018951B
:100650008081F2CFCF92DF92EF92FF921F93CF93E0
:10066000DF93EC016A017B01122FE889F98982E0AE
:100670008083C11481EED806E104F104A1F060E0AA
:1006800079E08DE390E0A70196010E94880D21504A
:1006900031094109510956954795379527952115F7
:1006A00080E1380798F0E889F989108260E874E8F9
:1006B0008EE190E0A70196010E94880D215031093A
:1006C000410951095695479537952795EC85FD8544
:1006D0003083EE85FF852083188EEC89FD89108399
:1006E000EA89FB89808180618083EA89FB89808136
:1006F00088608083EA89FB89808180688083EA89B9
:10070000FB8980818F7D8083DF91CF911F91FF9046
:10071000EF90DF90CF900895282F30E0F901E25458
:10072000FE4F9491F901E858FE4F44912E5C3E4FE4
:10073000F9012491222309F477C0992311F19150F2
:100740009231F8F4E92FF0E08827E655FC4F8F4FFF
:100750000C94C80DD903DD03BC03D103D503C10339
:10076000E003E603EA03F003F403F803FE030204E4
:10077000C10306040C041004809180008F778093DD
:100780008000E22FF0E0EE0FFF1FE85EFE4FA59124
:10079000B491EC91E42381E090E009F047C080E05F
:1007A0000895809180008F7DEACF80918000877FBF
:1007B000E6CF84B58F7784BDE4CF84B58F7DFBCF42
:1007C0008091B0008F778093B000DBCF8091B00034
:1007D0008F7DF9CF809190008F7780939000D1CF5B
:1007E000809190008F7DF9CF80919000877FF5CF29
:1007F0008091A0008F778093A000C3CF8091A0004C
:100800008F7DF9CF8091A000877FF5CF8091200167
:100810008F7780932001B5CF809120018F7DF9CF14
:1008200080912001877FF5CF80E090E00895CF93FD
:10083000DF9390E0FC01E858FE4F24918E5C9E4FC0
:10084000FC0184918823C9F090E0880F991FFC0176
:10085000E250FF4FA591B491FC01EC51FF4FC591BF
:10086000D49161110DC09FB7F8948C91209582238B
:100870008C938881282328839FBFDF91CF9108958F
:10088000623051F49FB7F8943C91822F8095832376
:100890008C93E8812E2BEFCF8FB7F894EC912E2B11
:1008A0002C938FBFEACF863308F0865320917B00CC
:1008B000982F9870277F922B90937B00877080648D
:1008C00080937C0080917A00806480937A0080918C
:1008D0007A0086FDFCCF8091780090917900089590
:1008E0008F929F92AF92BF92CF92DF92EF92FF9240
:1008F0006B017C01EADD4B015C01C114D104E10410
:10090000F104B1F0E2DD681979098A099B09683EB2
:1009100073408105910588F321E0C21AD108E108EE
:10092000F10888EE880E83E0981EA11CB11CE5CF6B
:10093000FF90EF90DF90CF90BF90AF909F908F90FF
:1009400008951F920F920FB60F9211242F933F9389
:100950008F939F93AF93BF938091C3029091C402F2
:10096000A091C502B091C6023091C20223E0230FCC
:100970002D3758F50196A11DB11D2093C202809319
:10098000C3029093C402A093C502B093C6028091A3
:10099000C7029091C802A091C902B091CA02019603
:1009A000A11DB11D8093C7029093C802A093C902F4
:1009B000B093CA02BF91AF919F918F913F912F91B8
:1009C0000F900FBE0F901F90189526E8230F0296E8
:1009D000A11DB11DD2CF1F920F920FB60F921124FD
:1009E0000BB60F922F933F934F935F936F937F9329
:1009F0008F939F93AF93BF93EF93FF938091C00228
:100A00009091C1028093B2008091BC029091BD028E
:100A1000A091BE02B091BF020196A11DB11D8093AD
:100A2000BC029093BD02A093BE02B093BF0280911E
:100A3000BC029091BD02A091BE02B091BF02409154
:100A4000B8025091B9026091BA027091BB0284174A
:100A50009507A607B70710F18091B70281111EC054
:100A600081E08093B7028091BC029091BD02A09179
:100A7000BE02B091BF02841B950BA60BB70B8093EF
:100A8000BC029093BD02A093BE02B093BF02E0915E
:100A9000B502F091B60219951092B702FF91EF914D
:100AA000BF91AF919F918F917F916F915F914F9186
:100AB0003F912F910F900BBE0F900FBE0F901F9084
:100AC00018951092BC021092BD021092BE021092B4
:100AD000BF021092B7028091C0029091C102809330
:100AE000B200E0E7F0E080818160808308956115C5
:100AF000710581059105D1F581E090E0A0E0B0E0BD
:100B00008093B8029093B902A093BA02B093BB024B
:100B10005093B6024093B502809170008E7F80930F
:100B200070008091B0008C7F8093B0008091B10004
:100B3000877F8093B1008091B6008F7D8093B6004F
:100B4000809170008D7F809370008091B1008460EF
:100B50008093B1008091B1008C7F8093B10086E0DA
:100B600090E09093C1028093C00208956093B80210
:100B70007093B9028093BA029093BB02C9CFCF930E
:100B8000DF9300D000D0CDB7DEB79A8389834B8343
:100B90005C836D837E838B819C81AD81BE81E98185
:100BA000FA8126E0AC01BD01CF0154DD000026969C
:100BB0000FB6F894DEBF0FBECDBFDF91CF91089581
:100BC000AF92BF92CF92DF92EF92FF920F931F935B
:100BD000CF93DF93CDB7DEB78091F002882F90E0FE
:100BE0008230910521F0039709F464C00CC1809113
:100BF000D9029091DA02FC0180819181CC01A0E0C0
:100C0000B0E01F921F9229E02F9324EC2F930F2E18
:100C1000F4EFAF2EBB24B394C12CD12CF02DE12CDA
:100C200014E0F12E00E010E020E030E0A901BC016A
:100C3000CD0170DC0F900F900F900F909B01AC01D5
:100C40008091D9029091DA02FC0131832083809156
:100C5000EF02882F90E0009719F0019759F0D6C065
:100C60008091DB029091DC022CED35E0FC013183B8
:100C700020831FC08091DB029091DC022CED35E0D7
:100C8000FC01318320838091F6029091F702019656
:100C90009093F7028093F6028091F6029091F7020A
:100CA0000A9731F41092F7021092F6021092EF02B6
:100CB0000000ACC08091EF02882F90E08130910558
:100CC00009F1823091051CF4892B49F09FC08230D4
:100CD000910509F441C0039709F467C097C080915A
:100CE000D9029091DA022CED35E0FC0131832083AA
:100CF0008091DB029091DC022CED35E0FC01318328
:100D0000208380C08091D9029091DA022CED35E0E9
:100D1000FC01318320838091DB029091DC022CED79
:100D200035E0FC01318320838091F4029091F5023B
:100D300001969093F5028093F4028091F4029091D1
:100D4000F5020A9709F059C01092F5021092F402C8
:100D500082E08093EF0251C08091D9029091DA0233
:100D60002CED35E0FC01318320838091DB029091F2
:100D7000DC022CED35E0FC01318320838091F6020A
:100D80009091F70201969093F7028093F60280917A
:100D9000F6029091F7020A9791F51092F7021092DD
:100DA000F60283E08093EF022AC08091D9029091ED
:100DB000DA022CED35E0FC01318320838091DB02E7
:100DC0009091DC022CED35E0FC0131832083809191
:100DD000F4029091F50201969093F5028093F4024B
:100DE0008091F4029091F5020A9759F41092F5025D
:100DF0001092F4021092EF0204C0000007C000003D
:100E000005C0000003C01092EF0200000000DF9157
:100E1000CF911F910F91FF90EF90DF90CF90BF90F7
:100E2000AF900895CF93DF93CDB7DEB760E08EE14A
:100E3000FEDC60E08FE1FBDC60E080E2F8DC60E09B
:100E400081E2F5DC60E082E2F2DC60E083E2EFDC8C
:100E500060E084E2ECDC60E085E2E9DC60E086E210
:100E6000E6DC60E087E2E3DC60E088E2E0DC60E0B2
:100E700089E2DDDC60E08AE2DADC60E08BE2D7DC8C
:100E800060E08CE2D4DC60E08DE2D1DC40E052EC4A
:100E900061E070E088E192E072DE87E190E0EDD4FD
:100EA0009093CC028093CB028091CB029091CC02A4
:100EB00001969093CE028093CD028091CB029091C7
:100EC000CC0203969093D0028093CF028091CB0204
:100ED0009091CC0205969093D2028093D10280919A
:100EE000CB029091CC0207969093D4028093D302C8
:100EF0008091CB029091CC0209969093D602809378
:100F0000D5028091CB029091CC020B969093D8029F
:100F10008093D7028091CB029091CC020D96909352
:100F2000DA028093D9028091CB029091CC020F9685
:100F30009093DC028093DB028091CB029091CC02F3
:100F400041969093DE028093DD028091CB029091D6
:100F5000CC0242969093E0028093DF028091CB0214
:100F60009091CC0243969093E2028093E1028091AB
:100F7000CB029091CC0244969093E4028093E302DA
:100F80008091CB029091CC0245969093E60280939B
:100F9000E5020000DF91CF910895AF92BF92CF920A
:100FA000DF92EF92FF920F931F93CF93DF93CDB712
:100FB000DEB786E378DC9C018091CD029091CE0271
:100FC000FC013183208387E36EDC9C018091CF029A
:100FD0009091D002FC013183208388E364DC9C0182
:100FE0008091D1029091D202FC013183208389E368
:100FF0005ADC9C018091D3029091D402FC01318390
:1010000020838AE350DC9C018091D5029091D60226
:10101000FC01318320838BE346DC9C018091D70265
:101020009091D802FC01318320838EE175DB9C0115
:101030008091DD029091DE02FC01208380E26CDB76
:101040009C018091DF029091E002FC01208381E20B
:1010500063DB9C018091E1029091E202FC0120831C
:1010600083E25ADB8093E7028FE156DB8093E8024C
:1010700085E252DB8093E90286E24EDB8093EA024E
:1010800087E24ADB8093EB0288E246DB8093EC0246
:1010900089E242DB8093ED028AE23EDB8093EE023E
:1010A0008BE23ADB8093F1028CE236DB8093F20232
:1010B0008DE232DB8093F3028091F202982F990F38
:1010C0008091F102292F280F9091F302892F880F28
:1010D000890F820F8093F0028091D5029091D60201
:1010E000FC01408151818091E702282F30E0429F2E
:1010F000C001439F900D529F900D1124CC01A0E0A0
:10110000B0E01F921F9223E12F9327E82F93A12C89
:10111000B12C6501E12C14E0F12E00E010E020E09C
:1011200030E0A901BC01CD01F5D90F900F900F90CF
:101130000F909B01AC018091D5029091D602FC01E9
:10114000318320838091E902282F30E08091EA02E8
:10115000882F90E0880F991FA901480F591F80918F
:10116000EB02282F30E0C901880F991F820F931FCF
:10117000840F951F382F2091E8028091E50290910D
:10118000E602329F202D1124FC0120838091CD02A4
:101190009091CE02FC0180819181CC01A0E0B0E071
:1011A0001F921F9227E02F9325E82F930F2EF3E332
:1011B000AF2EF4E0BF2EC12CD12CF02DE12C14E089
:1011C000F12E00E010E020E030E0A901BC01CD01EB
:1011D000A1D90F900F900F900F909B01AC018091BF
:1011E000CD029091CE02FC01318320838091CF0209
:1011F0009091D002FC0180819181CC01A0E0B0E00F
:101200001F921F9227E02F9325E82F930F2EF3E3D1
:10121000AF2EF4E0BF2EC12CD12CF02DE12C14E028
:10122000F12E00E010E020E030E0A901BC01CD018A
:1012300071D90F900F900F900F909B01AC0180918E
:10124000CF029091D002FC01318320838091D102A2
:101250009091D202FC0180819181CC01A0E0B0E0AC
:101260001F921F9227E02F9325E82F930F2EF3E371
:10127000AF2EF4E0BF2EC12CD12CF02DE12C14E0C8
:10128000F12E00E010E020E030E0A901BC01CD012A
:1012900041D90F900F900F900F909B01AC0180915E
:1012A000D1029091D202FC01318320838091D3023C
:1012B0009091D402FC0180819181CC01A0E0B0E04A
:1012C0001F921F9224E02F9323E32F930F2EF5E814
:1012D000AF2EF7E0BF2EC12CD12CF02DE12C14E065
:1012E000F12E00E010E020E030E0A901BC01CD01CA
:1012F00011D90F900F900F900F909B01AC0180912E
:10130000D3029091D402FC01318320838091D702D3
:101310009091D802FC0180819181CC01A0E0B0E0E5
:101320001F921F9229E02F9324EC2F930F2EF4EF9E
:10133000AF2EBB24B394C12CD12CF02DE12C14E0A2
:10134000F12E00E010E020E030E0A901BC01CD0169
:10135000E1D80F900F900F900F909B01AC018091FE
:10136000D7029091D802FC01318320838091F00252
:10137000882F90E08230910509F47CC0833091057C
:1013800009F4F7C0019709F077C18CE38CDA9C016E
:101390008091D9029091DA02FC01318320838DE3A0
:1013A00082DA9C018091DB029091DC02FC013183A6
:1013B00020838091D9029091DA02FC018081918191
:1013C000CC01A0E0B0E01F921F9229E02F9324EC03
:1013D0002F930F2EF4EFAF2EBB24B394C12CD12C3E
:1013E000F02DE12C14E0F12E00E010E020E030E0E0
:1013F000A901BC01CD018ED80F900F900F900F90D6
:101400009B01AC018091D9029091DA02FC013183F9
:1014100020838091DB029091DC02FC01808191812C
:10142000CC01A0E0B0E01F921F9229E02F9324ECA2
:101430002F930F2EF4EFAF2EBB24B394C12CD12CDD
:10144000F02DE12C14E0F12E00E010E020E030E07F
:10145000A901BC01CD015ED80F900F900F900F90A5
:101460009B01AC018091DB029091DC02FC01318395
:10147000208302C18CE317DA9C018091D9029091FC
:10148000DA02FC01318320838091D9029091DA0243
:10149000FC0180819181CC01A0E0B0E01F921F92FD
:1014A00029E02F9324EC2F930F2EF4EFAF2EBB24C3
:1014B000B394C12CD12CF02DE12C14E0F12E00E0DE
:1014C00010E020E030E0A901BC01CD0123D80F904D
:1014D0000F900F900F909B01AC018091D9029091D9
:1014E000DA02FC01318320838091EF02882309F026
:1014F000C0C082E211D98093EF028DE3D4D99C0160
:101500008091DB029091DC02FC0131832083809189
:10151000DB029091DC02FC0180819181CC01A0E092
:10152000B0E01F921F9229E02F9324EC2F930F2EEF
:10153000F4EFAF2EBB24B394C12CD12CF02DE12CB1
:1015400014E0F12E00E010E020E030E0A901BC0141
:10155000CD010E948A020F900F900F900F909B0177
:10156000AC018091DB029091DC02FC01318320838D
:1015700080C08091EF02882309F07DC08CE393D96D
:101580009C018091D9029091DA02FC013183208381
:101590008DE389D99C018091DB029091DC02FC01F2
:1015A0003183208382E2B8D88093EF028091D90200
:1015B0009091DA02FC0180819181CC01A0E0B0E041
:1015C0001F921F9229E02F9324EC2F930F2EF4EFFC
:1015D000AF2EBB24B394C12CD12CF02DE12C14E000
:1015E000F12E00E010E020E030E0A901BC01CD01C7
:1015F0000E948A020F900F900F900F909B01AC01F8
:101600008091D9029091DA02FC013183208380918C
:10161000DB029091DC02FC0180819181CC01A0E091
:10162000B0E01F921F9229E02F9324EC2F930F2EEE
:10163000F4EFAF2EBB24B394C12CD12CF02DE12CB0
:1016400014E0F12E00E010E020E030E0A901BC0140
:10165000CD010E948A020F900F900F900F909B0176
:10166000AC018091DB029091DC02FC01318320838C
:1016700002C0000001C000000000DF91CF911F9167
:101680000F91FF90EF90DF90CF90BF90AF900895B3
:10169000CF93DF93CDB7DEB7C5DB60EA7FE080E0B4
:1016A00090E01ED940EE55E064E670E080E090E006
:1016B0001EDA07DA0000DF91CF910895CF93DF9310
:1016C000CDB7DEB788E192E00E94930121E01816C1
:1016D00019060CF020E0222349F188E192E00E94F3
:1016E00071018093F9028091F9028F3F01F5809199
:1016F000F8028F5F8093F8028091F8028230B9F48B
:101700001092F80280911802909119020296FC0141
:10171000208131818091CB029091CC0247E150E051
:10172000BC0188E192E0F901199501C036DC0000A6
:10173000DF91CF910895789484B5826084BD84B59B
:10174000816084BD85B5826085BD85B5816085BDBC
:1017500080916E00816080936E0010928100809174
:1017600081008260809381008091810081608093FC
:101770008100809180008160809380008091B10021
:1017800084608093B1008091B00081608093B0004C
:10179000809191008260809391008091910081609E
:1017A000809391008091900081608093900080915F
:1017B000A10082608093A1008091A100816080934C
:1017C000A1008091A00081608093A0008091210100
:1017D00082608093210180912101816080932101A9
:1017E0008091200181608093200180917A00846043
:1017F00080937A0080917A00826080937A00809151
:101800007A00816080937A0080917A00806880936A
:101810007A001092C1003CDF51DF0E943502FCCFFC
:10182000E8E1F2E01382128288EE93E0A0E0B0E0FB
:1018300084839583A683B7838AE092E09183808333
:1018400085EC90E09587848784EC90E09787868785
:1018500080EC90E0918B808B81EC90E0938B828B7D
:1018600082EC90E0958B848B86EC90E0978B868B56
:10187000118E128E138E148E08950F931F93CF9393
:10188000DF938230910510F482E090E0E091FC0259
:10189000F091FD0230E020E0B0E0A0E0309799F454
:1018A0002115310509F44AC0281B390B24303105B4
:1018B000D8F58A819B816115710589F1FB019383BC
:1018C0008283FE0111C0408151810281138148173A
:1018D0005907E0F04817590799F4109761F01296EC
:1018E0000C93129713961C933296CF01DF91CF91F0
:1018F0001F910F9108950093FC021093FD02F4CF05
:101900002115310551F04217530738F0A901DB01C9
:101910009A01BD01DF01F801C1CFEF01F9CF90932A
:10192000FD028093FC02CDCFFE01E20FF31F8193F5
:1019300091932250310939832883D7CF2091FA021D
:101940003091FB02232B41F42091020230910302DB
:101950003093FB022093FA022091000230910102A1
:101960002115310541F42DB73EB740910402509145
:101970000502241B350BE091FA02F091FB02E217FD
:10198000F307A0F42E1B3F0B2817390778F0AC01A2
:101990004E5F5F4F2417350748F04E0F5F1F50937F
:1019A000FB024093FA02819391939FCFF0E0E0E035
:1019B0009CCFCF93DF930097E9F0FC01329713821D
:1019C0001282A091FC02B091FD02ED0130E020E016
:1019D0001097A1F420813181820F931F2091FA0288
:1019E0003091FB022817390709F061C0F093FB0220
:1019F000E093FA02DF91CF910895EA01CE17DF0755
:101A0000E8F54A815B819E0141155105B1F7E90175
:101A1000FB83EA8349915991C40FD51FEC17FD0749
:101A200061F4808191810296840F951FE901998369
:101A30008883828193819B838A83F0E0E0E0129621
:101A40008D919C9113970097B9F52D913C91119729
:101A5000CD010296820F931F2091FA023091FB0272
:101A60002817390739F6309751F51092FD02109278
:101A7000FC02B093FB02A093FA02BCCFD383C283D3
:101A800040815181840F951FC817D90761F44E5FBB
:101A90005F4F88819981480F591F518340838A8104
:101AA0009B81938382832115310509F0B0CFF09398
:101AB000FD02E093FC029ECFFD01DC01C0CF13824A
:101AC0001282D7CF052E97FB16F400940FD057FD46
:101AD00005D01ED007FC02D046F408C050954095B2
:101AE000309521953F4F4F4F5F4F089590958095CA
:101AF000709561957F4F8F4F9F4F08952BD0A59F75
:101B0000900DB49F900DA49F800D911D11240895F8
:101B1000A1E21A2EAA1BBB1BFD010DC0AA1FBB1FF1
:101B2000EE1FFF1FA217B307E407F50720F0A21B63
:101B3000B30BE40BF50B661F771F881F991F1A94D0
:101B400069F760957095809590959B01AC01BD01FA
:101B5000CF010895A29FB001B39FC001A39F700D54
:101B6000811D1124911DB29F700D811D1124911DA5
:101B70000895DB018F939F93C1DFBF91AF91A29F27
:101B8000800D911DA39F900DB29F900D112408957B
:101B9000EE0FFF1F881F8BBF0790F691E02D199461
:041BA000F894FFCFE7
:101BA4000000FE02800000000000CA01350162014D
:081BB400160293017101850185
:00000001FF
