:1000000002C1000031C100002FC100002DC100005D
:100010002BC1000029C1000027C1000025C100003C
:1000200023C1000021C100001FC100001DC100004C
:100030001BC1000019C1000017C10000CCC40000A2
:1000400013C1000011C100000FC100000DC100006C
:100050000BC1000009C1000007C1000072C400000C
:1000600003C10000C1C2000096C20000FDC0000034
:10007000FBC00000F9C00000F7C00000F5C00000A0
:10008000F3C00000F1C00000EFC00000EDC00000B0
:10009000EBC00000E9C00000E7C00000E5C00000C0
:1000A000E3C00000E1C00000DFC00000DDC00000D0
:1000B000DBC00000D9C00000D7C00000D5C00000E0
:1000C000D3C00000D1C00000CFC00000CDC00000F0
:1000D000CBC00000C9C00000C7C00000C5C0000000
:1000E000C3C0000000002200250028002B002E00C5
:1000F0003100340002010000050108010B0100007D
:100100002100240027002A002D00300033000101C7
:100110000000040107010A0100002000230026005E
:1001200029002C002F00320000010000030106010D
:10013000090105050505070508080808020202026D
:100140000A0A080804040404010101010101010173
:100150000303030303030303040707070C0C0C0C3E
:100160000C0C0C0C02020202060606060606060627
:100170000B0B0B0B0B0B0B0B0102102020080810B4
:100180002040102040800201020108040201010207
:1001900004081020408080402010080402018004E0
:1001A000020180402010080402010804020101023B
:1001B0000408102040800102040810204080000044
:1001C0000A0B02090C0D0E080703040100000000D1
:1001D000000000000000000000000000000000001F
:1001E00000000000000000000000121110000000DC
:1001F00000000000000000000000000000000000FF
:10020000000000007B0C11241FBECFEFD1E2DEBF47
:10021000CDBF00E00CBF12E0A0E0B2E0EAE7FCE1F5
:1002200000E00BBF02C007900D92A831B107D9F7CB
:1002300022E0A8E1B2E001C01D92AE3FB207E1F7B3
:1002400011E0C3E0D1E000E006C021970109802F52
:10025000FE010E94330EC230D10780E00807A9F7E3
:100260000E94060C0C943B0ECBCEAF92BF92CF9265
:10027000DF92EF92FF920F931F93CF93DF936C0166
:100280007B018B01040F151FEB015E01AE18BF0847
:10029000C017D10759F06991D601ED91FC910190F9
:1002A000F081E02DC6011995892B79F7C501DF9101
:1002B000CF911F910F91FF90EF90DF90CF90BF9063
:1002C000AF900895FC01538D448D252F30E0842F8D
:1002D00090E0821B930B541710F0CF96089501976E
:1002E0000895FC01918D828D981761F0A28DAE0F5B
:1002F000BF2FB11D5D968C91928D9F5F9F73928FE2
:1003000090E008958FEF9FEF0895FC01918D828D0D
:10031000981731F0828DE80FF11D858D90E00895DA
:100320008FEF9FEF0895FC01918D228D892F90E032
:10033000805C9F4F821B91098F739927089588E1F4
:1003400092E0F1DF21E0892B09F420E0822F08956B
:10035000FC01A48DA80FB92FB11DA35ABF4F2C913A
:10036000848D90E001968F739927848FA689B78931
:100370002C93A089B1898C91837080648C93938D28
:10038000848D981306C00288F389E02D80818F7DCB
:1003900080830895EF92FF920F931F93CF93DF9383
:1003A000EC0181E0888F9B8D8C8D98131AC0E889B1
:1003B000F989808185FF15C09FB7F894EE89FF8980
:1003C0006083E889F98980818370806480839FBF1E
:1003D00081E090E0DF91CF911F910F91FF90EF901E
:1003E0000895F62E0B8D10E00F5F1F4F0F7311272E
:1003F000E02E8C8D8E110BC00FB607FCFACFE8896A
:10040000F989808185FFF5CFCE01A2DFF2CFEB8D98
:10041000EC0FFD2FF11DE35AFF4FF0829FB7F894C8
:100420000B8FEA89FB8980818062D0CFCF93DF93E5
:10043000EC01888D8823B1F0AA89BB89E889F98904
:100440008C9185FD03C0808186FD0CC00FB607FC32
:10045000F7CF8C9185FFF2CF808185FFEDCFCE0164
:1004600077DFEACFDF91CF91089580E090E0892B8C
:1004700021F065DF81110E94000080E090E0892B6F
:1004800049F080E090E0892B29F00E940000811162
:100490000E94000080E090E0892B49F080E090E02D
:1004A000892B29F00E94000081110E94000080E049
:1004B00090E0892B49F080E090E0892B29F00E94A0
:1004C000000081110C94000008953FB7F8948091CA
:1004D000C7029091C802A091C902B091CA0226B584
:1004E000A89B05C02F3F19F00196A11DB11D3FBF6C
:1004F000BA2FA92F982F8827BC01CD01620F711D3B
:10050000811D911D42E0660F771F881F991F4A9534
:10051000D1F708954F925F926F927F92AF92BF9200
:10052000CF92DF92EF92FF920F931F93CF93DF93BF
:10053000CDB7DEB729013A019B01AC012419350979
:10054000460957098A899B89AC89BD89BC01CD01BF
:100550006A197B098C099D090E94240EA801970144
:1005600024193509460957090E94CD0DCA01B90160
:100570006A0D7B1D8C1D9D1DDF91CF911F910F91E9
:10058000FF90EF90DF90CF90BF90AF907F906F90F3
:100590005F904F9008951F920F920FB60F92112403
:1005A0000BB60F922F933F934F935F936F937F936D
:1005B0008F939F93AF93BF93EF93FF9388E192E064
:1005C000C7DEFF91EF91BF91AF919F918F917F9186
:1005D0006F915F914F913F912F910F900BBE0F90B4
:1005E0000FBE0F901F9018951F920F920FB60F928B
:1005F00011240BB60F922F938F939F93EF93FF933A
:10060000E0912802F09129028081E0912E02F09180
:100610002F0282FD1DC09081809131028F5F8F7308
:1006200020913202821741F0E0913102F0E0E85E61
:10063000FD4F958F80933102FF91EF919F918F91A4
:100640002F910F900BBE0F900FBE0F901F9018951B
:100650008081F2CFCF92DF92EF92FF921F93CF93E0
:10066000DF93EC016A017B01122FE889F98982E0AE
:100670008083C11481EED806E104F104A1F060E0AA
:1006800079E08DE390E0A70196010E94F30D2150DF
:1006900031094109510956954795379527952115F7
:1006A00080E1380798F0E889F989108260E874E8F9
:1006B0008EE190E0A70196010E94F30D21503109CF
:1006C000410951095695479537952795EC85FD8544
:1006D0003083EE85FF852083188EEC89FD89108399
:1006E000EA89FB89808180618083EA89FB89808136
:1006F00088608083EA89FB89808180688083EA89B9
:10070000FB8980818F7D8083DF91CF911F91FF9046
:10071000EF90DF90CF900895282F30E0F901E25458
:10072000FE4F9491F901E858FE4F44912E5C3E4FE4
:10073000F9012491222309F477C0992311F19150F2
:100740009231F8F4E92FF0E08827E655FC4F8F4FFF
:100750000C94330ED903DD03BC03D103D503C103CD
:10076000E003E603EA03F003F403F803FE030204E4
:10077000C10306040C041004809180008F778093DD
:100780008000E22FF0E0EE0FFF1FE85EFE4FA59124
:10079000B491EC91E42381E090E009F047C080E05F
:1007A0000895809180008F7DEACF80918000877FBF
:1007B000E6CF84B58F7784BDE4CF84B58F7DFBCF42
:1007C0008091B0008F778093B000DBCF8091B00034
:1007D0008F7DF9CF809190008F7780939000D1CF5B
:1007E000809190008F7DF9CF80919000877FF5CF29
:1007F0008091A0008F778093A000C3CF8091A0004C
:100800008F7DF9CF8091A000877FF5CF8091200167
:100810008F7780932001B5CF809120018F7DF9CF14
:1008200080912001877FF5CF80E090E00895CF93FD
:10083000DF9390E0FC01E858FE4F24918E5C9E4FC0
:10084000FC0184918823C9F090E0880F991FFC0176
:10085000E250FF4FA591B491FC01EC51FF4FC591BF
:10086000D49161110DC09FB7F8948C91209582238B
:100870008C938881282328839FBFDF91CF9108958F
:10088000623051F49FB7F8943C91822F8095832376
:100890008C93E8812E2BEFCF8FB7F894EC912E2B11
:1008A0002C938FBFEACF863308F0865320917B00CC
:1008B000982F9870277F922B90937B00877080648D
:1008C00080937C0080917A00806480937A0080918C
:1008D0007A0086FDFCCF8091780090917900089590
:1008E0008F929F92AF92BF92CF92DF92EF92FF9240
:1008F0006B017C01EADD4B015C01C114D104E10410
:10090000F104B1F0E2DD681979098A099B09683EB2
:1009100073408105910588F321E0C21AD108E108EE
:10092000F10888EE880E83E0981EA11CB11CE5CF6B
:10093000FF90EF90DF90CF90BF90AF909F908F90FF
:1009400008951F920F920FB60F9211242F933F9389
:100950008F939F93AF93BF938091C3029091C402F2
:10096000A091C502B091C6023091C20223E0230FCC
:100970002D3758F50196A11DB11D2093C202809319
:10098000C3029093C402A093C502B093C6028091A3
:10099000C7029091C802A091C902B091CA02019603
:1009A000A11DB11D8093C7029093C802A093C902F4
:1009B000B093CA02BF91AF919F918F913F912F91B8
:1009C0000F900FBE0F901F90189526E8230F0296E8
:1009D000A11DB11DD2CF1F920F920FB60F921124FD
:1009E0000BB60F922F933F934F935F936F937F9329
:1009F0008F939F93AF93BF93EF93FF938091C00228
:100A00009091C1028093B2008091BC029091BD028E
:100A1000A091BE02B091BF020196A11DB11D8093AD
:100A2000BC029093BD02A093BE02B093BF0280911E
:100A3000BC029091BD02A091BE02B091BF02409154
:100A4000B8025091B9026091BA027091BB0284174A
:100A50009507A607B70710F18091B70281111EC054
:100A600081E08093B7028091BC029091BD02A09179
:100A7000BE02B091BF02841B950BA60BB70B8093EF
:100A8000BC029093BD02A093BE02B093BF02E0915E
:100A9000B502F091B60219951092B702FF91EF914D
:100AA000BF91AF919F918F917F916F915F914F9186
:100AB0003F912F910F900BBE0F900FBE0F901F9084
:100AC00018951092BC021092BD021092BE021092B4
:100AD000BF021092B7028091C0029091C102809330
:100AE000B200E0E7F0E080818160808308956115C5
:100AF000710581059105D1F581E090E0A0E0B0E0BD
:100B00008093B8029093B902A093BA02B093BB024B
:100B10005093B6024093B502809170008E7F80930F
:100B200070008091B0008C7F8093B0008091B10004
:100B3000877F8093B1008091B6008F7D8093B6004F
:100B4000809170008D7F809370008091B1008460EF
:100B50008093B1008091B1008C7F8093B10086E0DA
:100B600090E09093C1028093C00208956093B80210
:100B70007093B9028093BA029093BB02C9CFCF930E
:100B8000DF9300D000D0CDB7DEB79A8389834B8343
:100B90005C836D837E838B819C81AD81BE81E98185
:100BA000FA8126E0AC01BD01CF0154DD000026969C
:100BB0000FB6F894DEBF0FBECDBFDF91CF91089581
:100BC000AF92BF92CF92DF92EF92FF920F931F935B
:100BD000CF93DF93CDB7DEB78091F902853000F176
:100BE00088E192E023DC61E070E080E090E078DE74
:100BF00080911802909119020296FC0120813181A6
:100C00008091CB029091CC0247E150E0BC0188E199
:100C100092E0F901199588E192E008DC1092F9025E
:100C20008091F002882F90E08230910521F00397A7
:100C300009F464C00CC18091D9029091DA02FC01E0
:100C400080819181CC01A0E0B0E01F921F9229E049
:100C50002F9324EC2F930F2EF4EFAF2EBB24B394DD
:100C6000C12CD12CF02DE12C14E0F12E00E010E08D
:100C700020E030E0A901BC01CD014CDC0F900F90C9
:100C80000F900F909B01AC018091D9029091DA02F4
:100C9000FC01318320838091EF02882F90E0009740
:100CA00019F0019759F0D6C08091DB029091DC02D7
:100CB0002CED35E0FC01318320831FC08091DB02E5
:100CC0009091DC022CED35E0FC0131832083809192
:100CD000F6029091F70201969093F7028093F60244
:100CE0008091F6029091F702059731F41092F70285
:100CF0001092F6021092EF020000ACC08091EF0259
:100D0000882F90E08130910509F1823091051CF423
:100D1000892B49F09FC08230910509F441C00397A7
:100D200009F467C097C08091D9029091DA022CED46
:100D300035E0FC01318320838091DB029091DC025D
:100D40002CED35E0FC013183208380C08091D902F5
:100D50009091DA022CED35E0FC0131832083809103
:100D6000DB029091DC022CED35E0FC013183208325
:100D70008091F4029091F50201969093F502809390
:100D8000F4028091F4029091F502059709F059C0A0
:100D90001092F5021092F40282E08093EF0251C0AB
:100DA0008091D9029091DA022CED35E0FC0131837B
:100DB00020838091DB029091DC022CED35E0FC0178
:100DC000318320838091F6029091F70201969093EF
:100DD000F7028093F6028091F6029091F702059750
:100DE00091F51092F7021092F60283E08093EF02E1
:100DF0002AC08091D9029091DA022CED35E0FC01F5
:100E0000318320838091DB029091DC022CED35E070
:100E1000FC01318320838091F4029091F5020196C8
:100E20009093F5028093F4028091F4029091F50280
:100E3000059759F41092F5021092F4021092EF0205
:100E400004C0000007C0000005C0000003C01092ED
:100E5000EF0200008091F9028F5F8093F902000099
:100E6000DF91CF911F910F91FF90EF90DF90CF9086
:100E7000BF90AF900895CF93DF93CDB7DEB760E01A
:100E80008EE1D5DC60E08FE1D2DC60E080E2CFDC97
:100E900060E081E2CCDC60E082E2C9DC60E083E219
:100EA000C6DC60E084E2C3DC60E085E2C0DC60E0D8
:100EB00086E2BDDC60E087E2BADC60E088E2B7DCB5
:100EC00060E089E2B4DC60E08AE2B1DC60E08BE201
:100ED000AEDC60E08CE2ABDC60E08DE2A8DC40E000
:100EE00052EC61E070E088E192E049DE87E190E059
:100EF0002FD59093CC028093CB028091CB0290911E
:100F0000CC0225E2FC0120838091CB029091CC029F
:100F1000469621E2FC0120838091CB029091CC0285
:100F200001969093CE028093CD028091CB02909156
:100F3000CC0203969093D0028093CF028091CB0293
:100F40009091CC0205969093D2028093D102809129
:100F5000CB029091CC0207969093D4028093D30257
:100F60008091CB029091CC0209969093D602809307
:100F7000D5028091CB029091CC020B969093D8022F
:100F80008093D7028091CB029091CC020D969093E2
:100F9000DA028093D9028091CB029091CC020F9615
:100FA0009093DC028093DB028091CB029091CC0283
:100FB00041969093DE028093DD028091CB02909166
:100FC000CC0242969093E0028093DF028091CB02A4
:100FD0009091CC0243969093E2028093E10280913B
:100FE000CB029091CC0244969093E4028093E3026A
:100FF0008091CB029091CC0245969093E60280932B
:10100000E5028091CB029091CC0225E2FC01208385
:101010008091CB029091CC02469621E2FC01208384
:101020008091CD029091CE022CED35E0FC01318310
:1010300020838091CF029091D0022CED35E0FC010D
:10104000318320838091D1029091D2022CED35E042
:10105000FC01318320838091D3029091D4022CED46
:1010600035E0FC01318320838091D5029091D60236
:10107000FC01118210828091D7029091D8022CED50
:1010800035E0FC01318320838091D9029091DA020E
:101090002CED35E0FC01318320838091DB029091BF
:1010A000DC022CED35E0FC01318320838091DD02F0
:1010B0009091DE02FC0110828091DF029091E002AB
:1010C000FC0110828091E1029091E202FC01108209
:1010D0008091E3029091E40221E0FC012083809161
:1010E000E5029091E602FC01108280911802909135
:1010F00019020296FC01208131818091CB029091EE
:10110000CC0247E150E0BC0188E192E0F901199579
:101110000000DF91CF910895AF92BF92CF92DF92FE
:10112000EF92FF920F931F93CF93DF93CDB7DEB76C
:1011300060970FB6F894DEBF0FBECDBF86E3B3DB7A
:101140009A83898387E3AFDB9C838B8388E3ABDB64
:101150009E838D8389E3A7DB98878F838AE3A3DB54
:101160009A8789878BE39FDB9C878B878EE1D4DA14
:101170009C018091DD029091DE02FC01208380E2DF
:10118000CBDA9C018091DF029091E002FC01208388
:1011900081E2C2DA9C018091E1029091E202FC01BD
:1011A000208383E2B9DA8093E7028FE1B5DA809396
:1011B000E80285E2B1DA8093E90286E2ADDA809353
:1011C000EA0287E2A9DA8093EB0288E2A5DA80934B
:1011D000EC0289E2A1DA8093ED028AE29DDA809343
:1011E000EE028BE299DA8093F1028CE295DA809339
:1011F000F2028DE291DA8093F3028091F202982F4D
:10120000990F8091F102292F280F9091F302892FD5
:10121000880F890F820F8093F0028091E702482F98
:1012200050E029853A85429FC001439F900D529F0F
:10123000900D1124CC01A0E0B0E01F921F9223E199
:101240002F9327E82F93A12CB12C6501E12C14E0FA
:10125000F12E00E010E020E030E0A901BC01CD015A
:1012600059D90F900F900F900F909B01AC01809176
:10127000D5029091D602FC01318320838091E9024E
:10128000282F30E08091EA02882F90E0880F991F84
:10129000A901480F591F8091EB02282F30E0C901A6
:1012A000880F991F820F931F840F951F382F20914D
:1012B000E8028091E5029091E602329F202D1124F0
:1012C000FC01208389819A81CC01A0E0B0E01F92CB
:1012D0001F9227E02F9325E82F930F2EF3E3AF2ED5
:1012E000F4E0BF2EC12CD12CF02DE12C14E0F12E16
:1012F00000E010E020E030E0A901BC01CD010AD9F6
:101300000F900F900F900F909B01AC018091CD0238
:101310009091CE02FC01318320838B819C81CC0192
:10132000A0E0B0E01F921F9224E02F9323E32F93BD
:101330000F2EF5E8AF2EF7E0BF2EC12CD12CF02DEB
:10134000E12C14E0F12E00E010E020E030E0A901F3
:10135000BC01CD01DFD80F900F900F900F909B0133
:10136000AC018091CF029091D002FC0131832083A7
:101370008D819E81CC01A0E0B0E01F921F9224E0FD
:101380002F9323E32F930F2EF5E8AF2EF7E0BF2E18
:10139000C12CD12CF02DE12C14E0F12E00E010E056
:1013A00020E030E0A901BC01CD01B4D80F900F902E
:1013B0000F900F909B01AC018091D1029091D202CD
:1013C000FC01318320838F819885CC01A0E0B0E0BF
:1013D0001F921F9224E02F9323E32F930F2EF5E803
:1013E000AF2EF7E0BF2EC12CD12CF02DE12C14E054
:1013F000F12E00E010E020E030E0A901BC01CD01B9
:1014000089D80F900F900F900F909B01AC018091A5
:10141000D3029091D402FC01318320838B859C857B
:10142000CC01A0E0B0E01F921F9229E02F9324ECA2
:101430002F930F2EF4EFAF2EBB24B394C12CD12CDD
:10144000F02DE12C14E0F12E00E010E020E030E07F
:10145000A901BC01CD015ED80F900F900F900F90A5
:101460009B01AC018091D7029091D802FC0131839D
:1014700020831E861D86188A1F868091F002882F81
:1014800090E08230910509F467C08330910509F43A
:10149000CDC0019709F037C18CE305DA9E878D87AF
:1014A0008DE301DA988B8F878D859E85CC01A0E036
:1014B000B0E01F921F9229E02F9324EC2F930F2E60
:1014C000F4EFAF2EBB24B394C12CD12CF02DE12C22
:1014D00014E0F12E00E010E020E030E0A901BC01B2
:1014E000CD0118D80F900F900F900F909B01AC0179
:1014F0008091D9029091DA02FC01318320838F859B
:101500009889CC01A0E0B0E01F921F9229E02F93B0
:1015100024EC2F930F2EF4EFAF2EBB24B394C12CE9
:10152000D12CF02DE12C14E0F12E00E010E020E0B1
:1015300030E0A901BC01CD010E948A020F900F90FA
:101540000F900F909B01AC018091DB029091DC0227
:10155000FC0131832083D7C08CE3A5D99E878D877A
:101560008D859E85CC01A0E0B0E01F921F9229E0FE
:101570002F9324EC2F930F2EF4EFAF2EBB24B394B4
:10158000C12CD12CF02DE12C14E0F12E00E010E064
:1015900020E030E0A901BC01CD010E948A020F9039
:1015A0000F900F900F909B01AC018091D902909108
:1015B000DA02FC01318320838091EF02882309F055
:1015C0009FC082E2A9D88093EF028DE36CD9988BFB
:1015D0008F878F859889CC01A0E0B0E01F921F9281
:1015E00029E02F9324EC2F930F2EF4EFAF2EBB2482
:1015F000B394C12CD12CF02DE12C14E0F12E00E09D
:1016000010E020E030E0A901BC01CD010E948A0277
:101610000F900F900F900F909B01AC018091DB0217
:101620009091DC02FC01318320836AC08091EF023B
:10163000882309F067C08CE336D99E878D878DE3B8
:1016400032D9988B8F8782E267D88093EF028D859D
:101650009E85CC01A0E0B0E01F921F9229E02F935D
:1016600024EC2F930F2EF4EFAF2EBB24B394C12C98
:10167000D12CF02DE12C14E0F12E00E010E020E060
:1016800030E0A901BC01CD010E948A020F900F90A9
:101690000F900F909B01AC018091D9029091DA02DA
:1016A000FC01318320838F859889CC01A0E0B0E0D4
:1016B0001F921F9229E02F9324EC2F930F2EF4EF0B
:1016C000AF2EBB24B394C12CD12CF02DE12C14E00F
:1016D000F12E00E010E020E030E0A901BC01CD01D6
:1016E0000E948A020F900F900F900F909B01AC0107
:1016F0008091DB029091DC02FC013183208302C0E7
:10170000000001C00000000060960FB6F894DEBF34
:101710000FBECDBFDF91CF911F910F91FF90EF9042
:10172000DF90CF90BF90AF900895CF93DF93CDB768
:10173000DEB7A1DB68EE73E080E090E0D1D8ECDCAE
:1017400080911802909119020296FC01208131814A
:101750008091CB029091CC0247E150E0BC0188E13E
:1017600092E0F901199540EE55E068EC70E080E0F8
:1017700090E0BDD9A6D90000DF91CF910895CF9315
:10178000DF93CDB7DEB788E192E00E94930121E0BC
:10179000181619060CF020E0222399F188E192E056
:1017A0000E9471018091F8028F5F8093F80280910E
:1017B000F802853239F51092F8021092F90288E1A8
:1017C00092E00E94160261E070E080E090E088D82C
:1017D00080911802909119020296FC0120813181BA
:1017E0008091CB029091CC0247E150E0BC0188E1AE
:1017F00092E0F901199588E192E00E9416028CDCD2
:1018000001C08ADC0000DF91CF910895789484B5FF
:10181000826084BD84B5816084BD85B5826085BDEC
:1018200085B5816085BD80916E00816080936E007A
:10183000109281008091810082608093810080916C
:10184000810081608093810080918000816080931D
:1018500080008091B10084608093B1008091B000DD
:1018600081608093B00080919100826080939100AC
:1018700080919100816080939100809190008160BF
:10188000809390008091A10082608093A10080915C
:10189000A10081608093A1008091A000816080936D
:1018A000A00080912101826080932101809121011B
:1018B00081608093210180912001816080932001CB
:1018C00080917A00846080937A0080917A008260AF
:1018D00080937A0080917A00816080937A00809171
:1018E0007A00806880937A001092C1001EDF47DF83
:1018F0000E943502FCCFE8E1F2E01382128288EE0A
:1019000093E0A0E0B0E084839583A683B7838AE068
:1019100092E09183808385EC90E09587848784ECC6
:1019200090E09787868780EC90E0918B808B81ECAC
:1019300090E0938B828B82EC90E0958B848B86EC8D
:1019400090E0978B868B118E128E138E148E0895D5
:101950000F931F93CF93DF938230910510F482E0B1
:1019600090E0E091FC02F091FD0230E020E0B0E078
:10197000A0E0309799F42115310509F44AC0281BDD
:10198000390B24303105D8F58A819B8161157105A9
:1019900089F1FB0193838283FE0111C04081518153
:1019A0000281138148175907E0F04817590799F445
:1019B000109761F012960C93129713961C9332961F
:1019C000CF01DF91CF911F910F9108950093FC02F9
:1019D0001093FD02F4CF2115310551F04217530742
:1019E00038F0A901DB019A01BD01DF01F801C1CF87
:1019F000EF01F9CF9093FD028093FC02CDCFFE0161
:101A0000E20FF31F81939193225031093983288388
:101A1000D7CF2091FA023091FB02232B41F4209181
:101A20000202309103023093FB022093FA022091CC
:101A30000002309101022115310541F42DB73EB766
:101A40004091040250910502241B350BE091FA02EB
:101A5000F091FB02E217F307A0F42E1B3F0B2817AF
:101A6000390778F0AC014E5F5F4F2417350748F017
:101A70004E0F5F1F5093FB024093FA0281939193A4
:101A80009FCFF0E0E0E09CCFCF93DF930097E9F0A9
:101A9000FC01329713821282A091FC02B091FD02E8
:101AA000ED0130E020E01097A1F420813181820F18
:101AB000931F2091FA023091FB022817390709F091
:101AC00061C0F093FB02E093FA02DF91CF91089599
:101AD000EA01CE17DF07E8F54A815B819E014115D7
:101AE0005105B1F7E901FB83EA8349915991C40F8C
:101AF000D51FEC17FD0761F4808191810296840F58
:101B0000951FE90199838883828193819B838A83CE
:101B1000F0E0E0E012968D919C9113970097B9F553
:101B20002D913C911197CD010296820F931F209128
:101B3000FA023091FB022817390739F6309751F530
:101B40001092FD021092FC02B093FB02A093FA02E5
:101B5000BCCFD383C28340815181840F951FC817A6
:101B6000D90761F44E5F5F4F88819981480F591FF3
:101B7000518340838A819B81938382832115310520
:101B800009F0B0CFF093FD02E093FC029ECFFD017F
:101B9000DC01C0CF13821282D7CF052E97FB16F43B
:101BA00000940FD057FD05D01ED007FC02D046F49C
:101BB00008C050954095309521953F4F4F4F5F4F4E
:101BC000089590958095709561957F4F8F4F9F4FA9
:101BD00008952BD0A59F900DB49F900DA49F800DCC
:101BE000911D11240895A1E21A2EAA1BBB1BFD0111
:101BF0000DC0AA1FBB1FEE1FFF1FA217B307E407EC
:101C0000F50720F0A21BB30BE40BF50B661F771F43
:101C1000881F991F1A9469F7609570958095909523
:101C20009B01AC01BD01CF010895A29FB001B39FFC
:101C3000C001A39F700D811D1124911DB29F700DD5
:101C4000811D1124911D0895DB018F939F93C1DFA6
:101C5000BF91AF91A29F800D911DA39F900DB29F48
:101C6000900D11240895EE0FFF1F881F8BBF079062
:0A1C7000F691E02D1994F894FFCFCF
:101C7A000000FE02800000000000CA013501620176
:081C8A001602930171018501AE
:020000023000CC
:10E000000D9489F10D94B2F10D94B2F10D94B2F129
:10E010000D94B2F10D94B2F10D94B2F10D94B2F1F0
:10E020000D94B2F10D94B2F10D94B2F10D94B2F1E0
:10E030000D94B2F10D94B2F10D94B2F10D94B2F1D0
:10E040000D94B2F10D94B2F10D94B2F10D94B2F1C0
:10E050000D94B2F10D94B2F10D94B2F10D94B2F1B0
:10E060000D94B2F10D94B2F10D94B2F10D94B2F1A0
:10E070000D94B2F10D94B2F10D94B2F10D94B2F190
:10E080000D94B2F10D94B2F10D94B2F10D94B2F180
:10E090000D94B2F10D94B2F10D94B2F10D94B2F170
:10E0A0000D94B2F10D94B2F10D94B2F10D94B2F160
:10E0B0000D94B2F10D94B2F10D94B2F10D94B2F150
:10E0C0000D94B2F10D94B2F10D94B2F10D94B2F140
:10E0D0000D94B2F10D94B2F10D94B2F10D94B2F130
:10E0E0000D94B2F141546D656761323536300041AF
:10E0F000726475696E6F206578706C6F72657220DE
:10E1000073746B3530305632206279204D4C530099
:10E11000426F6F746C6F616465723E004875683F52
:10E1200000436F6D70696C6564206F6E203D200048
:10E130004350552054797065202020203D20005FF9
:10E140005F4156525F415243485F5F3D2000415658
:10E1500052204C696243205665723D20004743437C
:10E160002056657273696F6E203D20004350552024
:10E1700049442020202020203D20004C6F7720663D
:10E18000757365202020203D20004869676820665F
:10E190007573652020203D200045787420667573D6
:10E1A00065202020203D20004C6F636B2066757336
:10E1B000652020203D20004D617220203720323024
:10E1C000313300312E362E3800342E332E350056A2
:10E1D00023202020414444522020206F7020636F70
:10E1E00064652020202020696E73747275637469E1
:10E1F0006F6E2061646472202020496E74657272B3
:10E20000757074006E6F20766563746F7200726A49
:10E210006D702020006A6D70200057686174207056
:10E220006F72743A00506F7274206E6F7420737541
:10E2300070706F72746564004D7573742062652030
:10E2400061206C6574746572002000577269747483
:10E25000696E672045450052656164696E672045B7
:10E26000450045452065727220636E743D00504F35
:10E27000525400303D5A65726F2061646472003FF1
:10E280003D43505520737461747300403D454550C3
:10E29000524F4D207465737400423D426C696E6B41
:10E2A000204C454400453D44756D70204545505215
:10E2B0004F4D00463D44756D7020464C415348001B
:10E2C000483D48656C70004C3D4C69737420492F83
:10E2D0004F20506F72747300513D51756974005234
:10E2E0003D44756D702052414D00563D73686F7707
:10E2F00020696E7465727275707420566563746FF0
:10E30000727300593D506F727420626C696E6B00BD
:10E310002A0011241FBECFEFD1E2DEBFCDBF01E046
:10E320000CBF12E0A0E0B2E0EEE1FDEF03E00BBFB6
:10E3300002C007900D92A030B107D9F712E0A0E01B
:10E34000B2E001C01D92AE30B107E1F70F9460F367
:10E350000D948DFE01E20EBF0FEF0DBF11241FBE05
:10E360000D9460F30D9400F020E030E040ED57E0B4
:10E3700005C0FA013197F1F72F5F3F4F2817390792
:10E38000C0F308959C01260F311DC901A0E0B0E043
:10E390002F5F3F4FABBFFC018791882361F08093D3
:10E3A000C6008091C00086FFFCCF8091C0008064D1
:10E3B0008093C000EACF08958DE08093C6008091DD
:10E3C000C00086FFFCCF8091C00080648093C000B5
:10E3D0008AE08093C6008091C00086FFFCCF8091C8
:10E3E000C00080648093C00008950F94C2F10F9420
:10E3F000DCF10895FC019081992359F09093C600B7
:10E400008091C00086FFFCCF8091C0008064809323
:10E41000C0003196992379F70895282F982F929567
:10E420009F70892F805D8A3308F0895F8093C600D2
:10E430008091C00086FFFCCF8091C00080648093F3
:10E44000C000822F8F70982F905D9A3308F0995FEB
:10E450009093C6008091C00086FFFCCF8091C000E1
:10E4600080648093C00008959C01FB01853691056E
:10E470001CF46330710594F0C90164E670E00F94F8
:10E480002EFE605D7F4F6093C6008091C00086FFC6
:10E49000FCCF8091C00080648093C0002B30310598
:10E4A00014F43297B4F0C90164E670E00F942EFEC4
:10E4B0006AE070E00F942EFE605D7F4F6093C600AF
:10E4C0008091C00086FFFCCF8091C0008064809363
:10E4D000C000C9016AE070E00F942EFEC0968093E0
:10E4E000C6008091C00086FFFCCF8091C000806490
:10E4F0008093C00008951F93182F8EE692EE60E07F
:10E500000F94C2F11093C6008091C00086FFFCCF2B
:10E510008091C00080648093C0000F94DCF11F9153
:10E5200008952F923F924F925F926F927F928F92B7
:10E530009F92AF92BF92CF92DF92EF92FF920F9392
:10E540001F93DF93CF93CDB7DEB762970FB6F894E2
:10E55000DEBF0FBECDBF382E622ECA01DB015C01CB
:10E560006D01772420E2222E2E010894411C511CBB
:10E570008BC081E0A81680E0B80681E0C80680E084
:10E58000D80628F0C601AA27BB270F940DF2BB2797
:10E59000AD2D9C2D8B2D0F940DF28A2D0F940DF225
:10E5A0002092C6008091C00086FFFCCF8091C00001
:10E5B00080648093C0009DE29093C6008091C0006B
:10E5C00086FFFCCF8091C00080648093C0002092C1
:10E5D000C6008091C00086FFFCCF8091C00080649F
:10E5E0008093C00019828601750188249924A1E0D6
:10E5F0003A1651F03A1620F0B2E03B1661F409C029
:10E600000BBFF701779007C0C7010F9477FE782EF4
:10E6100002C0F7017080872D0F940DF22092C60082
:10E620008091C00086FFFCCF8091C0008064809301
:10E63000C000872D8052F401EF70F0708F3520F408
:10E64000E40DF51D708204C0E40DF51D8EE280839B
:10E650000894E11CF11C011D111D0894811C911CE2
:10E6600090E18916910409F0C2CF80E190E0A0E02A
:10E67000B0E0A80EB91ECA1EDB1E198AC2010F9493
:10E68000FAF10F94DCF16A94662009F072CF629679
:10E690000FB6F894DEBF0FBECDBFCF91DF911F91B3
:10E6A0000F91FF90EF90DF90CF90BF90AF909F9031
:10E6B0008F907F906F905F904F903F902F90089534
:10E6C0002F923F924F925F926F927F928F929F9282
:10E6D000AF92BF92CF92DF92EF92FF920F931F9370
:10E6E000DF93CF93CDB7DEB7CD53D1400FB6F894BB
:10E6F000DEBF0FBECDBF01E20EBF0FEF0DBF94B75F
:10E70000F894A89514BE80916000886180936000A1
:10E7100010926000789493FF05C0E0910002F091A0
:10E7200001021995279A2F9A8091C00082608093E8
:10E73000C00080E18093C40088E18093C1000000A4
:10E74000EE24FF24870144E0A42EB12CCC24DD2448
:10E7500024C0C5010197F1F70894E11CF11C011DCB
:10E76000111D21E2E2162EE4F20620E0020720E06D
:10E77000120718F031E0C32ED12CC801B70127ECE5
:10E780003BE140E050E00F9441FE611571058105C9
:10E79000910519F485B1805885B98091C00087FD35
:10E7A00003C0C114D104A9F2A6014F5F5F4FC25E3E
:10E7B000DE4F59834883CE51D140C25EDE4F8881FF
:10E7C0009981CE51D140019711F00D9410FEC05D9A
:10E7D000DE4F19821882C053D14060E0C15DDE4F28
:10E7E0001882CF52D14088249924C35DDE4F19820C
:10E7F0001882CD52D140C05EDE4F188219821A8233
:10E800001B82C052D140CE5CDE4F188219821A8220
:10E810001B82C253D140EE24FF2487010BBFF701B6
:10E8200007911691C45CDE4F19830883CC53D14005
:10E830000D940BFEC25EDE4F28813981CE51D1404E
:10E840002130310509F52091C600C25EDE4F1982E4
:10E850001882CE51D14022C02F5F3F4F4F4F5F4FA4
:10E86000213082E138078AE7480780E0580780F0C6
:10E87000C45CDE4FE881F981CC53D140EF5FFF4F9C
:10E8800019F0EE27FF27099420E030E040E050E047
:10E890008091C00087FFE0CF2091C600C35DDE4FAE
:10E8A00048815981CD52D1404F5F5F4FC35DDE4FEC
:10E8B00059834883CD52D140213209F063C64A3092
:10E8C000510508F05FC60894811C911C53E0851621
:10E8D000910409F059C600E010E018C081E280936D
:10E8E000C6008091C00086FFFCCF8091C00080648C
:10E8F0008093C0002F5F3F4F2931310579F70F9486
:10E90000DCF10F5F1F4F0530110519F020E030E0FA
:10E91000E5CF10920A0210920B0210920C02109294
:10E920000D02109206021092070210920802109235
:10E930000902109202021092030210920402109235
:10E9400005028FEE90EE60E00F94F5F180E191EE1C
:10E9500060E00F94C2F18091C00087FFFCCF9091DE
:10E96000C600903608F09F759032B8F09093C600BC
:10E970008091C00086FFFCCF8091C00080648093AE
:10E98000C000A0E2A093C6008091C00086FFFCCF2B
:10E990008091C00080648093C000983409F4D7C18E
:10E9A0009934B8F4923409F459C1933458F490333B
:10E9B00019F1903308F4E3C59F33A1F1903409F0C5
:10E9C000DEC5BDC0953409F470C1963409F0D7C5D1
:10E9D00098C1923509F42BC2933538F49C3409F46C
:10E9E000F5C1913509F0CBC518C2963509F445C279
:10E9F000993509F0C4C567C483E792EE62E00F94CD
:10EA0000F5F110920602109207021092080210927D
:10EA1000090210920A0210920B0210920C0210923C
:10EA20000D0213C18FE792EE62E00F94F5F18FEEC5
:10EA300090EE60E00F94F5F181E291EE60E00F94CA
:10EA4000C2F187EB91EE60E00F94F5F180E391EE77
:10EA500060E00F94C2F184EE90EE60E00F94F5F167
:10EA60008FE391EE60E00F94C2F186E090E061E008
:10EA700070E00F9434F20F94DCF18DE591EE60E0DC
:10EA80000F94C2F189EC91EE60E00F94F5F18EE401
:10EA900091EE60E00F94C2F183EC91EE60E00F9490
:10EAA000F5F18CE691EE60E00F94C2F18EE10F94E7
:10EAB0000DF288E90F940DF281E00F940DF20F949E
:10EAC000DCF18BE791EE60E00F94C2F119E0E0E039
:10EAD000F0E010935700E4918E2F0F940DF20F94F5
:10EAE000DCF18AE891EE60E00F94C2F1E3E0F0E03F
:10EAF00010935700E4918E2F0F940DF20F94DCF1D8
:10EB000089E991EE60E00F94C2F1E2E0F0E0109349
:10EB10005700E4918E2F0F940DF20F94DCF188EAE8
:10EB200091EE60E00F94C2F1E1E0F0E01093570045
:10EB30001491812F0F940DF20F94DCF107CF8BE825
:10EB400092EE62E00F94F5F18BE492EE60E00F94A8
:10EB5000F5F10F94DCF100E010E019C0C8016F2D51
:10EB60000F947FFEFF2031F489E492EE60E00F9471
:10EB7000C2F10BC0F092C6008091C00086FFFCCFAE
:10EB80008091C00080648093C0000F5F1F4FC80158
:10EB900081519F41A0E0B0E0ABBFFC01F790BAE229
:10EBA000FB1621F0E2E000301E07C1F60F94DCF105
:10EBB0000F94DCF187E592EE60E00F94F5F10F948D
:10EBC000DCF1CC24DD2400E010E01EC0C8010F946D
:10EBD00077FEF82E882331F489E492EE60E00F94FA
:10EBE000C2F10BC08093C6008091C00086FFFCCFAD
:10EBF0008091C00080648093C000FE1419F00894D6
:10EC0000C11CD11C0F5F1F4FC80181519F41A0E063
:10EC1000B0E0ABBFFC01E790FAE2EF1621F022E092
:10EC20000030120799F60F94DCF10F94DCF182E6C4
:10EC300092EE60E00F94C2F1C60161E070E00F94C3
:10EC400034F20F94DCF10F94DCF110920202109276
:10EC50000302109204021092050278CE89E992EE26
:10EC600062E00F94F5F1279A2F9A16C02F9880E052
:10EC700090E0E0EDF7E03197F1F7019684369105E9
:10EC8000C1F72F9A80E090E0E0EDF7E03197F1F7DF
:10EC9000019684369105C1F78091C00087FFE6CFC9
:10ECA0008091C00087FFFCCF64C485EA92EE62E0E9
:10ECB0000F94F5F140910202509103026091040219
:10ECC0007091050281E020E10F9491F2809102029F
:10ECD00090910302A0910402B091050280509F4FD1
:10ECE000AF4FBF4F8093020290930302A0930402A0
:10ECF000B093050280509041A040B04008F426CE69
:10ED0000A4CF83EB92EE62E00F94F5F140910602FE
:10ED100050910702609108027091090280E020E1A1
:10ED20000F9491F28091060290910702A09108023F
:10ED3000B091090280509F4FAF4FBF4F80930602A2
:10ED400090930702A0930802B0930902FFCD80ECD4
:10ED500092EE62E00F94F5F183E792EE60E00F949B
:10ED6000F5F18FE792EE60E00F94F5F18BE892EE0B
:10ED700060E00F94F5F189E992EE60E00F94F5F10F
:10ED800085EA92EE60E00F94F5F183EB92EE60E09D
:10ED90000F94F5F180EC92EE60E00F94F5F187ECC2
:10EDA00092EE60E00F94F5F188ED92EE60E00F9442
:10EDB000F5F18FED92EE60E00F94F5F18AEE92EEB0
:10EDC00060E00F94F5F183E093EEBDCD87EC92EE19
:10EDD00062E00F94F5F181E40F947BF282E40F94EA
:10EDE0007BF283E40F947BF284E40F947BF285E45E
:10EDF0000F947BF286E40F947BF287E40F947BF20E
:10EE000088E40F947BF28AE40F947BF28BE40F94F6
:10EE10007BF28CE40F947BF299CD88ED92EE62E068
:10EE20000F94F5F1772473948824992409C48FED05
:10EE300092EE62E00F94F5F140910A0250910B02BC
:10EE400060910C0270910D0282E020E10F9491F22A
:10EE500080910A0290910B02A0910C02B0910D02D8
:10EE600080509F4FAF4FBF4F80930A0290930B0289
:10EE7000A0930C02B0930D0269CD8AEE92EE62E08F
:10EE80000F94F5F184EE90EE60E00F94F5F18FECC5
:10EE900091EE60E00F94F5F1662477244301CC5D98
:10EEA000DE4F19821882C452D140D401C301B695F5
:10EEB000A79597958795CA5DDE4F88839983AA8326
:10EEC000BB83C652D140CC5DDE4FA881B981C4520C
:10EED000D1401196CC5DDE4FB983A883C452D14096
:10EEE000CD0162E070E00F9434F2B0E2B093C6005E
:10EEF0008091C00086FFFCCF8091C0008064809329
:10EF0000C000EDE2E093C6008091C00086FFFCCF18
:10EF10008091C00080648093C000F0E2F093C6004E
:10EF20008091C00086FFFCCF8091C00080648093F8
:10EF3000C000CA5DDE4FE880F9800A811B81C6529D
:10EF4000D140BB27A12F902F8F2D0F940DF2CA5DBA
:10EF5000DE4F8881C652D1400F940DF2B0E2FB2EF5
:10EF6000F092C6008091C00086FFFCCF8091C00067
:10EF700080648093C0000DE30093C6008091C000C0
:10EF800086FFFCCF8091C00080648093C00010E2B7
:10EF90001093C6008091C00086FFFCCF8091C00016
:10EFA00080648093C0008BBEF3012791C65DDE4F65
:10EFB0002883CA52D140A22EBB24CC24DD2408943D
:10EFC000611C711C811C911C8BBEF3018791282E42
:10EFD0003324442455240894611C711C811C911C09
:10EFE0008BBEF3013791C55DDE4F3883CB52D140E4
:10EFF0000894611C711C811C911C8BBEF30147910C
:10F00000C45DDE4F4883CC52D140ADEFEA2EAFEF66
:10F01000FA2EAFEF0A2FAFEF1A2F6E0C7F1C801E57
:10F02000911E142D032DF22CEE24EA0CFB1C0C1D5A
:10F030001D1D0F940DF220E22093C6008091C000A8
:10F0400086FFFCCF8091C00080648093C000C65DC5
:10F05000DE4F8881CA52D1400F940DF230E23093D6
:10F06000C6008091C00086FFFCCF8091C000806404
:10F070008093C000C45DDE4F8881CC52D1400F9494
:10F080000DF240E24093C6008091C00086FFFCCFA5
:10F090008091C00080648093C000C55DDE4F888190
:10F0A000CB52D1400F940DF250E25093C6008091A4
:10F0B000C00086FFFCCF8091C00080648093C000B8
:10F0C0008FEFE8168FEFF80680E0080780E018075A
:10F0D00031F484E092EE60E00F94C2F1DFC0D80119
:10F0E000C7018070907CA070B0708050904CA040A0
:10F0F000B040D1F52FEF3FE340E050E0E222F322B1
:10F1000004231523CA5DDE4FA880B980CA80DB8046
:10F11000C652D140AE0CBF1CC01ED11EAA0CBB1CD7
:10F12000CC1CDD1C8EE092EE60E00F94C2F1BB2798
:10F13000A12F902F8F2D0F940DF28E2D0F940DF285
:10F1400030E23093C6008091C00086FFFCCF8091F2
:10F15000C00080648093C0004EE34093C60080915D
:10F16000C00086FFFCCF87C08EE09EEFA0E0B0E03D
:10F17000E822F9220A231B239CE0E91694E9F90608
:10F1800090E0090790E0190709F088C0C45DDE4FE0
:10F19000A881CC52D140EA2EFF2400E010E0102FCD
:10F1A0000F2DFE2CEE24C55DDE4FB881CB52D14031
:10F1B000EB0EF11C011D111DD601C501817090706F
:10F1C000A070B070DC0199278827E80EF91E0A1F8D
:10F1D0001B1F20EF30E040E050E0A222B322C42207
:10F1E000D52241E1AA0CBB1CCC1CDD1C4A95D1F7F1
:10F1F000EA0CFB1C0C1D1D1D81E090E0A0E0B0E0BE
:10F20000282239224A225B2235E1220C331C441C7D
:10F21000551C3A95D1F7E20CF31C041D151D57013E
:10F220006801AA0CBB1CCC1CDD1C85E192EE60E0E1
:10F230000F94C2F1C801AA27BB270F940DF2BB2778
:10F24000A12F902F8F2D0F940DF28E2D0F940DF274
:10F2500090E29093C6008091C00086FFFCCF809121
:10F26000C00080648093C000AEE3A093C60080918C
:10F27000C00086FFFCCF8091C00080648093C000F6
:10F28000C601AA27BB270F940DF2BB27AD2D9C2DDD
:10F290008B2D0F940DF28A2D0F940DF20F94DCF14B
:10F2A000CC5DDE4FE881F981C452D140F99709F471
:10F2B0004DCBF4E0EF2EF12C012D112D6E0C7F1CA7
:10F2C000801E911EF2CD83E093EE62E00F94F5F183
:10F2D0008AE192EE60E00F94C2F18091C00087FF56
:10F2E000FCCF1091C6001F751093C6008091C0001E
:10F2F00086FFFCCF8091C00080648093C0000F9493
:10F30000DCF1812F81548A3108F036C1163409F4BA
:10F3100095C0173490F4133409F44EC0143430F40B
:10F320001134F1F0123409F01DC130C0143409F465
:10F3300059C0153409F016C16BC01A3409F4C4C0A1
:10F340001B3438F4173409F48FC0183409F00AC19B
:10F35000A1C01B3409F4D2C01C3409F003C1E8C0B9
:10F360008FEF81B90DC082B1809582B980E090E0C5
:10F37000E0EDF7E03197F1F70196883C9105C1F790
:10F380008091C00087FFEFCF12B8EFC08FEF84B934
:10F390000DC085B1809585B980E090E0E0EDF7E0A3
:10F3A0003197F1F70196883C9105C1F78091C00033
:10F3B00087FFEFCF15B8D9C08FEF87B90DC088B1DF
:10F3C000809588B980E090E0E0EDF7E03197F1F7C3
:10F3D0000196883C9105C1F78091C00087FFEFCF6F
:10F3E00018B8C3C08FEF8AB90DC08BB180958BB9A7
:10F3F00080E090E0E0EDF7E03197F1F70196883C8E
:10F400009105C1F78091C00087FFEFCF1BB8ADC059
:10F410008FEF8DB90DC08EB180958EB980E090E0F0
:10F42000E0EDF7E03197F1F70196883C9105C1F7DF
:10F430008091C00087FFEFCF1EB897C08FEF80BBD1
:10F440000DC081B3809581BB80E090E0E0EDF7E0F6
:10F450003197F1F70196883C9105C1F78091C00082
:10F4600087FFEFCF11BA81C08FEF83BB0DC084B38C
:10F47000809584BB80E090E0E0EDF7E03197F1F714
:10F480000196883C9105C1F78091C00087FFEFCFBE
:10F4900014BA6BC08FEF809301010FC080910201FD
:10F4A00080958093020180E090E0E0EDF7E03197F5
:10F4B000F1F70196883C9105C1F78091C00087FF64
:10F4C000EDCF1092020151C08FEF809304010FC065
:10F4D0008091050180958093050180E090E0E0ED4A
:10F4E000F7E03197F1F70196883C9105C1F78091DB
:10F4F000C00087FFEDCF1092050137C08FEF8093DA
:10F5000007010FC08091080180958093080180E079
:10F5100090E0E0EDF7E03197F1F70196883C910536
:10F52000C1F78091C00087FFEDCF109208011DC088
:10F530008FEF80930A010FC080910B01809580931B
:10F540000B0180E090E0E0EDF7E03197F1F70196F4
:10F55000883C9105C1F78091C00087FFEDCF1092E4
:10F560000B0103C085E292EEEEC98091C00087FFD7
:10F57000FCCF8091C600EAC988E392EEE4C98CE131
:10F5800091EEE1C988249924933011F1943028F444
:10F59000913089F09230B8F408C0953061F195301F
:10F5A000F0F0963009F048C043C02B3109F042C951
:10F5B00091E06BE13FC96227C15DDE4F2883CF52E6
:10F5C000D14092E037C9B22FA0E0622793E032C960
:10F5D000822F90E0A82BB92B622794E02BC92E3004
:10F5E00009F039C3622795E0C05DDE4F19821882A9
:10F5F000C053D1401FC9E1E0F0E0EC0FFD1FC05D3A
:10F60000DE4F08811981C053D140E00FF11F2083E4
:10F610000F5F1F4FC05DDE4F19830883C053D14079
:10F6200062270A171B0709F005C9D80196E002C92D
:10F63000261709F010C303C0973009F0FBC87724E0
:10F640009981933109F412C19431C8F4963009F4C8
:10F65000D8C0973050F4923009F406C1933009F4C1
:10F660006DC0913009F059C253C0913109F477C08F
:10F67000923108F0BBC0903109F04FC2F5C098310B
:10F6800009F487C0993150F4953109F4EFC09531F0
:10F6900008F4C6C1963109F040C2C2C19A3109F4DA
:10F6A0006CC09A3108F491C09B3109F45BC09D3164
:10F6B00009F033C29D81903359F48F81882311F46E
:10F6C0009EE11CC0813011F091E018C098E916C08D
:10F6D000892F807591F0903539F4E0E0F0E089E011
:10F6E0008093570094910AC0983539F4E3E0F0E034
:10F6F00089E080935700949101C090E01A821B82A8
:10F700008D818C831D829E831F8227E030E009C299
:10F710001A8288E08B8381E48C8386E58D8382E581
:10F720008E8389E48F8383E5888780E589878FE5E9
:10F730008A8782E38B872BE030E0F3C18A818139AD
:10F7400041F0823941F0803911F48FE005C080E04A
:10F7500003C082E001C08AE01A828B8344C0772410
:10F76000739482C08D81882311F48EE12CC0813086
:10F7700011F081E028C088E926C01A82E1E0F0E0BB
:10F7800089E08093570084918B831C8224E030E0D1
:10F79000C8C18B81803589F48C81883039F4E2E0EE
:10F7A000F0E089E08093570084910DC0E0E0F0E044
:10F7B00089E080935700849106C0E3E0F0E089E09F
:10F7C0008093570084911A82DFCF8D81836C99E0FA
:10F7D000E1E0F0E0082E90935700E89507B600FCB2
:10F7E000FDCF1A821B8223E030E09BC180EC8A832C
:10F7F000CE5CDE4F188219821A821B82C253D1401E
:10F800008EC18A8190E0A0E0B0E0582F44273327D2
:10F8100022278B8190E0A0E0B0E0DC0199278827C7
:10F82000282B392B4A2B5B2B8D8190E0A0E0B0E098
:10F83000282B392B4A2B5B2B8C8190E0A0E0B0E089
:10F84000BA2FA92F982F8827282B392B4A2B5B2BCF
:10F85000220F331F441F551FC05EDE4F288339839C
:10F860004A835B83C052D1401A8259C13A81C95C34
:10F87000DE4F3883C753D140CA5CDE4F1882C6536F
:10F88000D1408B81C82EDD24CA5CDE4F488159816E
:10F89000C653D140C42AD52A933109F082C0CE5C28
:10F8A000DE4F88819981AA81BB81C253D1408050AB
:10F8B000904CA340B04030F583E0CE5CDE4FE88052
:10F8C000F9800A811B81C253D140F70100935B008C
:10F8D00080935700E89507B600FCFDCFCE5CDE4F65
:10F8E000088119812A813B81C253D14000501F4FAA
:10F8F0002F4F3F4FCE5CDE4F088319832A833B8313
:10F90000C253D140C05EDE4F488159816A817B81FC
:10F91000C052D140DE011B9631E08C9111962C91A2
:10F9200011971296C75CDE4F2883C953D140C85C3B
:10F93000DE4F1882C853D14090E0C85CDE4FE881AA
:10F94000F981C853D1408E2B9F2B0C01FA01609393
:10F950005B0030935700E89511244E5F5F4F6F4F67
:10F960007F4F0EEFE02E0FEFF02ECE0CDF1CC114F8
:10F97000D10499F685E0C05EDE4F088119812A81A5
:10F980003B81C052D140F80120935B008093570027
:10F99000E89507B600FCFDCF81E180935700E8951C
:10F9A00035C0C05EDE4F88819981AA81BB81C0527B
:10F9B000D140B695A795979587957C018601ABE0D8
:10F9C000AA2EB12CAC0EBD1E0BC0D5016D915D01F0
:10F9D000C7010F947FFE0894E11CF11C01501040F8
:10F9E0000115110591F7A60160E070E0440F551F65
:10F9F000661F771FC05EDE4FE880F9800A811B8199
:10FA0000C052D1404E0D5F1D601F711F1A82C05E33
:10FA1000DE4F488359836A837B83C052D1407FC0C5
:10FA2000FA80C55CDE4FF882CB53D140C65CDE4F16
:10FA30001882CA53D1408B81C82EDD24C65CDE4FAC
:10FA400008811981CA53D140C02AD12A1A828981DA
:10FA5000BE016D5F7F4F843121F59601C05EDE4FA0
:10FA6000E880F9800A811B81C052D1400BBFF701A9
:10FA700087919691DB018C9311969C936E5F7F4FDB
:10FA8000D801C7010296A11DB11DC05EDE4F88835B
:10FA90009983AA83BB83C052D14022503040F1F6F3
:10FAA00036C0C05EDE4F288139814A815B81C052F9
:10FAB000D1400894C108D108760100E010E0089414
:10FAC000C11CD11C0894E11CF11C011D111DE20E8A
:10FAD000F31E041F151F21BDBB27A52F942F832FB5
:10FAE00082BD2F5F3F4F4F4F5F4FF89A80B5DB01CC
:10FAF0008D93BD012E153F054007510761F7C05E8C
:10FB0000DE4F288339834A835B83C052D1409601FC
:10FB10002D5F3F4FFB01108204C080EC8A8322E0FE
:10FB200030E08BE18093C6008091C00086FFFCCF5F
:10FB30008091C00080648093C000C15DDE4FF88179
:10FB4000CF52D140F093C6008091C00086FFFCCF19
:10FB50008091C00080648093C000432F3093C60022
:10FB60008091C00086FFFCCF8091C00080648093AC
:10FB7000C000922F2093C6008091C00086FFFCCF6A
:10FB80008091C00080648093C0008EE08093C600A6
:10FB90008091C00086FFFCCF8091C000806480937C
:10FBA000C00065E1C15DDE4FE880CF52D1406E25D7
:10FBB00069276427FE01319610C090819093C6009A
:10FBC0008091C00086FFFCCF31968091C000806498
:10FBD0008093C0006927215030402115310569F715
:10FBE0006093C6008091C00086FFFCCF8091C0006A
:10FBF00080648093C00085B1805885B9772081F4F6
:10FC0000C15DDE4F0881CF52D1400F5FC15DDE4F35
:10FC10000883CF52D14090E0A0E0B0E00D941AF4F8
:10FC200027982F9880E090E020ED37E0F901319798
:10FC3000F1F7019684369105C9F700008091C00064
:10FC40008D7F8093C00081E180935700E895EE2777
:10FC5000FF270994FFCF90E00D941AF497FB092E2B
:10FC600007260AD077FD04D02ED006D000201AF443
:10FC7000709561957F4F0895F6F7909581959F4F08
:10FC80000895A1E21A2EAA1BBB1BFD010DC0AA1FDD
:10FC9000BB1FEE1FFF1FA217B307E407F50720F0F5
:10FCA000A21BB30BE40BF50B661F771F881F991F70
:10FCB0001A9469F760957095809590959B01AC01B9
:10FCC000BD01CF010895AA1BBB1B51E107C0AA1FAC
:10FCD000BB1FA617B70710F0A61BB70B881F991FED
:10FCE0005A95A9F780959095BC01CD010895F99991
:10FCF000FECF92BD81BDF89A992780B50895262F31
:10FD0000F999FECF1FBA92BD81BD20BD0FB6F89400
:0EFD1000FA9AF99A0FBE01960895F894FFCF63
:040000033000E000E9
:00000001FF
