:020000040800F2
:10000000F04C00205D020008492B00086702000840
:100010005D2A0008B1050008F13300080000000067
:100020000000000000000000000000009D0100082A
:100030001D07000800000000F9010008092C000855
:1000400077020008770200087702000877020008AC
:10005000770200087702000877020008770200089C
:10006000770200087702000877020008DD05000823
:10007000E9050008F5050008010600080D0600085E
:100080001906000825060008770200087702000814
:10009000770200087702000877020008770200085C
:1000A000770200087702000877020008770200084C
:1000B000770200087702000877020008770200083C
:1000C000770200087702000877020008770200082C
:1000D000770200084D330008CD330008D9330008FB
:1000E000770200087702000877020008770200080C
:1000F000770200087702000877020008310600083E
:1001000077020008770200087702000877020008EB
:10011000AD2F000851300008770200087702000870
:100120003D06000849060008550600087702000849
:1001300077020008770200087702000877020008BB
:1001400077020008770200087702000877020008AB
:1001500077020008610600086D060008E533000814
:10016000770200087702000877020008770200088B
:1001700077020008770200087702000800000000FC
:100180007702000877020008DFF80CD000F0ECF8E6
:10019000004800474D340008F04C00202C4B1968F3
:1001A0000868B0E8F04F80F30988BFF36F8F4FF015
:1001B000000080F3118870470000000008480068C4
:1001C000006880F308884FF0000080F3148862B65E
:1001D00061B6BFF34F8FBFF36F8F00DF00BF00BF6B
:1001E00008ED00E0DFF80C00016841F470010160E7
:1001F000704700BF88ED00E0EFF30980BFF36F8F19
:10020000134B1A681EF0100F08BF20ED108A20E96A
:10021000F04F106009B44FF0500080F31188BFF325
:100220004F8FBFF36F8F03F023FE4FF0000080F37A
:10023000118809BC19680868B0E8F04F1EF0100F6B
:1002400008BFB0EC108A80F30988BFF36F8F704746
:10025000C0000020EFF3058070470000064880478B
:1002600006480047FEE7FEE7FEE7FEE7FEE7FEE79B
:10027000FEE7FEE7FEE7FEE7BD2C00088901000867
:100280002DE9F05F0546002092469B4688460646CB
:10029000814640241BE0284641464746224600F05E
:1002A00053F853465A46C01A914110D31146184686
:1002B000224600F03AF82D1A67EB01084F46224615
:1002C0000120002100F031F817EB00094E41201EFB
:1002D000A4F10104DFDC484631462A464346BDE826
:1002E000F09F40EA01039B0703D009E008C9121FF1
:1002F00008C0042AFAD203E011F8013B00F8013BE0
:10030000521EF9D27047D2B201E000F8012B491E0B
:10031000FBD270470022F6E710B513460A460446A2
:100320001946FFF7F0FF204610BD202A04DB203AD3
:1003300000FA02F1002070479140C2F1200320FA38
:1003400003F3194390407047202A04DB203A21FA36
:1003500002F00021704721FA02F3D040C2F12002DE
:100360009140084319467047064C074D06E0E06887
:1003700040F0010394E8070098471034AC42F6D3EC
:10038000FFF706FFA0430008C0430008464910B528
:100390004A6822F440324A604A6843681A434A6015
:1003A00001684A6822F480724A6001684A680369F9
:1003B00042EA03224A6001684A6822F040724A60B9
:1003C00001684A6883681A434A6001688A6822F4AF
:1003D00000628A6001688A68C3681A438A60816A19
:1003E0006FF07062D14201688A6822F070628A60A0
:1003F00001688A680CD0836A1A438A6001688A6837
:1004000022F040528A6001688A68C36A1A4301E098
:1004100022F040528A6001688A6822F002028A60F3
:1004200001688A68037E42EA43028A6090F82010DD
:10043000002901684A680FD042F400624A600168EE
:100440004A6822F460424A6001684A68174C436A6D
:1004500004EB43331A4301E022F400624A6001686E
:10046000CA6A22F47002CA620168CA6A838B104C9D
:1004700004EB03531A43CA6201688A6822F40072CB
:100480008A6001688A6890F8303042EA43228A60C4
:1004900001688A6822F480628A6001688A6840691B
:1004A00042EA8020886010BD0023014000E0FFFF89
:1004B0000000F0FF5FF0C80003F0B6F8024800F05B
:1004C00018FF0120F8E70000BC0100205FF0C80021
:1004D00003F0AAF80120FBE770B5264C2649A06975
:1004E0000088086060692449083100880860E06974
:1004F000091D00880860206920490088486302F0CF
:10050000CBFA606AA16A0078097810EB410204F125
:10051000440000F10C0514D000F11C01012A15D093
:100520001C35022A20D0032A23D1E06A007851F832
:1005300020008047E06A007855F82000BDE8704050
:100540000047E16A097850F8210003E0E06A00788A
:1005500051F820008047216BE06A0978007855F84F
:100560002110BDE870400847E16A097850F8210081
:10057000DFE770BD38000020340400400020004058
:100580000A4809494160891C8160891CC160891C35
:100590000161891C4161891C8161891CC161891CBF
:1005A0000162091D016370474904002038000020E2
:1005B000FEE70000C82003F037F8064C064800F0BC
:1005C00098FEFFF789FF606803F0ECFB012003F061
:1005D0002BF8F3E708000020BC010020014800F0E0
:1005E00013BB000088050020014800F00DBB00008F
:1005F000C8070020014800F007BB0000C804002025
:10060000014800F001BB000028080020014800F06C
:10061000FBBA000028050020014800F0F5BA0000F0
:1006200008070020014800F0EFBA0000680700202A
:10063000014800F0E9BA0000E8050020014800F098
:10064000E3BA000068040020014800F0DDBA0000B1
:1006500088080020014800F0D7BA000048060020B2
:10066000014800F0D1BA0000E8080020014800F07D
:10067000CBBA0000A806002001681823CAB2103ABD
:10068000B2FBF3F2054B6FF30901032A9B5CC365D0
:1006900000D9091D81650846704700002C430008F9
:1006A00010B5014600208B698A6A4FF0C07453B1BF
:1006B000B3F5005F15D072B1012A0CD0022A0AD01E
:1006C000032A09D104E01AB1012A06D0022A03D173
:1006D000C96AC90100D5012010BDC96AA142FAD07A
:1006E00010BD002AF7D0012AF2D0022AF3D0032A43
:1006F000F3D010BD30B50468256825F48025256049
:10070000046863608368402B036803D099600068C5
:10071000C26030BD9A600068C16030BD70470000A3
:100720005FF0C80002F080FF024800F0E2FD012007
:10073000F8E70000BC0100207047704770470000D8
:10074000394C207800286AD101202070606803F0BD
:1007500029FBE06803F026FB206903F023FBA06877
:1007600003F020FBA06903F01DFB00212F4801F0DE
:1007700075FB04212D4801F071FB08212B4801F085
:100780006DFB0C21294801F069FB2848002140300D
:1007900001F064FB25480421403001F05FFB234851
:1007A0000821403001F05AFB20480C21403001F074
:1007B00055FB1E480021803001F050FB1B480821EA
:1007C000803001F04BFB19480C21803001F046FBD2
:1007D00016480021C03001F041FB154940F2DC50C1
:1007E00048638863C8630864890348638863C8638F
:1007F0000864104908600F4908310860091D086045
:100800000D4940F24C4048630C480068C16841F013
:100810001001C1601E220A49084801F0A7FE0348E2
:100820000C3800F066FD8CE708000020C8010020AD
:100830000000014034040040002000404803002034
:1008400048040020704770473248F0B500F1340189
:100850000246D1E90043D2E901650778D1E90221D6
:10086000062F56D2DFE807F05503071C30442D88C9
:100870002560846802E035882560446824881C600F
:10088000436884681B8824881B1B03F2DC531360B5
:100890004268806812880088101A00F2DC5037E045
:1008A0002D8836883544A5F2DC5525608468456876
:1008B00024882D882C44A4F2DC541C6043681B88D7
:1008C00013604068008823E02D8836883544A5F2FF
:1008D000DC5525608468456824882D882C44A4F262
:1008E000DC541C6083681B88A3F6C4135B4209E0D8
:1008F0002D88256084682488A4F6C41464421C6092
:1009000083681B88136080680088A0F6C41040428A
:100910000860F0BD380000207047000078B5002462
:10092000009490F83C20012A19D0012280F83C2044
:100930000A6807230568092A13D9EE680A3A02EB08
:10094000420293409E43EE600B788A680A3B03EBB9
:1009500043039A400368DD682A43DA6010E002200E
:1009600078BD2E6902EB420293409E432E610B78C4
:100970008A6803EB43039A4003681D692A431A619E
:100980004A681F23072A13D205686E6B521E02EBBA
:10099000820293409E436E630B790A885B1E92B27B
:1009A00003EB83039A4003685D6B2A435A6327E095
:1009B00005680D2A12D22E6BD21F02EB82029340E1
:1009C0009E432E630B790A88DB1F92B203EB8303ED
:1009D0009A4003681D6B2A431A6311E0EE6A0D3AD0
:1009E00002EB820293409E43EE620B790A880D3B34
:1009F00092B203EB83039A400368DD6A2A43DA620A
:100A0000164B0568144A9D4206D10D68122D03D17C
:100A1000556845F48005556005689D4218D10B68FE
:100A2000102B01D0112B13D1536843F400035360F2
:100A3000096810290CD10A490A4A0968B1FBF2F188
:100A400001EB8101490000E0491E00910029FBD122
:100A500080F83C40002078BD002301400020014088
:100A6000BC00002040420F0070B504004FF00005AC
:100A700003D0206C002610B107E0012070BD204695
:100A800000F01CF8666484F83C60206CC00610D44A
:100A9000206C20F4885040F0020020642046FFF7CC
:100AA00075FC6664206C20F0020040F001002064B8
:100AB00000E0012584F83C60284670BD70B586B022
:100AC000064614216846FFF725FC1D493068884218
:100AD00034D11C480025016841F480710160006830
:100AE00000F48070059017481438016841F0010146
:100AF00001600068694600F0010005903F20009009
:100B00000320CDE90105104800F0F0F9104C0F4822
:100B1000C4E900050015A560C4E9035080006061C8
:100B20008000A0618011C4E907052046656200F0DD
:100B30003BF908B1FFF786FEB463A66306B070BD4B
:100B4000002001404438024000000240106402408E
:100B5000680400202DE9F0410446876D00F0A2FAF8
:100B6000064694F835000025022806D080206065EE
:100B700084F834500120BDE8F0812068016821F03C
:100B8000160101602068416921F080014161206CFB
:100B900008B9A06C20B12068016821F0080101604B
:100BA0002068016821F0010101600BE000F07AFA91
:100BB000801B052806D92020606504F8345F0320D7
:100BC0006070D8E720680068C007EFD194F85C1027
:100BD0003F208840B86004F8345F01206070002036
:100BE000C9E790F83510022903D080214165012022
:100BF0007047052180F835100068016821F0010177
:100C000001600020704700002DE9F84304464FF0D2
:100C10000009CDF8009063484FF41651A56D0068A7
:100C2000B0FBF1F72E6894F85C10082000FA01F18F
:100C300031420FD021680A6852070BD50A6822F0AA
:100C400004020A6094F85C108840A860606D40F06F
:100C50000100606594F85C104FF0010808FA01F09B
:100C6000304208D021684969090604D5A860606D42
:100C700040F00200606594F85C1004208840304227
:100C800008D021680968890704D5A860606D40F024
:100C90000400606594F85C1010208840304218D041
:100CA00021680968090714D5A8602068016849030C
:100CB00004D50068000308D5A16C07E00168C905E8
:100CC00003D4016821F008010160216C09B12046BC
:100CD000884794F85C1020208840304231D0216849
:100CE0000968C9062DD5A86094F835000528206844
:100CF000016806D0490347D5006800031DD4616C24
:100D00001CE021F0160101602068416921F080019A
:100D10004161206C08B9A06C20B12068016821F005
:100D20000801016094F85C103F208840A86084F8B6
:100D3000349084F83580216D1FE0E16B09B12046C5
:100D40008847606D00282BD0606DC00714D0052047
:100D500084F835002068016821F0010101600098E5
:100D6000401C0090B84203D820680068C007F6D144
:100D700084F8349084F83580E16C002910D001B0FB
:100D80002046BDE8F04308470168C905D5D401688D
:100D900021F01001016084F8349084F83580CCE7AC
:100DA000BDE8F883BC0000202DE9F041044600F0C6
:100DB00079F906465CB1002584F83450022084F8A5
:100DC00035002068016821F0010101600DE001207B
:100DD000BDE8F08100F066F9801B052805D92020C8
:100DE0006065032084F83500F2E720680068C007DA
:100DF000F0D12268116820480140D4E9010318436A
:100E0000D4E903363343184363691843A36918438D
:100E1000E3691843236A18430843616A042903D12C
:100E2000D4E90B1319430843106020684069666ACF
:100E300020F0070130460E43012704280CD1A06A98
:100E40000643E06A40B12046FFF72AFC20B140206B
:100E5000606584F83570BAE7206846612046FFF780
:100E60000BFC94F85C203F2191408160656584F81B
:100E700035700020ACE700003F8010F02DE9F04114
:100E80000446866D90F83400002501280DD001201D
:100E900084F8340094F835700020012F07D084F8CE
:100EA000340002252846BDE8F0810220FBE7022736
:100EB00084F8357060652046FFF71CFC94F85C10E0
:100EC0003F208840B0602068016841F01601016051
:100ED000206C20B12068016841F0080101602068A1
:100EE000016841F001010160DCE700002DE9F84FE5
:100EF00000224FF0010803254FF00F0E0B6808FA8F
:100F000002F42340A3426ED14E68012E05D0022E7A
:100F100003D0112E01D0122E12D186684FEA420C56
:100F200005FA0CF7BE43CF6807FA0CF73743876022
:100F30004668A6430C79C4F30014944034434460DB
:100F4000C668570005FA07FC8C6826EA0C06BC4008
:100F50003443C4604C68022C01D0122C13D1D40845
:100F600000EB8404A346D4F8209054074FEAD46AD7
:100F70000EFA0AF629EA06090E6906FA0AF646EAA0
:100F80000906CBF8206006680C7926EA0C0604F006
:100F90000304BC40344304604C68E40065D5364C1F
:100FA000266846F480462660246822F0030604F48E
:100FB00080440094314C3444A446D4F80848960741
:100FC000370F0EFA07F6B4432D4EB04201D100267A
:100FD00024E02C4EB04201D101261FE02A4EB0423F
:100FE00002D102261AE040E0284EB04201D1032689
:100FF00014E0274EB04201D104260FE0254EB04246
:1010000001D105260AE0244EB04201D1062605E0B2
:10101000224EB04201D1072600E00826BE402643FA
:10102000CCF808681E4E34684F689C43FF0300D517
:101030001C4334601A4C241D26684F689E43BF032E
:1010400000D51E432660164E083634684F689C4310
:10105000FF0200D51C433460114E0C3634684F68D3
:101060009C43BF0200D51C433460521C102AFFF47D
:1010700045AFBDE8F88F0000443802400030014021
:10108000000002400004024000080240000C024040
:10109000001002400014024000180240001C0240F0
:1010A000003C01400148806870470000B00000200B
:1010B00070B5040025D094F83D00002520B984F8CF
:1010C0003C50204600F0B8F8242084F83D00206809
:1010D000016821F0010101602068016841F40041CC
:1010E00001602068016821F40041016000F072FA9B
:1010F0004D4A6168914201D84C4900E04C49884210
:1011000001D2012070BD4B492368B0FBF1F15E684C
:1011100026F03F060E435E606368934206D94FF4A3
:10112000967359434FF47A73B1FBF3F12368491C6A
:101130001E6A26F03F06314319626168914210D859
:101140004900401EB0FBF1F2521CC2F30B02042A0C
:1011500001D2042022E0B0FBF1F0401CC0F30B00F0
:101160001CE0A268F2B301EBC10303EB0116431EBE
:10117000B3FBF6F35B1C43F480431B0549D092B3E9
:1011800001EBC10202EB0111401EB0FBF1F0401C6B
:10119000C0F30B0040F4804040F400402168CA696D
:1011A0004CF6FF739A431043C861D4E9071001431A
:1011B0002068026822F0C00211430160D4E90301F3
:1011C00001432068826848F2FF339A4311438160EB
:1011D000D4E9050108432168CA6822F0FF021043E0
:1011E000C86001E00EE016E02068016841F00101EE
:1011F00001602564202084F83D00256384F83E507A
:10120000002070BD01EB4106431EB3FBF6F35B1CEF
:10121000B3E70120C2E701EB4101401EB0FBF1F052
:10122000401CC0F30B00B7E7A086010080841E00BD
:1012300000093D0040420F0010B586B0044614215D
:101240006846FFF767F813492068884220D11248A2
:10125000016841F0020101600068694600F0020087
:101260000590C020009012200190012002900320E0
:101270000390042004900948FFF738FE0648103018
:10128000016841F400110160006800F4001005904D
:1012900006B010BD00540040303802400004024047
:1012A00070B5040011D021684CF6CC40086021686C
:1012B00045F255500860D4E9000141602168A068FA
:1012C0008860FFF7EFFE054609E0012070BD00BF12
:1012D000FFF7E8FE401B302801D9032070BD2068CD
:1012E000C0680028F4D121684AF6AA2008600020CE
:1012F00070BD00684AF6AA21016000207047000016
:101300000B4810B5016841F400710160016841F4B7
:1013100080610160016841F480710160032000F088
:101320008DF8002000F006F800F03EF8002010BD17
:10133000003C024010B5014688B00022362000F083
:101340005DF8362000F04CF813480024016841F0A5
:1013500010010160006805A900F0100006906846C1
:1013600000F018F900F036F90C494000B0FBF1F13B
:101370000C480B4A491E026040F2E732C0E90324E0
:10138000C0E9011400F096FB10B1012008B010BDB7
:10139000044800F0DFFBF9E74038024040420F000C
:1013A00000100040BC0B00200C4882B0016841F4E2
:1013B00080410160006800F4804000900748001FF1
:1013C000016841F0805101600068002200F0805007
:1013D00000900F21901E02B000F010B84438024077
:1013E000002809DB00F01F02012191404009800024
:1013F00000F1E020C0F8001170470000F0B40E4B7F
:101400001B680C46C3F30223C3F10705042D00D962
:101410000425191D072901D2002300E0DB1E012647
:1014200006FA05F1491E214099409E40761E16405D
:101430003143F0BC01F0EABF0CED00E0064900F0DA
:10144000070208684FF6FF03184040EA0220034AEB
:1014500010430860704700000CED00E00000FA0542
:101460002DE9F0470E46050065D0DFF81481D8F865
:101470000000F7B200F00F00B04207D288F8007009
:10148000D8F8000000F00F00B04254D128683D4C5D
:10149000810712D5400703D5206840F4E050206052
:1014A0002878000703D5206840F460402060206859
:1014B000A96820F0F000084320602878C0072DD0EC
:1014C000304968680839012812D0022813D003284F
:1014D00011D00968890700292DDA216821F003015C
:1014E00001432160FFF7DEFD814641F2883A0EE0BC
:1014F00009688903EFE709688901ECE7FFF7D2FD86
:10150000A0EB0901514502D90320BDE8F08720680E
:10151000696800F00C00B0EB810FEFD1D8F8001033
:10152000404601F00F01B14207D90770006800F092
:101530000F00B04201D00120E7E72878400705D529
:101540002068E96820F4E05008432060287800070C
:1015500006D52068296920F4604040EAC100206077
:1015600000F058F82168084AC1F30311515CC840E3
:101570000649086006480068FFF7DCFE0020C4E763
:10158000003C02400838024034430008BC00002000
:10159000B40000200F2202600C4A136803F003031A
:1015A0004360136803F0F0038360136803F4E053AF
:1015B000C36012684FF4E05303EAD20202610448A8
:1015C000006800F00F000860704700000838024013
:1015D000003C02400448054900680968044AC1F318
:1015E0008221515CC8407047BC000020083802408E
:1015F000444300080448054900680968044AC1F3E7
:101600004231515CC8407047BC000020083802409D
:1016100044430008154810B5006810F00C02144847
:1016200013D04110042A0FD0082A0ED10F4C241FCA
:101630002268236802F03F025B0207D52068C0F3EE
:101640008810A0FB010106E0084610BD2168C1F327
:101650008811A1FB00010023FEF712FE2168C1F3EF
:101660000141491C4900B0FBF1F010BD08380240AF
:101670000024F4002DE9F84F040076D02078DFF83C
:1016800038A3CE4DC00749D0DAF800105046C1F358
:101690008101012908D00068C0F3810002280AD125
:1016A000281D0068400206D52868800336D560688A
:1016B0000028E2D032E06068B0F5803F10D0B0F58D
:1016C000A02F286810D020F480302860286820F4EB
:1016D000802028606068A0B1FFF7E4FC06460CE0BB
:1016E000286840F48030F4E740F480202860F7E771
:1016F000FFF7D8FC801B642873D828688003F7D5CF
:101700000CE0FFF7CFFC064605E000BFFFF7CAFC80
:10171000801B6428F0D828688003F7D42078DFF88D
:10172000A08280074FF000093ED5DAF8001050463D
:1017300011F00C0F09D00068C0F3810002280BD112
:101740009D48001F0068400206D42868800715D510
:10175000E068012809D111E0E068B8B10120C8F8BB
:101760000000FFF79FFC064605E020E1FFF79AFC2A
:10177000801B0228C0D828688007F7D5286821690F
:1017800020F0F80040EAC10028600DE0C8F80090A1
:10179000FFF788FC064604E0FFF784FC801B022864
:1017A0001FD828688007F7D42078000722D5824EFA
:1017B000844861696C3671B101210160FFF772FCE8
:1017C000074604E0FFF76EFCC01B022809D830680A
:1017D0008007F7D50EE0C0F80090FFF763FC0746DE
:1017E00005E082E0FFF75EFCC01B02287DD8306870
:1017F0008007F7D42078400768D5DFF8BCB1002710
:101800000BF1380BDBF80000C0000BD4DBF8001044
:1018100041F08051CBF80010DBF80000012700F008
:1018200080500090684E3068C00510D4306840F495
:1018300080703060FFF736FC009005E0FFF732FC67
:101840000099401A022850D83068C005F6D55A4E83
:10185000A068683601280FD00528306810D020F025
:1018600001003060306820F004003060A068B8B13A
:10187000FFF718FC00900FE0306840F00100F4E73B
:1018800040F004003060F7E7FFF70CFC0099411AC4
:1018900041F28830814266D830688007F4D50EE086
:1018A000FFF700FC009007E0FFF7FCFB0099411AEE
:1018B00041F28830814256D830688007F4D42FB185
:1018C000DBF8001021F08051CBF80010A069D0B3F4
:1018D000DAF800205146C2F38102022A4AD00228D7
:1018E000484607D0C8F8600000E03CE0FFF7DAFBAC
:1018F00004463BE04746C8F86000FFF7D3FB0646C6
:1019000005E000BFFFF7CEFB801B02282BD828681C
:101910008001F7D4D4E907010843A16A2B4A49089A
:1019200002EB0141626A41EA8211084394F82C10EB
:1019300040EA01612048001F016001203866FFF77E
:10194000B1FB044605E034E0FFF7ACFB001B0228C6
:1019500009D828688001F7D52BE000BFFFF7A2FB6C
:10196000001B022802D90320BDE8F88F28688001F7
:10197000F4D41EE00128F7D00868E26900F4800181
:10198000914214D1226A00F03F0191420FD147F6F3
:10199000C071626A0140914209D1A26A00F44031EB
:1019A000914204D1E16A00F07060884201D00120C8
:1019B000DAE70020D8E7000008380240003802408B
:1019C00000004742800E4742007000400000FFFFC9
:1019D00010B590F83C20012A22D0012280F83C204A
:1019E000CA688C6822F4407222434C6822F48062F8
:1019F00022430C6822F4006222430C6922F48052D4
:101A000022434C6922F400522243C969002322F484
:101A100080420A4301684A6480F83C30002010BDCF
:101A2000022010BD70B590F83C20012A32D001246C
:101A300080F83C40022280F83D2003685A689D6887
:101A400022F070060A6832435A60134B02689A42C9
:101A500014D0B2F1804F11D0104B9A420ED0104BDF
:101A60009A420BD00F4B9A4208D00F4B9A4205D0A6
:101A70000E4B9A4202D00E4B9A4204D1496825F08F
:101A800080031943916080F83D40002180F83C10AC
:101A9000084670BD022070BD0000014000040040F7
:101AA00000080040000C00400004014000400140DC
:101AB0000018004010B5040003D094F83D0010B1A8
:101AC00007E0012010BD002084F83C00204600F013
:101AD0000DF8022084F83D00211D206801F0FCF87B
:101AE000012084F83D00002010BD000008B5016809
:101AF0001448814201D1144810E01348001FB1F18D
:101B0000804F0BD0114A914210D1016841F002017F
:101B10000160006800F00200009008BD016841F01B
:101B200001010160006800F00100F5E7084A9142F8
:101B3000F3D1016841F480710160006800F48070A5
:101B4000EAE7000000000140443802400004004081
:101B5000002000400168CA6842F00102CA600068C3
:101B6000816801F00701062903D0016841F00101F5
:101B700001600020704770B5044690F83C000128D1
:101B800017D0012584F83C50022084F83D002068DD
:101B9000826822F0770222F47F428260086850282F
:101BA00030D00DDC20284DD005DC98B310283BD177
:101BB00048E0022070BD302844D0402834D139E0BC
:101BC000602828D0702806D0B0F5805F2CD0B0F502
:101BD000005F29D10AE0CB68D1E90121206801F03A
:101BE000ECF82068816841F0770109E0CB68D1E921
:101BF0000121206801F0E1F82068816841F480410A
:101C0000816011E0CA684968206801F0ABF9502191
:101C1000206807E016E0CA684968206801F0B3F957
:101C20006021206801F0D3F884F83D50002084F84A
:101C30003C0070BDCA684968206801F093F94021F2
:101C40002068EFE7226801461046EBE7F0B587B061
:101C5000044614216846FEF75DFB374A21680024DC
:101C600036480225012691420FD1016841F010014A
:101C700001600068694600F0100005904FF4D44000
:101C80000090CDE901542E483AE02E4A2E4FB1F192
:101C9000804F13D02D4B994238D1016841F0020199
:101CA00001600068694600F0020005901320009072
:101CB000CDE901541046CDE9034523E0016841F028
:101CC00002010160016801F002010591016841F023
:101CD000010101600068694600F00100059040F6CE
:101CE00008400090CDE90154CDE903461046FFF7C6
:101CF000FDF84FF400400090CDE9015469463846A4
:101D0000CDE90346FFF7F2F807B0F0BD104A914263
:101D1000FAD1016841F0010101600068694600F0F4
:101D20000100059080200090CDE901540920CDE903
:101D300003403846E6E7000000000140303802402A
:101D40000010024000040240000002400004004075
:101D50000020004070B5044690F83C000D46012874
:101D60000DD0012684F83C60022084F83D0042B189
:101D7000042A18D0082A2AD00C2A4DD139E0022092
:101D800070BD206801F02CF82068816941F00801DD
:101D900081612068816921F0040181612068816985
:101DA0002A69114311E0206801F04AF8206881692E
:101DB00041F4006181612068816921F48061816161
:101DC000206881692A6941EA0221816124E0206852
:101DD00001F06CF82068C16941F00801C161206818
:101DE000C16921F00401C1612068C1692A691143F8
:101DF00011E0206801F08EF82068C16941F40061AB
:101E0000C1612068C16921F48061C1612068C16934
:101E10002A6941EA0221C16184F83D60002084F80A
:101E20003C0070BD10B5040003D094F83D0010B123
:101E300007E0012010BD002084F83C00204600F09F
:101E40000CF8022084F83D00211D206800F044FFBA
:101E5000012084F83D00002010BD704710B50446F5
:101E60000068012200F09CFF0B492068884202D0E4
:101E70000A49884203D1416C41F400414164206821
:101E8000816801F00701062903D0016841F00101D2
:101E90000160002010BD000000000140000401406E
:101EA00010B504460068416994F83920C1F3C011A7
:101EB000212A0BD151B1416921F080014161206B90
:101EC00008B1FEF747FE204601F026F92068416977
:101ED00094F83A20C1F38011222A0BD151B1416903
:101EE00021F040014161606B08B1FEF733FE2046EE
:101EF00001F004F9002010BD7047000070B50268C1
:101F000004461068D168536910F00F0F52D003F0E7
:101F1000010501F490762E435FD0C20705D0CA05B3
:101F200003D5E26B42F00102E263420705D5DA070E
:101F300003D0E26B42F00202E263820705D5DA07C2
:101F400003D0E26B42F00402E263020707D501F01E
:101F500020022A4303D0E26B42F00802E263E26B04
:101F6000002A33D0800604D5880602D5204601F029
:101F7000DCF820684069E16BC0F38010090700D4E9
:101F800028B3204601F0BAF82068416949061AD5FD
:101F9000416921F040014161606BA0B11B490165BD
:101FA000606BFEF71EFE002810D0606B016DBDE86F
:101FB00070400847830610D58B060ED52046BDE835
:101FC000704001F0B2B82046FFF796FF70BD204682
:101FD000FFF792FF0020E06370BD030606D50B06F5
:101FE00004D52046BDE8704001F07EB94006F3D527
:101FF0004806F1D5D168204621F04001D16020216A
:1020000084F8391000F000FB70BD00005D3000085E
:1020100070B5040004D094F83900002510B106E032
:10202000012070BD84F83850204600F023F82420A9
:1020300084F839002068C16821F40051C16020464D
:1020400001F0BEF82068016921F490410161206827
:10205000416921F02A0141612068C16841F40051C1
:10206000C160E563202084F8390084F83A0000203C
:1020700070BD00002DE9F04F87B00446142168467A
:10208000FEF748F9F848F74B1038D4F800C0DFF8ED
:10209000D8B3022101220327002506154FF0080EB0
:1020A0004FF040094FF0006A9C454AD1DBF800C070
:1020B0004CF4002CCBF800C0DBF8003003F4002314
:1020C0000593036843F004030360006800F0040014
:1020D0000590B8028DE887406946E448FEF706FFA0
:1020E000E44FE3483860C7E901A5C7E903567D61BD
:1020F000BD61FD613D6238467D62FEF755FE08B167
:10210000FEF7A0FB6763BC63DB4FD948C7F80890B4
:10211000C7E903567D61BD61FD613D6230307D627E
:10212000C7E9000A3846FEF73FFE08B1FEF78AFB12
:102130002763002205213420BC63FFF75FF93420B8
:1021400072E0CE4B9C4575D1DBF800C000254CF405
:10215000801CCBF800C0DBF8003003F4801305933B
:10216000036843F004030360036803F0040305936A
:10217000036843F0080303600068029200F008005F
:1021800005904FF48050CDE900010820CDE903709F
:102190008B4690466946B548FEF7A8FE0420CDE977
:1021A000000BCDF808800820CDE903706946B448DB
:1021B000FEF79CFEAE49DFF8CC8230394046C8F8C5
:1021C0000010C0E901A5C0E90356C8F81450C8F8CA
:1021D0001850C8F81C50C8F820505746C8F824506A
:1021E000FEF7E2FD08B1FEF72DFBA148A64DC4F8AD
:1021F00034807830C8F8384085E881020020C5E98D
:1022000003066861A861E861286268622846FEF7F3
:10221000CBFD08B1FEF716FB256300220521352012
:10222000AC63FFF7EBF83520FFF7DAF807B0BDE84D
:10223000F08FFFE78C4BDFF854821B1DC4454CD157
:10224000D3F800C04CF0100CC3F800C01B6803F0BA
:1022500010030593036843F001030360006800F076
:10226000010005904FF4C0608DE8870007200490BE
:1022700069468748FEF73AFE874F86483860C7E9C7
:1022800001A5C7E903567D61BD61FD613D62384628
:102290007D62FEF789FD08B1FEF7D4FA6763BC637F
:1022A0007E4F7C48C7F80890C7E903567D61BD6141
:1022B000FD613D6278307D62C7E9000A3846FEF76D
:1022C00073FD08B1FEF7BEFA276300220521252021
:1022D000BC63FFF793F82520A6E7DFF8C481C44567
:1022E0005BD1DBF800C0A8464CF4003CCBF800C042
:1022F000DBF8003003F400330593036843F0080370
:102300000360006800F00800059060208DE88700F9
:102310000720049069465A48FEF7E8FD5449DFF863
:1023200084B148315846CBF80010C0E901A5C0E996
:102330000356CBF81450CBF81850CBF81C50CBF800
:1023400020505746CBF82450FEF72EFD08B1FEF77B
:1023500079FA4748544DC4F834B06030CBF838406F
:1023600085E88102C5E90386C5F81480C5F81880A0
:10237000C5F81C80C5F820802846C5F82480FEF7E3
:1023800013FD08B1FEF75EFA256300220521262021
:10239000AC63FFF733F8262046E7DFF81081C44529
:1023A0005ED1DBF800C04CF4802CCBF800C0DBF829
:1023B000003003F480230593036843F008030360AF
:1023C000006800F0080005904FF440708DE8870029
:1023D0000720049069462A48FEF788FD2449DFF863
:1023E000D08018394046C8F80010C0E901A5C0E9FE
:1023F0000356C8F81450C8F81850C8F81C50C8F84C
:1024000020505746C8F82450FEF7CEFC08B1FEF71E
:1024100019FAC4F83480C8F83840DFF898801449B5
:1024200040461831C0E90356C8F81450C8F818508F
:10243000C8F81C50C8F8205088E88202C8F8245018
:10244000FEF7B2FC08B1FEF7FDF9C4F830800022B7
:1024500005212720C8F83840FEF7D0FF2720E3E603
:102460002AE00000004C00404038024000080240D2
:1024700040600240C80400202805002000500040B1
:10248000000C024088050020E805002000100140F3
:10249000000002404064024048060020A8060020D8
:1024A0000044004008070020680700200048004062
:1024B000C807002028080020DFF89C80C4457FF46E
:1024C000B5AED3F800C04CF0200CC3F800C01B68B8
:1024D00003F020030593036843F0040303600068DE
:1024E00000F004000590C0208DE8874069461B4835
:1024F000FEF7FCFC1B4F1A484FF020683860C7E914
:102500000185C7E903567D61BD61FD613D623846C5
:102510007D62FEF749FC08B1FEF794F96763BC637E
:10252000114F0F48C7E903567D61BD61FD613D62F2
:1025300078307D6287E801033846FEF735FC08B144
:10254000FEF780F92763002205214720BC63FEF7D0
:1025500055FF472068E600000014014000080240D3
:102560002864024088080020E8080020F8B50446E6
:1025700090F83A0020283CD1C1B3BAB394F838009F
:10258000012836D0012084F83800A162A2850025F8
:10259000E563222084F83A00636B1748D863636BC5
:1025A00016481864636B1648D864606B134605655B
:1025B0000846666B216802463046091DFEF75EFC40
:1025C000206801684168009184F83850C16841F47E
:1025D0008071C1602068416941F00101416120685A
:1025E000416941F0400141610020F8BDFFE7012051
:1025F000FBE70220F9E70000B7300008F3300008DD
:102600006D30000870477047704700007FB50024A8
:102610002348009401940294204903940160012509
:102620004FF480310561C0E90114057680F820403F
:102630001C49C0E90A140626C661C46080F83050FF
:102640004461FEF711FACDE90045022469461448B9
:102650000294FEF763F9CDE9005469461048FEF78D
:102660005DF90094032469460D480194FEF756F97C
:102670000094042469460A480194FEF74FF9009437
:102680000524694606480194FEF748F9CDE900465D
:1026900069460348FEF742F97FBD00000020014073
:1026A000200100200100000F3D4808B5016841F4F9
:1026B00000110160016801F400110091016841F40A
:1026C000800101600068002200F480000090052174
:1026D0000B20FEF793FE0B20FEF782FE0022052161
:1026E0000C20FEF78BFE0C20FEF77AFE002205215F
:1026F0000D20FEF783FE0D20FEF772FE002205215D
:102700000E20FEF77BFE0E20FEF76AFE002205215A
:102710000F20FEF773FE0F20FEF762FE0022052158
:102720001020FEF76BFE1020FEF75AFE0022052156
:102730001120FEF763FE1120FEF752FE0022052154
:102740002F20FEF75BFE2F20FEF74AFE0022052118
:102750003820FEF753FE3820FEF742FE0022052106
:102760003920FEF74BFE3920FEF73AFE0022052104
:102770003A20FEF743FE3A20FEF732FE0022052102
:102780004520FEF73BFE4520FEF72AFE00220521EC
:102790004620FEF733FEBDE808404620FEF720BE87
:1027A00030380240194808B5016841F00401016061
:1027B000016801F004010091016841F080010160AD
:1027C000016801F080010091016841F001010160A0
:1027D000016801F001010091016841F0020101600E
:1027E000016801F002010091016841F010010160EF
:1027F000016801F010010091016841F008010160D9
:10280000006800F00800009008BD00003038024069
:1028100010B588B01C216846FDF77CFD10480F49B3
:10282000002401602921C0E9011441F28831C0E986
:1028300003148461FFF73EF90948FFF7F3FA6020BB
:10284000CDE9000402940022694605480494FFF78C
:1028500081FA0348FFF7FAF908B010BD00200040E4
:102860008802002010B596B000240F9410941194A3
:10287000129413941C2168461494FDF74BFD2021FB
:1028800007A8FDF747FD284826490160A721C0E9B0
:1028900001144CF25031C0E9031444618461FFF724
:1028A00009F94FF480500F900FA91F48FFF763F903
:1028B0001D48FFF7B7FA139413A91B481494FFF7A8
:1028C000B1F86020009040F2DC50CDE9010403949F
:1028D000049405940022694613480694FFF73AFAD7
:1028E000042269461048FFF735FA082269460E4867
:1028F000FFF730FA0C2269460B48FFF72BFA0794D2
:10290000089409944FF400500A94CDE90B4007A9AC
:1029100005480E94FFF75CF80348FFF797F916B0E7
:1029200010BD000000000140C801002010B58EB0AD
:1029300000240794089409940A940B941C21684677
:102940000C94FDF7E7FC1F484FF0804101605321D4
:10295000C0E901144CF25031C0E903148461FFF75F
:10296000A9F84FF48050079007A91648FFF703F91C
:102970001448FFF757FA0B940BA912480C94FFF771
:1029800051F86020009040F2DC50CDE901040022B3
:1029900069460C480494FFF7DDF9042269460948AA
:1029A000FFF7D8F9082269460648FFF7D3F90C2249
:1029B00069460448FFF7CEF90248FFF747F90EB021
:1029C00010BD00000802002010B58EB0002407944E
:1029D000089409940A940B941C2168460C94FDF702
:1029E00099FC1D481B4901605321C0E901144CF2B8
:1029F0005031C0E903148461FFF75CF84FF4805054
:102A0000079007A91448FFF7B6F81348FFF70AFA2A
:102A10000B940BA910480C94FFF704F86020009069
:102A200040F2DC50CDE90104002269460A480494D2
:102A3000FFF790F9082269460748FFF78BF90C2247
:102A400069460548FFF786F90348FFF7FFF80EB01F
:102A500010BD00000004004048020020FEE7000016
:102A6000002813D0012811D1094801680A880949B2
:102A70000B681A6002684B6812881A6002688B68DB
:102A800012881A600068C9680088086070470000F2
:102A90004000002024000020F0B52A4840F2DC511C
:102AA00082681388A3F5BB63092B00D211804268AA
:102AB0001388A3F5BB63092B00D21180C268138869
:102AC000A3F5BB63092B00D2118082681488426889
:102AD00013889C4201D9012200E00022E51840F64B
:102AE000B836B54201D9012500E000258C4201D954
:102AF000012400E000248B4201D9012100E00021E3
:102B0000036A1B7823B1012B01D105210170F0BDAF
:102B10000123032604274FF0020C5DB11CB121B143
:102B20002AB10370F0BD0670F0BD0770F0BD80F8EB
:102B300000C0F0BD002CF6D10029F6D1002AF6D154
:102B4000EFE700003800002070470000002813D095
:102B5000012811D1094801680A8809490B681A60DF
:102B600002684B6812881A6002688B6812881A60C3
:102B70000068C968008808607047000040000020B5
:102B800024000020002819D0012817D10C48016822
:102B90000988A1F6C4114A420A490B681A60026802
:102BA0004B6812881A6002688B6812881A60006885
:102BB000C9680088A0F6C410404208607047000051
:102BC0004000002024000020002813D0012811D14B
:102BD000094801680A8809490B681A6002684B684D
:102BE00012881A6002688B6812881A600068C968C7
:102BF000008808607047000040000020240000208A
:102C0000704770477047000010B5502080F311885E
:102C1000BFF34F8FBFF36F8F01F02AFA18B1044949
:102C20004FF080500860002080F3118810BD000034
:102C300004ED00E030B593B030216846FDF76AFB43
:102C400014210CA8FDF766FB1A480025016841F025
:102C500080510160006800F08050119016480168B2
:102C600041F4804101600068022400F4804011902A
:102C7000092000904FF4803001900120CDE9050437
:102C80008005079008AA0420A82182E813000B9071
:102C90006846FEF7EFFC0CA90F2081E831004FF4E5
:102CA000A0500F90E002109005210CA8FEF7D8FB71
:102CB00013B030BD40380240007000400548016844
:102CC00041F47001016003494FF0006080390860F1
:102CD0007047000088ED00E0F0B50268254C264DF5
:102CE000264E274F274B4FF0804CA04209D060451D
:102CF00007D0A84205D0B04203D0B84201D09842D4
:102D000004D122F0700E4A6842EA0E02A0421BD0A3
:102D1000604519D0A84217D0B04215D0B84213D0A0
:102D2000984211D0184DA8420ED0184DA8420BD091
:102D3000174DA84208D0174DA84205D0164DA842FD
:102D400002D0164DA84203D122F44075CA682A4326
:102D50004D6922F080022A4302608A68C2620A68D2
:102D60008262A04201D0984201D109690163012128
:102D70004161F0BD00000140000400400008004037
:102D8000000C0040000401400040014000440140AC
:102D90000048014000180040001C00400020004096
:102DA00010B501F01F030121046A99408C430462AD
:102DB000016A9A401143016210BD10B5846842EA6D
:102DC000032224F47F440A432243826010BD8268B8
:102DD00022F070020A4342F0070181607047000050
:102DE000F0B5026A22F001020262036A4268846955
:102DF000124E24F073050C682C4323F002058B68F7
:102E00002B430D4DA84201D0B04205D123F0080755
:102E1000CB683B4323F00403A84201D0B04205D164
:102E20004D6922F4407215438A692A4342608461E5
:102E3000496841630362F0BD0000014000040140A5
:102E4000F0B5026A22F010020262026A43688469E5
:102E50000D6824F4E64444EA05248D6822F020023B
:102E600042EA05120F4D104EA84201D0B04206D1E1
:102E7000CF6822F0800242EA071222F04002A84204
:102E800001D0B04207D14D6923F4406343EA850382
:102E90008D6943EA85034360846149688163026206
:102EA000F0BD00000000014000040140F0B5026ADE
:102EB00022F480720262026A4368C46922F40072DA
:102EC00024F073050C68124E2C438D6842EA0522EB
:102ED0000E4DA84201D0B04206D1CF6822F4006264
:102EE00042EA072222F48062A84201D0B04207D110
:102EF0004D6923F4405343EA05138D6943EA0513F2
:102F00004360C4614968C1630262F0BD00000140D2
:102F10000004014030B5026A22F480520262046A61
:102F20004268C3690D6823F4E64343EA05238D68CC
:102F300024F4005444EA0534084DA84202D0084D58
:102F4000A84204D14D6922F4804242EA85124260CF
:102F5000C36149680164046230BD000000000140A3
:102F60000004014010B5036A046A24F001040462FD
:102F7000846924F0F00444EA021423F00A020A43AC
:102F80008461026210BD10B5036A23F0100303626E
:102F90008369046A23F4704343EA023224F0A003F5
:102FA00043EA01118261016210BD000038B5224C74
:102FB00020680168C1F3001199B30168416800916C
:102FC000016840682046FEF76BFF1C4800684068B7
:102FD000C0F11E00C0B20E2824D3194A194D00209A
:102FE000115C542905D0401C2828F9DB2878C8B189
:102FF0001DE0014603E0535C0A2B03D0491C28293D
:10300000F9DBF3E7104910440860012028702068BC
:10301000C16821F01001C1600C48006801F0EEF8B1
:10302000E4E704E01E2206490348FFF79FFABDE8E3
:1030300038400148FEF762BFC8020020C8040020E3
:103040004809002005000020000000201400002096
:103050000148FEF753BF00000803002010B5806B45
:103060000021C185C184FEF747FF10BD70B5846B98
:103070002068406994F83910C0F3C0100025212958
:1030800004D118B1E584204600F046F82068406974
:1030900094F83A10C0F38010222904D118B1E585C4
:1030A000204600F02BF8E06B40F01000E063204673
:1030B000FEF722FF70BD10B50146806B09680968F4
:1030C000C90513D40021C1850168CA6822F4807241
:1030D000CA6001684A6922F001024A6101684A69CE
:1030E00022F040024A61202180F83A10FFF78AFA64
:1030F00010BD10B5806BFFF786FA10BD0168CA6875
:1031000022F49072CA6001684A6922F001024A61A1
:10311000202180F83A1070470168CA6822F0C00286
:10312000CA60202180F83910704710B590F83A1025
:10313000222901D0022010BD8168B1F5805F11D035
:103140000169002901681FD0496801F07F03816A85
:103150004A1C82620B70C18D491E0904090CC1858D
:1031600018D02BE00269816A002A0268526805D0F3
:10317000D2B20A80816A491C8162ECE7C2F308027C
:103180000A80816A891CF7E74A68816A4B1C83625E
:103190000A70E0E70168CA6822F02002CA6001688C
:1031A000CA6822F48072CA6001684A6922F001028A
:1031B0004A61202180F83A10FFF724FA002010BD60
:1031C0002DE9F041044600680169E26821F44051AC
:1031D000114301612169A068E269084361691143F3
:1031E00008432168CA6849F20C639A430243CA60E3
:1031F00020684169A26921F4407111434161E0698D
:10320000192764253226B0F5004F354A3549206824
:103210004FF0000806D0884201D0904236D1FEF728
:10322000E9F935E0884201D0904202D1FEF7E2F997
:1032300001E0FEF7CFF961684A18A0FB070148EBEF
:103240000803FDF71DF80146B0FBF5F00201B1FBE4
:10325000F5F06FF01803584301EB800006EBC00057
:10326000B0FBF5F000F0F80002EB4002B1FBF5F026
:10327000584301EB800006EBC000B0FBF5F000F016
:103280000700216810448860BDE8F081FEF7A2F9CC
:1032900061688B0F8A00A0FB0701FCF7F1FF014674
:1032A000B0FBF5F06FF01802504301EB800006EB25
:1032B0000010B0FBF5F000F0F002B1FBF5F002EB0E
:1032C0000012B1FBF5F06FF01803584301EB8000DA
:1032D00006EB0010B0FBF5F000F00F00D1E70000A6
:1032E000001401400010014090F83910212901D04C
:1032F000022070478168B1F5805F016A0BD04A1CDB
:103300000262026809785160C18C491E0904090CE7
:10331000C1840ED017E009880268C1F3080151602A
:1033200001690029016A02D0491C0162ECE7891C8D
:10333000FBE70168CA6822F08002CA600068C168C1
:1033400041F04001C16000207047000038B51A4CC0
:1033500020680168C1F30011D9B10168416800918A
:10336000016840682046FEF79BFD144800684068ED
:10337000C0F11E00C0B2152806D11148017D2129D7
:1033800002D10078252809D01E220D490A48FFF7EE
:10339000EDF8BDE838400848FEF7B0BD0949012006
:1033A00008702068C16821F01001C16006480068FB
:1033B00000F024FFEDE7000048030020480600204D
:1033C00048040020040000200C0000200148FEF703
:1033D00095BD0000880300200148FEF78FBD000066
:1033E000C80300200148FEF789BD00000804002042
:1033F000FEE700005FF0C80000F016F90248FDF794
:1034000078FF0120F8E70000BC0100200907090E41
:10341000002804DB00F1E02080F80014704700F081
:103420000F0000F1E02080F8141D704702E008C88A
:10343000121F08C1002AFAD170477047002001E02E
:1034400001C1121F002AFBD17047000070B5AAB05D
:10345000FDF756FFFFF7EEFBFFF7A4F9FFF724F99E
:10346000FFF7D4F860485F4901600321416040F2F2
:10347000FF718160FDF714FFFFF7F4F9FFF756FACB
:10348000FFF7A2FA5A4859494FF4E1350024016088
:10349000C0E901540C26C460C0E904468461C461DB
:1034A000FEF7B6FD5248534940300160C0E901546F
:1034B000C460C0E904468461C461FEF7A9FD4C48BC
:1034C0004D4980300160C0E90154C460C0E9044640
:1034D0008461C461FEF79CFD45484849C0300160E5
:1034E000C0E90154C460C0E904468461C461FEF7C8
:1034F0008FFD444842490160C0E90154C460C0E9FD
:1035000004468461C461FEF783FD3E483E49403075
:103510000160C0E90154C460C0E904468461C4612B
:10352000FEF776FD30483949543801603849C0E922
:1035300001144FF48041C0E9034144618461C461D6
:103540000462FDF7B5FDFFF763F92748FDF7D1FEEB
:10355000FDF716F81C222F496846FCF7C2FE002131
:10356000684600F06DF82C4C2A491C2260601C3122
:1035700007A8FCF7B6FE002107A800F061F825496E
:10358000A0601C2238310EA8FCF7ABFE00210EA86B
:1035900000F056F81F49E0601C22543115A8FCF7D2
:1035A000A0FE002115A800F04BF81A4920611C224A
:1035B00070311CA8FCF795FE00211CA800F040F813
:1035C000144960611C228C3123A8FCF78AFE00217B
:1035D00023A800F035F8A06100F02DF82AB00020F3
:1035E00070BD000000300040BC010020004C0040D5
:1035F000C80200200050004000100140004400407C
:1036000000480040C803002000140140005400405E
:10361000A086010084420008080000200146002026
:10362000842900D0C81C704710B500B9012000F0F3
:103630005DFB002010BD10B500F07EFB002010BD2A
:103640007FB50D4604464169B0F9080081B1A16912
:1036500071B1FFF7E3FFD4E905128DE80700D4E963
:1036600000102B46226900F0D8FC039004B070BD16
:10367000FFF7D4FF03A9CDE90001208A2B4682B2CF
:10368000D4E9001000F09CFC012801D00020EDE7F7
:103690000398EBE72DE9F041184C0F4605466669A3
:1036A0002068001D00F034FA38B9206890F82C101A
:1036B00001208840A1698143A161681C07D137B10D
:1036C0002168BDE8F0410E48091D00F065BA206888
:1036D0003544B5424560216805D2A068BDE8F04197
:1036E000091D00F041BA6068091D00F03DFA206B29
:1036F000854200D22563BDE8F0810000C0000020B3
:10370000D80C00202DE9F041054600F051FA2E4C6E
:103710002069401C206120682C4F10B1E06940B343
:103720002DE025602069012829D1002606EB8600BE
:1037300007EB800000F00AFA761C072EF6D3234828
:103740008C3000F003FA2148A03000F0FFF91F4848
:10375000B43000F0FBF91D48C83000F0F7F91B4801
:10376000DC3000F0F3F919488C3060601430A06050
:1037700005E02068E96AC06A884200D82560E06AEE
:10378000401CE062E96A0120A26988401043A06100
:1037900001EB810007EB8000291D00F0FDF900F02E
:1037A00027FAE06900280CD02068E96AC06A8842DC
:1037B00007D207494FF080500860BFF34F8FBFF327
:1037C0006F8FBDE8F0810000C0000020FC0B0020DE
:1037D00004ED00E010B5044690F8510058B10128FE
:1037E0000CD002280FD0502080F31188BFF34F8FE8
:1037F000BFF36F8FFEE7206B00F00EFA2046BDE8A6
:10380000104000F009BA10BD10484FF47051420743
:1038100006D0C01D0D4920F00700411AC1F57051B6
:103820000B4A00230144C2E900030839103A21F091
:10383000070111604B600B600B1AC0E90013936025
:103840004FF000405360D06070470000EC0C002047
:103850000C010020144E154CA6F1C8074FF08058FB
:10386000DFF84C9012E000BF00F0A2F9F068C568E4
:10387000281D00F04DF92069401E2061E068401EBF
:10388000E06000F0B5F92846FFF7A4FFE0680028E3
:10389000EAD138680128F9D9C9F80080BFF34F8F01
:1038A000BFF36F8FF2E70000C40C0020C0000020BF
:1038B00004ED00E02DE9F0479A46DDE909848146F0
:1038C0006FF00303206B03EB82021044089D20F08D
:1038D0000706700707D0502080F31188BFF34F8F81
:1038E000BFF36F8FFEE723180A5C83F834200A5C6D
:1038F00012B1401C1028F6D3002784F84370072D1E
:1039000000D30625E562C4E91157201D00F029F90E
:1039100004F1180000F025F92461C5F10700646284
:10392000A061E76484F8507052464946304600F082
:10393000D9F82060B8F1000F01D0C8F80040BDE808
:10394000F087000030B5114900E011460A68824254
:10395000FBD34B685C18844203D14068184448602C
:10396000084643681C18944209D1084C103C24684E
:10397000A24209D052681A4442600A681268026082
:10398000814200D0086030BD0460F9E70C010020DE
:1039900006484168096829B14168C968C968496829
:1039A000016370474FF0FF31FAE70000C0000020CC
:1039B00008484068401C4FF0500080F3118804D044
:1039C000BFF34F8FBFF36F8FFEE7BFF34F8FBFF390
:1039D0006F8FFEE714010020002150B10A4B4269AD
:1039E0009A420FD1806AA3F1280290420AD040B1D6
:1039F00008E0502080F31188BFF34F8FBFF36F8F23
:103A0000FEE7012108467047D80C00202DE9F0415F
:103A10000546002700F024FA314E306808B9FFF758
:103A2000F3FEF06805424BD1C5B3083568070ED0E8
:103A300005F00700C0F108000544680707D05020D2
:103A400080F31188BFF34F8FBFF36F8FFEE72DB365
:103A50007068854234D82248103001460C6801E075
:103A600020460C466168A94202D221680029F7D19C
:103A700031688C4224D0076821680160606808378B
:103A8000411B10290FD96019420708D0502080F33C
:103A90001188BFF34F8FBFF36F8FFEE710E04160D7
:103AA0006560FFF74FFF61687068401A7060B26828
:103AB000904200D2B060F06801430020C4E90001E8
:103AC00000F03AFB780707D0502080F31188BFF34D
:103AD0004F8FBFF36F8FFEE73846BDE8F0810000DF
:103AE000FC00002010B5031F4FF080741C601B1FEA
:103AF00021F001011960191F044B0B6014390A6091
:103B0000091F6FF0020244380A6010BDB139000885
:103B1000D0E9013201699A60D0E901235A604A680C
:103B2000824201D182684A60002202610868401E18
:103B30000860086870470000034B036003F15400FD
:103B400008608020106070476809002000F10801BB
:103B50004FF0FF32C0E90112C16001610021016034
:103B6000704700210161704730B50B685A1C02D0C4
:103B700000F1080202E0026904E022465468256868
:103B80009D42FAD953684B6099608A605160086120
:103B90000168491C016030BD42684A6093688B60CF
:103BA00093685960916008610168491C0160704721
:103BB000502080F31188BFF34F8FBFF36F8F0A49F6
:103BC0004868401C486001280CD10848006810F083
:103BD000FF0F07D0502080F31188BFF34F8FBFF342
:103BE0006F8FFEE7704700001401002004ED00E035
:103BF0000849486828B1401E486001D180F3118807
:103C00007047502080F31188BFF34F8FBFF36F8F41
:103C1000FEE700001401002070B5002827D0144DE5
:103C2000A0F108046168E868014207D1502080F3E0
:103C30001188BFF34F8FBFF36F8FFEE722683AB151
:103C4000502080F31188BFF34F8FBFF36F8FFEE7D3
:103C50008143616000F004F9606869680844686045
:103C60002046FFF76FFEBDE8704000F065BA70BDFA
:103C7000FC0000204FF0E020002101618161054936
:103C80004FF47A720968B1FBF2F1491E41610721D4
:103C900001617047BC00002010B5FCF7DBFA114948
:103CA00010280ED300F1E02090F8F0030A7890423B
:103CB00007D2502080F31188BFF34F8FBFF36F8F6F
:103CC000FEE709480068896800F4E060884207D987
:103CD000502080F31188BFF34F8FBFF36F8FFEE743
:103CE00010BD0000140100200CED00E010B5020032
:103CF00014D00F48806B38B1502080F31188BFF387
:103D00004F8FBFF36F8FFEE700F0AAF80021104637
:103D1000FFF7C0FC00F010FA002807D105494FF06A
:103D200080500860BFF34F8FBFF36F8F10BD00004E
:103D3000C000002004ED00E010B586B0002403941C
:103D400005AA04A903A80494FFF7F6FEDDE9030120
:103D50000094CDE9011000230EA11048059A00F04F
:103D60005CF90F490028486311D0502080F3118876
:103D7000BFF34F8FBFF36F8F4FF0FF300863012009
:103D8000C8614C6106B0BDE8104000F09FB806B0B5
:103D900010BD000049444C450000000055380008A3
:103DA000C000002070B50446FFF702FF294D04B99A
:103DB0002C68201DFFF7ACFE58B9E06A264A00EBDC
:103DC000800152F8211021B901218140A86988435E
:103DD000A861A06A18B104F11800FFF799FE1E4807
:103DE000211DDC30FFF7D8FE94F850000026012892
:103DF00001D184F85060FFF7FBFEE86928B1FFF7B6
:103E0000D7FEFFF7C5FDFFF7F3FE2868844213D104
:103E1000E86990B1A86B38B1502080F31188BFF3E6
:103E20004F8FBFF36F8FFEE70C494FF08050086053
:103E3000BFF34F8FBFF36F8F70BD0748DC30006852
:103E40002969884201D12E6070BDBDE8704000F044
:103E50000FB80000C0000020FC0B002004ED00E0C3
:103E60000248816B491C816370470000C00000203C
:103E70001448816B11B101214162704700214162F8
:103E80008169B1FA81F1C1F11F0101EB81020E4993
:103E900051F822306BB101EB820101F108034A684D
:103EA00052684A609A4201D152684A60D168016002
:103EB0007047502080F31188BFF34F8FBFF36F8F8F
:103EC000FEE70000C0000020FC0B00201CB53748B6
:103ED0000168374A914207D1502080F31188BFF31F
:103EE0004F8FBFF36F8FFEE700683149491E88424C
:103EF00007D1502080F31188BFF34F8FBFF36F8F2E
:103F0000FEE72C4908780190FF20087008788DF8AA
:103F100000009DF800009DF8002000F0F0009042A5
:103F200007D0502080F31188BFF34F8FBFF36F8FFE
:103F3000FEE79DF80000204B00F0500018700720AD
:103F4000986005E09DF8002052008DF80020401E8A
:103F50009DF800201206F5D49860032807D0502061
:103F600080F31188BFF34F8FBFF36F8FFEE74FF4DD
:103F700040709860019808700C482030016841F446
:103F800070010160016841F070410160FFF772FE4D
:103F900000205860FCF726F90848016841F04041CC
:103FA0000160FCF70BF900201CBD000000ED00E0F3
:103FB00071C20F4100E400E01401002034EF00E082
:103FC0002DE9FF5F8346DDE90E87994616468A464E
:103FD0009000FFF71BFD05001CD05420FFF716FDD5
:103FE000040014D00020256384F85100CDE902407C
:103FF000CDE900874B46324651465846FFF75AFCFA
:104000002046FFF77FFB012004B0BDE8F09F284663
:10401000FFF702FE4FF0FF30F6E7F0B585B0DDE9BF
:104020000B640A9DA6B1DCB15427009726630226D3
:1040300084F85160002604AFCDE90246CDE900576F
:10404000FFF738FC2046FFF75DFB049805B0F0BD94
:10405000502080F31188BFF34F8FBFF36F8FFEE7BF
:10406000502080F31188BFF34F8FBFF36F8FFEE7AF
:104070002DE9F0412E4C0027A06B40B1206A401C76
:104080002062606A00B101273846BDE8F0816669A8
:10409000761C666113D16068006838B1502080F3E7
:1040A0001188BFF34F8FBFF36F8FFEE76068A16881
:1040B0006160A060A06A401CA062FFF769FC206BF1
:1040C000DFF87080864209D36068006880B160685C
:1040D000C068C568686886420DD220632068C06ADF
:1040E00000EB800158F821000128CAD90127C8E750
:1040F0004FF0FF30F1E7281DFFF70AFDA86A18B15D
:1041000005F11800FFF704FDE86A0121A26981406A
:104110001143A16100EB800108EB8100291DFFF72D
:104120003BFDE86A2168C96A8842CDD30127CBE705
:10413000C0000020FC0B00202DE9F0472C4D00248E
:104140002746A86B38B1FFF733FDA86B401EA86364
:10415000A86B40B146E0502080F31188BFF34F8F29
:10416000BFF36F8FFEE72969224E0120D1B3A6F17C
:10417000B40980463068E8B1F068C46804F11800FA
:10418000FFF7C6FC201DFFF7C3FCE06AAA6908FA26
:1041900000F11143A96100EB800109EB8100211DB1
:1041A000FFF7FAFCE06A2968C96A8842E2D3C5F8D9
:1041B0002480DFE70CB1FFF7EBFB2C6A44B14646E5
:1041C000FFF756FF00B16E62641EF9D1002028622D
:1041D000686A38B10849012738070860BFF34F8F74
:1041E000BFF36F8FFFF704FD3846BDE8F08700008E
:1041F000C0000020B00C002004ED00E02DE9F041EB
:104200000027040015D0FFF747FD5020EFF311857C
:1042100080F31188BFF34F8FBFF36F8F2046FFF7F6
:10422000DBFB30B3154EB06B58B104F118011448E4
:104230001DE0502080F31188BFF34F8FBFF36F8FC5
:10424000FEE7E06A3168C96A884200D30127201D71
:10425000FFF75EFCE16A0120B26988401043B0615B
:1042600001EB81000649B43901EB8000211DFFF705
:1042700093FC85F311883846BDE8F081C00000202A
:10428000B00C00206C430008B505000802000000D7
:10429000000000008000000000000000000000009E
:1042A000884300082107000800000000000000000B
:1042B00080000000000000000000000078430008BB
:1042C000F53300080000000000000000800000003E
:1042D00000000000000000004C430008B504000886
:1042E000000000000000000080000000000000004E
:1042F000000000009443000841070008FDFF000093
:10430000000000008000000000000000000000002D
:104310005C430008CD04000800000000000000001D
:1043200080000000000000000000000000061016E1
:104330000006101600000000000000000102030447
:1043400006070809000000000102030441747469B3
:10435000747564655461736B000000004175746F7F
:104360004D6F76655461736B00000000436F6E748F
:10437000726F6C5461736B0057617465724465654C
:10438000705461736B000000446973706C61795400
:1043900061736B00456D7074795461736B0000003C
:1043A000C043000800000020200100002C34000859
:1043B000E044000820010020D04B00003C340008FD
:1043C00000000000000000000000000000000000ED
:1043D00000000000000000000000000000000000DD
:1043E0000000000034000040380000403C00004065
:1043F000400000400001000000000000000000003C
:1044000000000000000000000000000000000000AC
:104410000000000000000000000000003400002048
:10442000340000203500002034000020340001401A
:10443000380001403C00014040000140052C0008CC
:10444000490800083D0700084D2B0008852B00088F
:10445000C92B0008612A0008032C0008190900086C
:104460003B070008012C000847080008390700082E
:104470000100000010000000000000000024F40013
:10448000000000000000000000000000000000002C
:10449000000000000000000000000000000000001C
:1044A000000000000000000000000000000000000C
:1044B00000000000000000000000000000000000FC
:1044C00000000000000000000000000000000000EC
:1044D0000000000000000000AAAAAAAA0000000034
:040000050800018965
:00000001FF
