:020000040800F2
:10000000B05000205D020008ED37000867020008CC
:100010002D370008790A00080D4300080000000091
:100020000000000000000000000000009D0100082A
:100030009D0C000800000000F9010008A939000823
:1000400077020008770200087702000877020008AC
:10005000770200087702000877020008770200089C
:100060007702000877020008770200085D0B00089D
:10007000690B0008750B0008810B00088D0B000848
:10008000990B0008A50B000877020008770200080A
:10009000770200087702000877020008770200085C
:1000A00077020008793A0008770200087702000812
:1000B000770200087702000877020008770200083C
:1000C000770200087702000877020008770200082C
:1000D00077020008E94100087942000885420008DB
:1000E000770200087702000877020008770200080C
:1000F000770200087702000877020008B10B0008B9
:1001000077020008770200087702000877020008EB
:10011000093E0008B53E000877020008953A00083D
:10012000BD0B0008C90B0008D50B000877020008BA
:1001300077020008770200087702000877020008BB
:1001400077020008770200087702000877020008AB
:1001500077020008E10B0008ED0B000801430008DE
:10016000770200087702000877020008770200088B
:1001700077020008770200087702000800000000FC
:100180007702000877020008DFF80CD000F0E2F9EF
:1001900000480047BD430008B05000202C4B1968B0
:1001A0000868B0E8F04F80F30988BFF36F8F4FF015
:1001B000000080F3118870470000000008480068C4
:1001C000006880F308884FF0000080F3148862B65E
:1001D00061B6BFF34F8FBFF36F8F00DF00BF00BF6B
:1001E00008ED00E0DFF80C00016841F470010160E7
:1001F000704700BF88ED00E0EFF30980BFF36F8F19
:10020000134B1A681EF0100F08BF20ED108A20E96A
:10021000F04F106009B44FF0500080F31188BFF325
:100220004F8FBFF36F8F04F041FE4FF0000080F35B
:10023000118809BC19680868B0E8F04F1EF0100F6B
:1002400008BFB0EC108A80F30988BFF36F8F704746
:10025000C4010020EFF30580704700000648804786
:1002600006480047FEE7FEE7FEE7FEE7FEE7FEE79B
:10027000FEE7FEE7FEE7FEE75D3A000889010008B9
:100280002DE9F05F0546002092469B4688460646CB
:10029000814640241BE0284641464746224600F05E
:1002A000EBF853465A46C01A914110D311461846EE
:1002B000224600F0D2F82D1A67EB01084F4622467D
:1002C0000120002100F0C9F817EB00094E41201E63
:1002D000A4F10104DFDC484631462A464346BDE826
:1002E000F09F40EA01039B0703D009E008C9121FF1
:1002F00008C0042AFAD203E011F8013B00F8013BE0
:10030000521EF9D27047D2B201E000F8012B491E0B
:10031000FBD270470022F6E710B513460A460446A2
:100320001946FFF7F0FF204610BD2DE9FE4F81EA88
:10033000030404F0004421F0004100944FF0000B4E
:1003400023F0004350EA01045ED052EA03045BD07C
:10035000C3F30A54C1F30A552C44A4F2F3340194B4
:10036000A0FB0254C1F3130141F48011C3F3130342
:1003700043F4801301FB024400FB034E840A970AF6
:1003800044EA815447EA8357A4FB076802958D0A23
:1003900005FB07854FEA932C04FB0C542705029DAF
:1003A0004FEA065847EA1637B5EB08056EEB070C1F
:1003B000870E920E47EA811742EA8312A7FB0201D9
:1003C000B6EB0B0164EB00042B0D43EA0C335E1813
:1003D00044EB1C50DA465146E7FB0201C5F3130417
:1003E0004FEA0B3343EA14534FEA0432019C43EAC9
:1003F0000603A4F10C040294009CCDE900B400F0C3
:100400005AF803B0BDE8F08F00200146F9E70EB5B9
:1004100040F2334102910021CDE900110A460B461A
:1004200000F049F803B000BDC1F30A5210B5C1F3A2
:10043000130140F2FF3341F480119A4201DA0020A7
:1004400010BD40F233439A42A2F2334203DC5242DF
:1004500000F012F810BD904010BD202A04DB203AB5
:1004600000FA02F1002070479140C2F1200320FA07
:1004700003F3194390407047202A04DB203A21FA05
:1004800002F00021704721FA02F3D040C2F12002AD
:10049000914008431946704710B5141E73F10004CB
:1004A00008DA401C41F1000192185B411A4301D166
:1004B00020F0010010BD2DE9F04D92469B4611B190
:1004C000B1FA81F202E0B0FA80F220329046FFF7F2
:1004D000C4FF04460F4640EA0A0041EA0B015346B6
:1004E0005A46084313D0114653EA010019D0C8F107
:1004F00040025046FFF7C0FF05460E46504659469B
:100500004246FFF7AAFF084305D0012004E0204639
:100510003946BDE8F08D0020054346EAE0762C43DD
:1005200037430A986305E40AA0EB08000022FD0A9D
:1005300044EA47540A3002D500200146E9E70105A4
:1005400010196941DDE9084500196941BDE8F04D20
:10055000A2E70000064C074D06E0E06840F001030A
:1005600094E8070098471034AC42F6D3FFF710FE2A
:10057000A8530008C853000870B58C1810F8015B28
:1005800015F0070301D110F8013B2A1106D110F82C
:10059000012B03E010F8016B01F8016B5B1EF9D130
:1005A0002B0705D40023521E0DD401F8013BFAE7B6
:1005B00010F8013BCB1A921C03E013F8015B01F821
:1005C000015B521EF9D5A142D8D3002070BD10B5F1
:1005D0000146806B026C12F0500F05D0026CD206FF
:1005E00026D500F01DFF10BD016C41F400710164BF
:1005F00001688A6812F0405F17D1027EAAB9CA6A00
:1006000012F4700F02D08A6852050ED44A6822F0A4
:1006100020024A60016C21F480710164016CC904FC
:1006200003D4016C41F00101016400F0F7FE10BD3C
:10063000806BC26CBDE810400846104710B5806B57
:1006400040210164416C41F00401416400F0E8FE86
:1006500010BD10B5806B00F0E2FE10BD464910B52C
:100660004A6822F440324A604A6843681A434A6042
:1006700001684A6822F480724A6001684A68036926
:1006800042EA03224A6001684A6822F040724A60E6
:1006900001684A6883681A434A6001688A6822F4DC
:1006A00000628A6001688A68C3681A438A60816A46
:1006B0006FF07062D14201688A6822F070628A60CD
:1006C00001688A680CD0836A1A438A6001688A6864
:1006D00022F040528A6001688A68C36A1A4301E0C6
:1006E00022F040528A6001688A6822F002028A6021
:1006F00001688A68037E42EA43028A6090F820100B
:10070000002901684A680FD042F400624A6001681B
:100710004A6822F460424A6001684A68174C436A9A
:1007200004EB43331A4301E022F400624A6001689B
:10073000CA6A22F47002CA620168CA6A838B104CCA
:1007400004EB03531A43CA6201688A6822F40072F8
:100750008A6001688A6890F8303042EA43228A60F1
:1007600001688A6822F480628A6001688A68406948
:1007700042EA8020886010BD0023014000E0FFFFB6
:100780000000F0FF1CB5124D124C05F13E06A5F11C
:100790000E070F4BCDE9006538339A1F911F01F109
:1007A000180000F043F80B493C229E31094802F042
:1007B00049FC2068C16841F01001C160064801F0A1
:1007C00016FA386A04F00CFB022003F037FFE0E76A
:1007D0009A00002048050020FC0200201249821CDB
:1007E0000A60021D4A60821D8A60921C3031531DCE
:1007F0000A60A1F1240213609B1C53609B1C936050
:100800009A1C531D4A60A1F1180213609B1C53608F
:100810009B1C93600C32DB1D13609B1C53609B1C64
:1008200029309360886070472C020020F0B5354D68
:10083000DDE905462F683F880F806F683F884F804D
:10084000AD682D888D802F490C310D682D8815805D
:100850004D682D885580896809889180294918310B
:100860000A6812881A804A6812885A80896809883A
:100870009980244924310A68128822804A681288A3
:10088000628089680988A1801E4930310A684C68F5
:100890001288248822448C68C968248809882144E5
:1008A000114489083180198800EE101AF8EE400AC8
:1008B0009FED150A20EE801ADFED140A21EE201AB2
:1008C000BCEEC11A11EE101A0180598801EE101AFF
:1008D000B8EE411A21EE001A21EE201ABCEEC11A20
:1008E00011EE101A4180998801EE101AB8EE411AE3
:1008F00021EE000A20EE200ABCEEC00A10EE101A0B
:100900008180F0BD2C020020000000380000E1448E
:10091000034801F06CF9012003F090FEF8E70000B5
:10092000FC02002070B52A4C05460498E66936881A
:100930000E60A16909881160216A098819606169DE
:100940000988016002F0F4FEA06AE16A0078097883
:1009500010EB410204F1540000F10C0614D000F138
:100960001C01012A17D01C36022A28D0032A2DD1B7
:10097000206B007851F820008047206B007856F8F3
:100980002000BDE870400047216B097850F8211025
:100990002846884704E0206B007851F82000804703
:1009A0002069616B0388E06809780288206B56F83B
:1009B000214029460078A446BDE870406047216B7D
:1009C000097850F8211028468847D6E770BD000006
:1009D0000400002010B5264C411C6160C11CA160C0
:1009E000411DE160C11D2161891C6161891CA161FA
:1009F000891CE161891C2162891C6162C91C153056
:100A0000C4E90C10252003F0E3FD2521A06301704B
:100A1000EE214170811CE163C11C21641549021D56
:100A20000A60821D4A60921C8A600C31921C0A6026
:100A3000921C4A60921C8A600C31921C0A60921CC3
:100A40004A60921C8A600C31921C0A60921C4A60B7
:100A5000921C8A60911C6164891CA164891CE164F8
:100A6000891C2165FF2100F8231F417010BD000083
:100A7000040000206C020020FEE700002DED048B36
:100A800086B040F61C48304E304D9FED2A8B9FEDCE
:100A90002B9BDFF8B0A005F14C0B06F50B79306805
:100AA0000024000BFFF7B3FC53EC182BFFF73DFCC1
:100AB00053EC192BFFF739FCFFF7B6FCC7B22248FD
:100AC000603001F094F8224B214920481A1F0C395C
:100AD0006030CDF800A0FFF725FF7168414500D9CF
:100AE0000124B168414500D9A41C29896A89EB8990
:100AF000CDE904211548CDE902B34630811FCDE987
:100B000000108B1F22463946124802F07DFED9F8AC
:100B10000000C16841F01001C1601E220E490D485D
:100B200002F090FA686904F05BF9052003F086FD95
:100B3000B5E700006666666666660A40000000006B
:100B400000004940342000409C0200208C0000201E
:100B500040040040C8040020C8050020014800F0FF
:100B6000C9BD00006C070020014800F0C3BD0000B3
:100B7000AC090020014800F0BDBD0000AC0600201B
:100B8000014800F0B7BD00000C0A0020014800F049
:100B9000B1BD00000C070020014800F0ABBD000013
:100BA000EC080020014800F0A5BD00004C09002021
:100BB000014800F09FBD0000CC070020014800F074
:100BC00099BD00004C060020014800F093BD0000D4
:100BD0006C0A0020014800F08DBD00002C080020A8
:100BE000014800F087BD0000CC0A0020014800F059
:100BF00081BD00008C08002001681823CAB2103A99
:100C0000B2FBF3F2054B6FF30901032A9B5CC3654A
:100C100000D9091D81650846704700001853000877
:100C200010B5014600208B698A6A4FF0C07453B139
:100C3000B3F5005F15D072B1012A0CD0022A0AD098
:100C4000032A09D104E01AB1012A06D0022A03D1ED
:100C5000C96AC90100D5012010BDC96AA142FAD0F4
:100C600010BD002AF7D0012AF2D0022AF3D0032ABD
:100C7000F3D010BD30B50468256825F480252560C3
:100C8000046863608368402B036803D09960006840
:100C9000C26030BD9A600068C16030BD704700001E
:100CA000F0B50A24059DDC70AC70067900242E2E68
:100CB00050D0C6782E2E7DD12C708678303E06F02E
:100CC000FF0C85F801C00679303EF6B2EE70477928
:100CD000303FFFB22F7164251CFB05F506EB86063D
:100CE00005EB46053D441580027A2D2A7DD0457AD4
:100CF0002E2D7BD0857A2E2D79D0C47A2E2C59D1E9
:100D0000303AD6B21E70427A303AD2B25A70847AF1
:100D1000303CE5B29D70047B303CE4B21C71407BFA
:100D20003038C0B2587142F2107316FB03F302EB75
:100D30004206C6EBC21203EBC20205EBC50303EB8E
:100D4000051302EB830204EB840300BF02EB4302B2
:100D5000104488E08678303E06F0FF0E85F800E00B
:100D6000C678303E06F0FF0C85F801C04679303E6B
:100D7000F7B2EF708679303EF6B22E710EEB4E056B
:100D8000C5EBCE1506EBC50564261CFB06F607EB86
:100D9000870706EB470635441580427A2D2A34D062
:100DA000857A2E2D38D0C57A2E2D41D0047B2E2C5D
:100DB00031D100E02FE0303AD4B21C70827A303A60
:100DC000D5B25D70027B303AD2B29A70467B303E2B
:100DD000F6B21E71807B3038C0B2587142F2107387
:100DE00014FB03F305EB450402E00EE03DE052E0A6
:100DF000C4EBC51403EBC40302EBC20404EB021200
:100E000003EB820206EB8603A0E70C801C705C708B
:100E10009C701C715C71F0BD1C705C70427A303A41
:100E2000D4B29C70C27A303AD2B21A71007B27E0F9
:100E30001C70427A303AD2B25A70847A303CE4B2B2
:100E40009C70057B303DEDB21D71407B3038C0B2E7
:100E5000587102EB4203C3EBC21200EBC2006422E2
:100E600014FB02F231E00880F0BD1C705C70027A65
:100E7000303AD4B29C70827A303AD2B21A71C07AC7
:100E80003038C0B25871642314FB03F302EB8202C2
:100E900003EB42025CE71C70027A303AD4B25C7019
:100EA000427A303AD2B29A70C57A303DEDB21D71B5
:100EB000007B3038C0B2587104EB4403C3EBC41359
:100EC00000EBC300642312FB03F205EB850302EB86
:100ED00043021044C7E700002DE9FF4F89B08B465D
:100EE000DDE919406421B0FBF1F2DDE91793DDF88B
:100EF00058A08DF81C20B0FBF1F201FB12020A2071
:100F0000B2FBF0F58DF81D50B2FBF0F500FB152299
:100F10008DF81E008DF81F204FF47A72B3FBF2F5A6
:100F20008DF80C50B3FBF2F502FB1533B3FBF1F572
:100F30008DF80D50B3FBF1F501FB1533B3FBF0F564
:100F40008DF80E50B3FBF0F500FB15338DF8103023
:100F5000B4FBF2F38DF81430B4FBF2F302FB13424E
:100F6000B2FBF1F38DF81530B2FBF1F301FB132165
:100F7000B1FBF0F28DF81620B1FBF0F28DF80F0006
:100F80008DF8170000FB12103E4C01268DF818005A
:100F90000227267000254FF00308E068062868D273
:100FA000DFE800F0030F2B39586DA068062804D045
:100FB0006268001D1AF8021026E06560C4E9025656
:100FC00057E0A068052814D06268001DC0B219F867
:100FD00002100097CDE90101DDE90B23594609987C
:100FE00002F0C2FC6068401C6060A068401CA06009
:100FF00029E06560C4E902573BE0A068052806D0F7
:10100000626803A91030895CC0B20096E2E76560AF
:10101000C4E902582DE0A068052818D0626805A927
:10102000401C895C0822C0B20092CDE90101DDE9D3
:101030000B235946099802F097FCA068401CA06059
:101040006068401C6060052003F0F8FA11E004209D
:1010500065600CE0A068042807D0626807A9001D3D
:10106000895CC0B2CDF80080B4E705206560C4E9B2
:1010700002502078002890D10DB0BDE8F08FE560D7
:101080002570F9E7100100203E4C3D4D40F61C470D
:101090002DED028B86B09FED388BA4F10C06A8468F
:1010A00004F1460904F1280A04F14C0B2868FFF703
:1010B000AEF953EC182BFFF738F9FFF7B5F9B0711B
:1010C0006868B84220780BD9B8B900200090D8E9F8
:1010D00019232D48D8F8601000F058F801200BE0D3
:1010E00001280AD103200090D8E919232648D8F80E
:1010F000601000F04BF8002020702148603000F0B4
:1011000076FDA868B84260780BD9B8B90120009084
:10111000D8E919231C48D8F8601000F037F80120EE
:101120000BE001280AD104200090D8E919231648C1
:10113000D8F8601000F02AF8002060701048603085
:1011400000F055FDB379B9F80410B9F80220CDE9E3
:101150000221CDE900BA0493D8E919230A48D8F846
:101160006010FFF7B9FE0648603000F040FD012036
:1011700003F064FA9AE700000000000000A0A43F1A
:101180009C02002098000020080500201FB5069949
:1011900031B1012907D0032911D0042908D112E067
:1011A0001B220B4902E01B2209490FE001F098FFC6
:1011B00001A800F01CFD322003F040FA1FBD0449D5
:1011C0001B223631F2E702491B2236311B31EDE793
:1011D000200100207047704770470000014800F070
:1011E00006FDFBE7FC0200207047704730B536492A
:1011F0000B460C789A685B68062C64D2DFE804F032
:1012000063030821384E036812881A608A6803E075
:101210001A8803681A604A68436812881A604A6824
:101220008B6812881B88D21A836802F2DC521A601B
:101230004A688968C06812880988511A01F2DC512D
:1012400040E012881B881A440368A2F2DC521A603C
:101250008A684B6812881B881A444368A2F2DC52E1
:101260001A604A68836812881A604968098828E009
:1012700012881B881A440368A2F2DC521A608A683A
:101280004B6812881B881A444368A2F2DC521A6029
:101290008A681288A2F6B83252420BE003681288BC
:1012A0001A608A6843681288A2F6B83252421A60FD
:1012B0008A68128883681A6089680988A1F6B8313B
:1012C0004942C068016030BD040000207047000042
:1012D00078B50024009490F83C20012A19D001220E
:1012E00080F83C200A6807230568092A13D9EE68AC
:1012F0000A3A02EB420293409E43EE600B788A6802
:101300000A3B03EB43039A400368DD682A43DA6033
:1013100010E0022078BD2E6902EB420293409E430A
:101320002E610B788A6803EB43039A4003681D69BA
:101330002A431A614A681F23072A13D205686E6B75
:10134000521E02EB820293409E436E630B790A8821
:101350005B1E92B203EB83039A4003685D6B2A43E2
:101360005A6327E005680D2A12D22E6BD21F02EBBA
:10137000820293409E432E630B790A88DB1F92B250
:1013800003EB83039A4003681D6B2A431A6311E041
:10139000EE6A0D3A02EB820293409E43EE620B79B5
:1013A0000A880D3B92B203EB83039A400368DD6A1F
:1013B0002A43DA62164B0568144A9D4206D10D682D
:1013C000122D03D1556845F48005556005689D428E
:1013D00018D10B68102B01D0112B13D1536843F493
:1013E00000035360096810290CD10A490A4A0968A8
:1013F000B1FBF2F101EB8101490000E0491E0091CF
:101400000029FBD180F83C40002078BD002301403A
:1014100000200140C001002040420F00704770478B
:10142000704770B504004FF0000503D0206C002613
:1014300010B107E0012070BD204600F01DF8666481
:1014400084F83C60206CC00610D4206C20F48850D6
:1014500040F0020020642046FFF700F96664206C2B
:1014600020F0020040F00100206400E0012584F833
:101470003C60284670BD000070B586B00646142159
:101480006846FEF747FF1D493068884234D11C4842
:101490000025016841F480710160006800F48070EB
:1014A000059017481438016841F001010160006897
:1014B000694600F0010005903F2000900320CDE92F
:1014C0000105104800F088FA104C0F48C4E90005E7
:1014D0000015A560C4E90350800060618000A06130
:1014E0008011C4E907052046656200F0D3F908B110
:1014F000FFF77AFEB463A66306B070BD002001401A
:101500004438024000000240106402404C060020B3
:10151000F8B50E4600210446009190F83C000128E1
:1015200007D0012084F83C0020688368DB0702D0E4
:1015300011E00220F8BD836843F00103836037485F
:10154000374B0068B0FBF3F000EB400000E0401EBA
:1015500000900028FBD120688368DB075CD0236CF7
:1015600040F20165AB4343F4807323644068400557
:1015700005D5206C20F4005040F480502064206C8D
:10158000C00404D5606C20F00600606400E0616473
:1015900084F83C10A16B2448224DC863A16B2348FA
:1015A0000864A16B2248C86421686FF022000860BB
:1015B0002068416841F0806141602068816841F4A1
:1015C000807181602168134632464C31A06B00F077
:1015D000CBF968681749C006206806D088421BD13D
:1015E000816811F0405F13D016E08842F8D0124AAB
:1015F000904203D1D1F80423D206F1D00F4A904291
:101600000AD1D1F8041301F01F011029E8D303E037
:10161000816841F0804181600020F8BDC001002058
:1016200040420F0000230140CF0500085306000888
:101630003D06000800200140002101400022014039
:101640002DE9F0410446876D00F0A2FA064694F8B1
:1016500035000025022806D08020606584F83450CB
:101660000120BDE8F0812068016821F016010160C9
:101670002068416921F080014161206C08B9A06CAB
:1016800020B12068016821F008010160206801682C
:1016900021F0010101600BE000F07AFA801B0528BF
:1016A00006D92020606504F8345F03206070D8E715
:1016B00020680068C007EFD194F85C103F20884094
:1016C000B86004F8345F012060700020C9E790F82A
:1016D0003510022903D08021416501207047052182
:1016E00080F835100068016821F0010101600020D8
:1016F000704700002DE9F84304464FF00009CDF88B
:10170000009063484FF41651A56D0068B0FBF1F7E7
:101710002E6894F85C10082000FA01F131420FD0D5
:1017200021680A6852070BD50A6822F004020A6091
:1017300094F85C108840A860606D40F0010060651E
:1017400094F85C104FF0010808FA01F0304208D01C
:1017500021684969090604D5A860606D40F002005F
:10176000606594F85C1004208840304208D02168FD
:101770000968890704D5A860606D40F004006065C1
:1017800094F85C1010208840304218D02168096815
:10179000090714D5A86020680168490304D50068CA
:1017A000000308D5A16C07E00168C90503D40168EE
:1017B00021F008010160216C09B12046884794F8A6
:1017C0005C1020208840304231D021680968C90669
:1017D0002DD5A86094F8350005282068016806D04A
:1017E000490347D5006800031DD4616C1CE021F05B
:1017F000160101602068416921F080014161206C7F
:1018000008B9A06C20B12068016821F008010160CE
:1018100094F85C103F208840A86084F8349084F8E5
:101820003580216D1FE0E16B09B120468847606D6E
:1018300000282BD0606DC00714D0052084F8350037
:101840002068016821F0010101600098401C0090AF
:10185000B84203D820680068C007F6D184F83490F5
:1018600084F83580E16C002910D001B02046BDE835
:10187000F04308470168C905D5D4016821F010017B
:10188000016084F8349084F83580CCE7BDE8F883B3
:10189000C00100202DE9F041044600F079F9064628
:1018A0005CB1002584F83450022084F835002068AB
:1018B000016821F0010101600DE00120BDE8F08127
:1018C00000F066F9801B052805D9202060650320FB
:1018D00084F83500F2E720680068C007F0D122687C
:1018E000116820480140D4E901031843D4E90336C4
:1018F0003343184363691843A3691843E3691843E2
:10190000236A18430843616A042903D1D4E90B13FD
:1019100019430843106020684069666A20F0070197
:1019200030460E43012704280CD1A06A0643E06A22
:1019300040B12046FFF774F920B14020606584F87B
:101940003570BAE7206846612046FFF755F994F8EC
:101950005C203F2191408160656584F835700020EE
:10196000ACE700003F8010F02DE9F0410446866DA1
:1019700090F83400002501280DD0012084F83400AF
:1019800094F835700020012F07D084F83400022528
:101990002846BDE8F0810220FBE7022784F8357075
:1019A00060652046FFF766F994F85C103F20884098
:1019B000B0602068016841F016010160206C20B120
:1019C0002068016841F0080101602068016841F069
:1019D00001010160DCE700002DE9F84F00224FF023
:1019E000010803254FF00F0E0B6808FA02F423409C
:1019F000A3426ED14E68012E05D0022E03D0112EC7
:101A000001D0122E12D186684FEA420C05FA0CF76B
:101A1000BE43CF6807FA0CF7374387604668A64392
:101A20000C79C4F30014944034434460C6685700F2
:101A300005FA07FC8C6826EA0C06BC403443C460F7
:101A40004C68022C01D0122C13D1D40800EB840472
:101A5000A346D4F8209054074FEAD46A0EFA0AF647
:101A600029EA06090E6906FA0AF646EA0906CBF8DB
:101A7000206006680C7926EA0C0604F00304BC40DA
:101A8000344304604C68E40065D5364C266846F45F
:101A900080462660246822F0030604F48044009403
:101AA000314C3444A446D4F808489607370F0EFA50
:101AB00007F6B4432D4EB04201D1002624E02C4E4F
:101AC000B04201D101261FE02A4EB04202D10226C7
:101AD0001AE040E0284EB04201D1032614E0274E20
:101AE000B04201D104260FE0254EB04201D10526B7
:101AF0000AE0244EB04201D1062605E0224EB04253
:101B000001D1072600E00826BE402643CCF808682D
:101B10001E4E34684F689C43FF0300D51C4334605D
:101B20001A4C241D26684F689E43BF0300D51E43F0
:101B30002660164E083634684F689C43FF0200D575
:101B40001C433460114E0C3634684F689C43BF020E
:101B500000D51C433460521C102AFFF445AFBDE889
:101B6000F88F00004438024000300140000002407D
:101B70000004024000080240000C02400010024035
:101B80000014024000180240001C0240003C0140CA
:101B90000148806870470000B401002070B504005F
:101BA00011D021684CF6CC400860216845F25550B0
:101BB0000860D4E9000141602168A0688860FFF7EF
:101BC000E7FF054609E0012070BD00BFFFF7E0FF19
:101BD000401B302801D9032070BD2068C068002850
:101BE000F4D121684AF6AA200860002070BD006880
:101BF0004AF6AA210160002070470000024881686F
:101C00000278114481607047B40100200B4810B580
:101C1000016841F400710160016841F48061016074
:101C2000016841F480710160032000F08DF800200C
:101C300000F006F800F03EF8002010BD003C024025
:101C400010B5014688B00022192000F05DF8192077
:101C500000F04CF813480024016841F400310160A1
:101C6000006805A900F400300690684600F018F9F5
:101C700000F046F90C494000B0FBF1F10C480B4A6A
:101C8000491E026040F2E732C0E90324C0E90114B2
:101C900000F098FB10B1012008B010BD044800F01E
:101CA00005FCF9E74438024040420F00004401407F
:101CB000800D00200C4882B0016841F48041016031
:101CC000006800F4804000900748001F016841F060
:101CD000805101600068002200F0805000900F21C8
:101CE000901E02B000F010B844380240002809DB12
:101CF00000F01F02012191404009800000F1E02026
:101D0000C0F8001170470000F0B40E4B1B680C4681
:101D1000C3F30223C3F10705042D00D90425191DBF
:101D2000072901D2002300E0DB1E012606FA05F197
:101D3000491E214099409E40761E16403143F0BC1A
:101D400002F01CBB0CED00E0064900F00702086839
:101D50004FF6FF03184040EA0220034A1043086090
:101D6000704700000CED00E00000FA052DE9F04797
:101D70000E46050065D0DFF81481D8F80000F7B2F0
:101D800000F00F00B04207D288F80070D8F80000C9
:101D900000F00F00B04254D128683D4C810712D5A5
:101DA000400703D5206840F4E05020602878000701
:101DB00003D5206840F4604020602068A96820F0C6
:101DC000F000084320602878C0072DD030496868AB
:101DD0000839012812D0022813D0032811D009682D
:101DE000890700292DDA216821F0030101432160D0
:101DF000FFF7CEFE814641F2883A0EE0096889037A
:101E0000EFE709688901ECE7FFF7C2FEA0EB0901E3
:101E1000514502D90320BDE8F0872068696800F0C9
:101E20000C00B0EB810FEFD1D8F80010404601F064
:101E30000F01B14207D90770006800F00F00B042EF
:101E400001D00120E7E72878400705D52068E96838
:101E500020F4E050084320602878000706D5206869
:101E6000296920F4604040EAC100206000F058F881
:101E70002168084AC1F30311515CC8400649086053
:101E800006480068FFF7DCFE0020C4E7003C024083
:101E90000838024020530008C0010020B80100208B
:101EA0000F2202600C4A136803F0030343601368B7
:101EB00003F0F0038360136803F4E053C360126817
:101EC0004FF4E05303EAD20202610448006800F0D4
:101ED0000F0008607047000008380240003C0240D4
:101EE0000448054900680968044AC1F38221515C2D
:101EF000C8407047C0010020083802403053000835
:101F00000448054900680968044AC1F34231515C3C
:101F1000C8407047C0010020083802403053000814
:101F2000154810B5006810F00C02144813D0411089
:101F3000042A0FD0082A0ED10F4C241F22682368D0
:101F400002F03F025B0207D52068C0F38810A0FBB7
:101F5000010106E0084610BD2168C1F38811A1FB0C
:101F600000010023FEF78CF92168C1F30141491CEF
:101F70004900B0FBF1F010BD083802400024F40025
:101F80002DE9F84F040076D02078DFF838A3CE4D45
:101F9000C00749D0DAF800105046C1F38101012989
:101FA00008D00068C0F3810002280AD1281D00680B
:101FB000400206D52868800336D560680028E2D044
:101FC00032E06068B0F5803F10D0B0F5A02F2868EF
:101FD00010D020F480302860286820F48020286009
:101FE0006068A0B1FFF7D4FD06460CE0286840F415
:101FF0008030F4E740F480202860F7E7FFF7C8FD61
:10200000801B642873D828688003F7D50CE0FFF79D
:10201000BFFD064605E000BFFFF7BAFD801B642840
:10202000F0D828688003F7D42078DFF8A0828007F2
:102030004FF000093ED5DAF80010504611F00C0FB1
:1020400009D00068C0F3810002280BD19D48001F11
:102050000068400206D42868800715D5E06801288A
:1020600009D111E0E068B8B10120C8F80000FFF71D
:102070008FFD064605E020E1FFF78AFD801B022860
:10208000C0D828688007F7D52868216920F0F800B3
:1020900040EAC10028600DE0C8F80090FFF778FD25
:1020A000064604E0FFF774FD801B02281FD828684D
:1020B0008007F7D42078000722D5824E84486169D2
:1020C0006C3671B101210160FFF762FD074604E043
:1020D000FFF75EFDC01B022809D830688007F7D5DE
:1020E0000EE0C0F80090FFF753FD074605E082E0E0
:1020F000FFF74EFDC01B02287DD830688007F7D45B
:102100002078400768D5DFF8BCB100270BF1380B09
:10211000DBF80000C0000BD4DBF8001041F0805168
:10212000CBF80010DBF80000012700F08050009091
:10213000684E3068C00510D4306840F4807030605C
:10214000FFF726FD009005E0FFF722FD0099401AF9
:10215000022850D83068C005F6D55A4EA0686836B7
:1021600001280FD00528306810D020F00100306021
:10217000306820F004003060A068B8B1FFF708FDB7
:1021800000900FE0306840F00100F4E740F00400F8
:102190003060F7E7FFF7FCFC0099411A41F2883004
:1021A000814266D830688007F4D50EE0FFF7F0FC76
:1021B000009007E0FFF7ECFC0099411A41F28830EB
:1021C000814256D830688007F4D42FB1DBF8001074
:1021D00021F08051CBF80010A069D0B3DAF80020CC
:1021E0005146C2F38102022A4AD00228484607D04B
:1021F000C8F8600000E03CE0FFF7CAFC04463BE0A2
:102200004746C8F86000FFF7C3FC064605E000BF7C
:10221000FFF7BEFC801B02282BD828688001F7D46A
:10222000D4E907010843A16A2B4A490802EB01419E
:10223000626A41EA8211084394F82C1040EA016175
:102240002048001F016001203866FFF7A1FC04460A
:1022500005E034E0FFF79CFC001B022809D8286841
:102260008001F7D52BE000BFFFF792FC001B02288E
:1022700002D90320BDE8F88F28688001F4D41EE05D
:102280000128F7D00868E26900F48001914214D176
:10229000226A00F03F0191420FD147F6C071626A95
:1022A0000140914209D1A26A00F44031914204D127
:1022B000E16A00F07060884201D00120DAE7002076
:1022C000D8E70000083802400038024000004742CA
:1022D000800E4742007000400000FFFF70477047CB
:1022E00010B590F83C20012A22D0012280F83C2031
:1022F000CA688C6822F4407222434C6822F48062DF
:1023000022430C6822F4006222430C6922F48052BA
:1023100022434C6922F400522243C969002322F46B
:1023200080420A4301684A6480F83C30002010BDB6
:10233000022010BD70B590F83C20012A32D0012453
:1023400080F83C40022280F83D2003685A689D686E
:1023500022F070060A6832435A60134B02689A42B0
:1023600014D0B2F1804F11D0104B9A420ED0104BC6
:102370009A420BD00F4B9A4208D00F4B9A4205D08D
:102380000E4B9A4202D00E4B9A4204D1496825F076
:1023900080031943916080F83D40002180F83C1093
:1023A000084670BD022070BD0000014000040040DE
:1023B00000080040000C00400004014000400140C3
:1023C0000018004010B5040003D094F83D0010B18F
:1023D00007E0012010BD002084F83C00204600F0FA
:1023E0000DF8022084F83D00211D206801F0A2FBB9
:1023F000012084F83D00002010BD000008B50168F0
:10240000254881420FD12548016841F00101016052
:102410000068002200F00100009011461920FFF72B
:1024200073FC192029E01D48001FB1F1804F0BD02B
:102430001B4A914210D1016841F00201016000681D
:1024400000F00200009008BD016841F00101016048
:10245000006800F00100F5E7124A914211D10168CD
:1024600041F0200101600068002200F0200000908F
:1024700007213720FFF748FC3720BDE80840FFF769
:1024800035BC094A9142DED1016841F48071016096
:10249000006800F48070D5E7000001404438024035
:1024A0000004004000140040002000400168CA6899
:1024B00042F00102CA600068816801F00701062944
:1024C00003D0016841F0010101600020704770B540
:1024D000044690F83C00012817D0012584F83C50B0
:1024E000022084F83D002068826822F0770222F4FE
:1024F0007F4282600868502830D00DDC20284DD003
:1025000005DC98B310283BD148E0022070BD30288C
:1025100044D0402834D139E0602828D0702806D033
:10252000B0F5805F2CD0B0F5005F29D10AE0CB6810
:10253000D1E90121206801F06EFB2068816841F03B
:10254000770109E0CB68D1E90121206801F063FB44
:102550002068816841F48041816011E0CA6849685F
:10256000206801F02DFC5021206807E016E0CA68C1
:102570004968206801F035FC6021206801F055FBB6
:1025800084F83D50002084F83C0070BDCA6849685A
:10259000206801F015FC40212068EFE72268014621
:1025A0001046EBE7704770B50446006801694FF0CC
:1025B0000005C943890715D4C168C943890711D4E7
:1025C000E91E01610120207720688069800720468C
:1025D00002D0FFF7E7FF04E000F01CF9204600F00E
:1025E0009EF9257720680169C943490717D4C16856
:1025F000C943490713D46FF0040101610220207719
:102600002068806910F4407F204602D0FFF7CAFF9F
:1026100004E000F0FFF8204600F081F925772068FB
:102620000169C943090716D4C168C943090712D40F
:102630006FF008010161042020772068C0698007DD
:10264000204602D0FFF7AEFF04E000F0E3F820469A
:1026500000F065F9257720680169C943C90617D4D8
:10266000C168C943C90613D46FF010010161082085
:1026700020772068C06910F4407F204602D0FFF721
:1026800091FF04E000F0C6F8204600F048F92577F5
:1026900020680169C943C90708D1C168C943C9078E
:1026A00004D1891E0161204600F05CF920680169AF
:1026B000C943090609D4C168C943090605D46FF0A6
:1026C000800101612046FFF709FE20680169C943C6
:1026D000490609D4C168C943490605D46FF04001D1
:1026E0000161204600F048F920680169C943890664
:1026F0000BD4C168C943890607D46FF0200101617A
:102700002046BDE87040FFF7EABD70BDF0B587B068
:10271000044614216846FDF7FDFD374A2168002470
:1027200036480225012691420FD1016841F010017F
:1027300001600068694600F0100005904FF4D44035
:102740000090CDE901542E483AE02E4A2E4FB1F1C7
:10275000804F13D02D4B994238D1016841F00201CE
:1027600001600068694600F00200059013200090A7
:10277000CDE901541046CDE9034523E0016841F05D
:1027800002010160016801F002010591016841F058
:10279000010101600068694600F00100059040F603
:1027A00008400090CDE90154CDE903461046FFF7FB
:1027B00013F94FF400400090CDE9015469463846C2
:1027C000CDE90346FFF708F907B0F0BD104A914282
:1027D000FAD1016841F0010101600068694600F02A
:1027E0000100059080200090CDE901540920CDE939
:1027F00003403846E6E70000000001403038024060
:1028000000100240000402400000024000040040AA
:1028100000200040704770B5044690F83C000D461B
:1028200001280DD0012684F83C60022084F83D0088
:1028300042B1042A18D0082A2AD00C2A4DD139E0F6
:10284000022070BD206801F0F9F92068816941F02B
:10285000080181612068816921F00401816120689B
:1028600081692A69114311E0206801F017FA206894
:10287000816941F4006181612068816921F480618E
:102880008161206881692A6941EA0221816124E02D
:10289000206801F039FA2068C16941F00801C1617E
:1028A0002068C16921F00401C1612068C1692A69F9
:1028B000114311E0206801F05BFA2068C16941F41E
:1028C0000061C1612068C16921F48061C161206833
:1028D000C1692A6941EA0221C16184F83D60002092
:1028E00084F83C0070BD10B5040003D094F83D009E
:1028F00010B107E0012010BD002084F83C00204604
:1029000000F00CF8022084F83D00211D206801F041
:1029100011F9012084F83D00002010BD7047704778
:1029200010B504460068012201F068F90B492068DF
:10293000884202D00A49884203D1416C41F40041E7
:1029400041642068816801F00701062903D001680D
:1029500041F001010160002010BD000000000140B5
:102960000004014000680349884201D1FFF746B9DD
:102970007047000000440140704710B504460068ED
:10298000416994F83920C1F3C011212A0BD151B10A
:10299000416921F080014161206B08B1FEF750FED2
:1029A000204601F007FB2068416994F83A20C1F302
:1029B0008011222A0BD151B1416921F040014161BE
:1029C000606B08B1FEF73CFE204601F0E5FA0020FE
:1029D00010BD704770B5026804461068D16853692D
:1029E00010F00F0F52D003F0010501F490762E4342
:1029F0005FD0C20705D0CA0503D5E26B42F00102E1
:102A0000E263420705D5DA0703D0E26B42F0020227
:102A1000E263820705D5DA0703D0E26B42F00402D5
:102A2000E263020707D501F020022A4303D0E26BDC
:102A300042F00802E263E26B002A33D0800604D53C
:102A4000880602D5204601F0BEFA20684069E16B95
:102A5000C0F38010090700D428B3204601F09CFA87
:102A60002068416949061AD5416921F04001416158
:102A7000606BA0B11B490165606BFEF728FE002862
:102A800010D0606B016DBDE870400847830610D51B
:102A90008B060ED52046BDE8704001F094BA204662
:102AA000FFF797FF70BD2046FFF793FF0020E0631C
:102AB00070BD030606D50B0604D52046BDE8704060
:102AC00001F060BB4006F3D54806F1D5D168204639
:102AD00021F04001D160202184F8391000F040FB42
:102AE00070BD0000C13E000870B5040004D094F829
:102AF0003900002510B106E0012070BD84F838507F
:102B0000204600F023F8242084F839002068C168AA
:102B100021F40051C160204601F0A0FA206801694B
:102B200021F4904101612068416921F02A0141614D
:102B30002068C16841F40051C160E563202084F839
:102B4000390084F83A00002070BD00002DE9F04FF4
:102B500087B0044614216846FDF7DCFBF848F74BC4
:102B60001038D4F800C0DFF8D8B3022101220327BF
:102B7000002506154FF0080E4FF040094FF0006A8F
:102B80009C454AD1DBF800C04CF4002CCBF800C0C7
:102B9000DBF8003003F400230593036843F00403DB
:102BA0000360006800F004000590B8028DE88740DB
:102BB0006946E448FEF710FFE44FE3483860C7E990
:102BC00001A5C7E903567D61BD61FD613D623846DF
:102BD0007D62FEF75FFE08B1FEF706FB6763BC632C
:102BE000DB4FD948C7F80890C7E903567D61BD613E
:102BF000FD613D6230307D62C7E9000A3846FEF76C
:102C000049FE08B1FEF7F0FA2763002206213420BE
:102C1000BC63FFF779F8342072E0CE4B9C4575D148
:102C2000DBF800C000254CF4801CCBF800C0DBF8BA
:102C3000003003F480130593036843F0040303603A
:102C4000036803F004030593036843F0080303607B
:102C50000068029200F0080005904FF48050CDE922
:102C600000010820CDE903708B4690466946B548BF
:102C7000FEF7B2FE0420CDE9000BCDF80880082055
:102C8000CDE903706946B448FEF7A6FEAE49DFF809
:102C9000CC8230394046C8F80010C0E901A5C0E92F
:102CA0000356C8F81450C8F81850C8F81C50C8F893
:102CB00020505746C8F82450FEF7ECFD08B1FEF747
:102CC00093FAA148A64DC4F834807830C8F838404B
:102CD00085E881020020C5E903066861A861E86112
:102CE000286268622846FEF7D5FD08B1FEF77CFA37
:102CF0002563002206213520AC63FFF705F8352057
:102D0000FEF7F4FF07B0BDE8F08FFFE78C4BDFF86C
:102D100054821B1DC4454CD1D3F800C04CF0100C9C
:102D2000C3F800C01B6803F010030593036843F069
:102D300001030360006800F0010005904FF4C060DB
:102D40008DE887000720049069468748FEF744FE17
:102D5000874F86483860C7E901A5C7E903567D61FA
:102D6000BD61FD613D6238467D62FEF793FD08B1AD
:102D7000FEF73AFA6763BC637E4F7C48C7F8089059
:102D8000C7E903567D61BD61FD613D6278307D62BA
:102D9000C7E9000A3846FEF77DFD08B1FEF724FAC0
:102DA0002763002205212520BC63FEF7ADFF252007
:102DB000A6E7DFF8C481C4455BD1DBF800C0A846B4
:102DC0004CF4003CCBF800C0DBF8003003F40033D7
:102DD0000593036843F008030360006800F00800EF
:102DE000059060208DE887000720049069465A48C6
:102DF000FEF7F2FD5449DFF884B148315846CBF86C
:102E00000010C0E901A5C0E90356CBF81450CBF877
:102E10001850CBF81C50CBF820505746CBF8245014
:102E2000FEF738FD08B1FEF7DFF94748544DC4F806
:102E300034B06030CBF8384085E88102C5E90386BC
:102E4000C5F81480C5F81880C5F81C80C5F8208026
:102E50002846C5F82480FEF71DFD08B1FEF7C4F929
:102E60002563002206212620AC63FEF74DFF2620B5
:102E700046E7DFF81081C4455ED1DBF800C04CF4B2
:102E8000802CCBF800C0DBF8003003F480230593DE
:102E9000036843F008030360006800F00800059031
:102EA0004FF440708DE887000720049069462A4857
:102EB000FEF792FD2449DFF8D08018394046C8F863
:102EC0000010C0E901A5C0E90356C8F81450C8F8BD
:102ED0001850C8F81C50C8F820505746C8F824505D
:102EE000FEF7D8FC08B1FEF77FF9C4F83480C8F8C3
:102EF0003840DFF89880144940461831C0E903563D
:102F0000C8F81450C8F81850C8F81C50C8F8205019
:102F100088E88202C8F82450FEF7BCFC08B1FEF72E
:102F200063F9C4F83080002206212720C8F8384011
:102F3000FEF7EAFE2720E3E62AE00000004C00400E
:102F4000403802400008024040600240AC060020C9
:102F50000C07002000500040000C02406C070020CD
:102F6000CC070020001001400000024040640240F5
:102F70002C0800208C08002000440040EC080020B1
:102F80004C09002000480040AC0900200C0A002039
:102F9000DFF89C80C4457FF4B5AED3F800C04CF098
:102FA000200CC3F800C01B6803F0200305930368DE
:102FB00043F004030360006800F004000590C020A3
:102FC0008DE8874069461B48FEF706FD1B4F1A48EF
:102FD0004FF020683860C7E90185C7E903567D6175
:102FE000BD61FD613D6238467D62FEF753FC08B16C
:102FF000FEF7FAF86763BC63114F0F48C7E9035641
:103000007D61BD61FD613D6278307D6287E80103CD
:103010003846FEF73FFC08B1FEF7E6F827630022CA
:1030200006214720BC63FEF76FFE472068E60000DC
:103030000014014000080240286402406C0A00208D
:10304000CC0A0020F8B5044690F83A0020283CD17C
:10305000C1B3BAB394F83800012836D0012084F8FF
:103060003800A162A2850025E563222084F83A0099
:10307000636B1748D863636B16481864636B164814
:10308000D864606B134605650846666B2168024686
:103090003046091DFEF768FC206801684168009110
:1030A00084F83850C16841F48071C160206841697A
:1030B00041F0010141612068416941F040014161F5
:1030C0000020F8BDFFE70120FBE70220F9E7000040
:1030D0001B3F0008573F0008D13E0008704770476B
:1030E00070B5044690F83900202830D169B362B336
:1030F00094F8380001282AD0012084F83800216291
:10310000A284E2840025E563212084F83900236B42
:103110001048D863236B10481864236B0F48D86499
:10312000206B134605652668206B321DFEF71CFCDC
:1031300021686FF04000086084F8385020684169C9
:1031400041F080014161002070BD012070BD02206E
:1031500070BD0000613F00088F3F0008D13E0008AD
:1031600070477047564C606901F03AFE206A01F0E2
:1031700037FEE06901F034FEA06901F031FEA06A7B
:1031800001F02EFE4F491E22A1F58070FFF75AFF75
:103190004D480068C16841F01001C16008214B48EA
:1031A000FFF7BEFB494800218030FFF7B9FB4748D5
:1031B00000218038FFF7B4FB444804218038FFF732
:1031C000AFFB424808218038FFF7AAFB3F480C219B
:1031D0008038FFF7A5FB3D4800214038FFF7A0FBF2
:1031E0003A4804214038FFF79BFB38480821403813
:1031F000FFF796FB35480C214038FFF791FB002183
:103200003248FFF78DFB0C213048FFF789FB30492E
:1032100040F2DC5048638863C863086489034863EC
:103220008863C86308642B4908602A49083108602C
:10323000091D086028490020486324484030FFF7F2
:1032400035F903E021488C38FEF7D1FC607900287D
:10325000F8D0A06901F050FD1C490622EC3901F1BB
:103260001800FEF755F9174928225A31A1F5ED70DB
:10327000FFF7E8FE144880380068C16841F010018B
:10328000C16010481E30FDF7A9FA0E493C221E31DC
:10329000A1F19E00FFF7D6FE0A4880380068C16899
:1032A00041F01001C16009488C38FEF7A0FCE06ACB
:1032B00001F096FD42F21074204601F0BFF9FBE7E1
:1032C0008C000020C8050020C804002088030020CE
:1032D0000000014034040040002000407FB500247D
:1032E000234800940194029420490394016001252D
:1032F0004FF480310561C0E90114057680F8204063
:103300001C49C0E90A140626C661C46080F8305022
:103310004461FEF786F8CDE9004502246946144869
:103320000294FDF7D5FFCDE9005469461048FDF73A
:10333000CFFF0094032469460D480194FDF7C8FFB0
:103340000094042469460A480194FDF7C1FF0094E3
:103350000524694606480194FDF7BAFFCDE9004609
:1033600069460348FDF7B4FF7FBD0000002001401F
:10337000B40200200100000F3D4808B5016841F487
:1033800000110160016801F400110091016841F42D
:10339000800101600068002200F480000090052197
:1033A0000B20FEF7B1FC0B20FEF7A0FC002205214C
:1033B0000C20FEF7A9FC0C20FEF798FC002205214A
:1033C0000D20FEF7A1FC0D20FEF790FC0022052148
:1033D0000E20FEF799FC0E20FEF788FC0022052146
:1033E0000F20FEF791FC0F20FEF780FC0022052144
:1033F0001020FEF789FC1020FEF778FC0022052142
:103400001120FEF781FC1120FEF770FC002205213F
:103410002F20FEF779FC2F20FEF768FC0022052103
:103420003820FEF771FC3820FEF760FC00220521F1
:103430003920FEF769FC3920FEF758FC00220521EF
:103440003A20FEF761FC3A20FEF750FC00220521ED
:103450004520FEF759FC4520FEF748FC00220521D7
:103460004620FEF751FCBDE808404620FEF73EBC72
:1034700030380240194808B5016841F00401016084
:10348000016801F004010091016841F080010160D0
:10349000016801F080010091016841F001010160C3
:1034A000016801F001010091016841F00201016031
:1034B000016801F002010091016841F01001016012
:1034C000016801F010010091016841F008010160FC
:1034D000006800F00800009008BD0000303802408D
:1034E00010B588B01C216846FCF714FF10480F493E
:1034F000002401602F21C0E9011441F28831C0E9A4
:1035000003148461FEF75EFF0948FFF7ECF96020C1
:10351000CDE9000402940022694605480494FFF7AF
:103520007AF90348FFF7F2F808B010BD0020004018
:103530000804002010B596B000240F941094119444
:10354000129413941C2168461494FCF7E3FE202186
:1035500007A8FCF7DFFE284826490160BF21C0E923
:1035600001144CF25031C0E9031444618461FEF748
:1035700029FF4FF480500F900FA91F48FEF7A7FFB7
:103580001D48FFF7B0F9139413A91B481494FEF7D4
:10359000D1FE6020009040F2DC50CDE9010403949C
:1035A000049405940022694613480694FFF733F902
:1035B000042269461048FFF72EF9082269460E4892
:1035C000FFF729F90C2269460B48FFF724F9079405
:1035D000089409944FF400500A94CDE90B4007A9D0
:1035E00005480E94FEF77CFE0348FFF78FF816B0EF
:1035F00010BD0000000001400803002010B58EB08F
:1036000000240794089409940A940B941C2168469A
:103610000C94FCF77FFE1F484FF0804101605F2152
:10362000C0E901144CF25031C0E903148461FEF783
:10363000C9FE4FF48050079007A91648FEF747FFD0
:103640001448FFF750F90B940BA912480C94FEF79D
:1036500071FE6020009040F2DC50CDE901040022B0
:1036600069460C480494FFF7D6F8042269460948D5
:10367000FFF7D1F8082269460648FFF7CCF80C227C
:1036800069460448FFF7C7F80248FFF73FF80EB055
:1036900010BD00004803002010B58EB00024079430
:1036A000089409940A940B941C2168460C94FCF726
:1036B00031FE1D481B4901605F21C0E901144CF235
:1036C0005031C0E903148461FEF77CFE4FF4805052
:1036D000079007A91448FEF7FAFE1348FFF703F90D
:1036E0000B940BA910480C94FEF724FE6020009068
:1036F00040F2DC50CDE90104002269460A480494F6
:10370000FFF789F8082269460748FFF784F80C227A
:1037100069460548FFF77FF80348FEF7F7FF0EB04C
:1037200010BD00000004004088030020FEE7704741
:1037300070B52D4840F2DC5182681388A3F2C4535F
:10374000312B00D2118042681388A3F2C453312B6D
:1037500000D21180C2681388A3F2C453312B00D267
:10376000118002691388A3F2C453312B00D2118057
:10377000426A12780AB1052133E0826843681288F0
:103780001B889A4201D9012400E00024D51840F694
:10379000B836B54201D9012500E000258A4201D999
:1037A000012200E000228B4201D9012100E000212A
:1037B000E30003EB850303EB42021144102911D20D
:1037C000DFE801F0080E1010100C100A0A100C109F
:1037D00010100E08012104E0022102E0032100E0A4
:1037E0000421017070BD0000040000207047002813
:1037F00009D0012807D10869026048690260886918
:103800000260C869026070472DE9F0470AAC824641
:1038100094E80112264CDDE90865D4F83C800D9F40
:1038200088F80010216C0A7022491A88D1F80080AB
:10383000A8F80020D1F804805A88A8F800208968E8
:103840009A880A801B4932880C310B681A804B68B1
:1038500072881A808968B2880A8016492A881831C5
:103860000B681A804B686A881A808968AA880A805F
:103870001049028824310B681A804B6842881A80EC
:10388000896880880880616CA1F80090A06C222172
:10389000A0F800C0E06C0780A06B00F063FD216D14
:1038A000252208705046A16BBDE8F047FFF718BC11
:1038B000040000206C02002000280CD001280AD14E
:1038C0000B69A2F6B830404218604B691A608B69E8
:1038D0001A60C9690860704700280CD001280AD115
:1038E0000A69A3F6B830404210604A6910608869DE
:1038F0000360C8690360704770477047184C002523
:103900001848FEF774F9207838B32570607830B124
:103910006570606901F0F0F9022000F08FFEE07838
:1039200030B1E570E06901F0E7F9022000F086FEB1
:10393000A07830B1A570A06901F0DEF9022000F096
:103940007DFE20790028DBD02571206A01F0D4F9B2
:103950005FF0020000F072FED2E70120FAE70000FB
:103960008C000020FC0200201FB50D49DDE9074254
:10397000069B5B1C8B70A1F11603CC7013F81240F0
:1039800003EB42020C7352784A730F22FFF7A8FB35
:1039900001A8FEF72CF90F2000F050FE1FBD00001B
:1039A000A20100207047000010B5502080F311885C
:1039B000BFF34F8FBFF36F8F01F078FB18B104494D
:1039C0004FF080500860002080F3118810BD000087
:1039D00004ED00E030B593B030216846FCF79AFC66
:1039E00014210CA8FCF796FC1A480025016841F048
:1039F00080510160006800F0805011901648016805
:103A000041F4804101600068022400F4804011907C
:103A1000092000904FF4803001900120CDE9050489
:103A20008005CDE907046020CDE9090404200B904E
:103A30006846FEF7A5FA0CA90F2081E831004FF483
:103A4000A0500F90E002109005210CA8FEF78EF90F
:103A500013B030BD40380240007000400548016896
:103A600041F47001016003494FF000608039086043
:103A70007047000088ED00E010B50448FEF793FDA4
:103A8000BDE810400248FEF78EBD0000080300208C
:103A9000800D0020F0B4204900230122087870B383
:103AA00088780324B0FBF4F504FB1504022C07D13D
:103AB0001A4C2478012C03D1194C2270194C227015
:103AC000142802D0401C887022E0C878164CC21E10
:103AD000164D0D2A0DD2DFE802F007090F130C076F
:103AE000090C0F1307091700636302E041F28732E4
:103AF0006263401CC8700BE040F2D66202E005E051
:103B000040F2E2422A60F4E7CB7001E00A708B7069
:103B1000F0BC0748FEF747BD0C01002091000020D3
:103B20008C0000208D000020002000403C0400405C
:103B3000C8030020F0B50268254C264D264E274FBD
:103B4000274B4FF0804CA04209D0604507D0A842D7
:103B500005D0B04203D0B84201D0984204D122F03F
:103B6000700E4A6842EA0E02A0421BD0604519D08E
:103B7000A84217D0B04215D0B84213D0984211D005
:103B8000184DA8420ED0184DA8420BD0174DA84290
:103B900008D0174DA84205D0164DA84202D0164DA8
:103BA000A84203D122F44075CA682A434D6922F025
:103BB00080022A4302608A68C2620A688262A04266
:103BC00001D0984201D10969016301214161F0BD31
:103BD000000001400004004000080040000C0040CC
:103BE0000004014000400140004401400048014001
:103BF00000180040001C00400020004010B501F0FB
:103C00001F030121046A99408C430462016A9A40AF
:103C10001143016210BD10B5846842EA032224F406
:103C20007F440A432243826010BD826822F0700202
:103C30000A4342F00701816070470000F0B5026A54
:103C400022F001020262036A42688469124E24F083
:103C500073050C682C4323F002058B682B430D4D34
:103C6000A84201D0B04205D123F00807CB683B43FE
:103C700023F00403A84201D0B04205D14D6922F4DB
:103C8000407215438A692A434260846149684163EE
:103C90000362F0BD0000014000040140F0B5026A7B
:103CA00022F010020262026A436884690D6824F4FB
:103CB000E64444EA05248D6822F0200242EA051217
:103CC0000F4D104EA84201D0B04206D1CF6822F06D
:103CD000800242EA071222F04002A84201D0B0421C
:103CE00007D14D6923F4406343EA85038D6943EAB4
:103CF000850343608461496881630262F0BD00000E
:103D00000000014000040140F0B5026A22F4807214
:103D10000262026A4368C46922F4007224F07305E7
:103D20000C68124E2C438D6842EA05220E4DA842C3
:103D300001D0B04206D1CF6822F4006242EA0722E5
:103D400022F48062A84201D0B04207D14D6923F429
:103D5000405343EA05138D6943EA05134360C46188
:103D60004968C1630262F0BD0000014000040140E7
:103D700030B5026A22F480520262046A4268C36962
:103D80000D6823F4E64343EA05238D6824F40054C8
:103D900044EA0534084DA84202D0084DA84204D197
:103DA0004D6922F4804242EA85124260C36149684B
:103DB0000164046230BD00000000014000040140C5
:103DC00010B5036A046A24F001040462846924F0D3
:103DD000F00444EA021423F00A020A4384610262F6
:103DE00010BD10B5036A23F0100303628369046AEF
:103DF00023F4704343EA023224F0A00343EA0111A2
:103E00008261016210BD0000F8B5234C2068016892
:103E1000C1F30011A1B301684168009101684068D5
:103E20002046FEF7AAFD1D4800684068C0F1280042
:103E3000C0B20E2825D31A4B1A4D0020195C542904
:103E400005D0401C2828F9DB6878D0B11EE0014677
:103E50006A7803E05E5C0A2E04D0491C2829F9DB4D
:103E60006A70F1E710491844012208602068C168AF
:103E700021F01001C1600D490A700D490A70EFE789
:103E800004E0282206490448FFF7DCF8BDE8F840C2
:103E90000148FEF79FBD000048040020AC0600204A
:103EA000220600200C0100209C0000208C00002035
:103EB0008F0000200148FEF78DBD0000880400201F
:103EC00010B5806B0021C185C184FEF782FD10BD55
:103ED00070B5846B2068406994F83910C0F3C01045
:103EE0000025212904D118B1E584204600F062F8AC
:103EF0002068406994F83A10C0F38010222904D158
:103F000018B1E585204600F047F8E06B40F010005E
:103F1000E0632046FEF75DFD70BD10B50146806B85
:103F200009680968C90513D40021C1850168CA68F8
:103F300022F48072CA6001684A6922F001024A6173
:103F400001684A6922F040024A61202180F83A1053
:103F5000FFF7C4F810BD10B5806BFFF7C0F810BDB7
:103F600010B50146806B09680968C9050CD40021A9
:103F7000C18401684A6922F080024A610068C16810
:103F800041F04001C16010BDFFF7EAF810BD10B567
:103F9000806BFFF7E6F810BD0168CA6822F49072E2
:103FA000CA6001684A6922F001024A61202180F852
:103FB0003A1070470168CA6822F0C002CA60202126
:103FC00080F83910704710B590F83A10222901D0C6
:103FD000022010BD8168B1F5805F11D00169002910
:103FE00001681FD0496801F07F03816A4A1C826220
:103FF0000B70C18D491E0904090CC18518D02BE036
:104000000269816A002A0268526805D0D2B20A8029
:10401000816A491C8162ECE7C2F308020A80816A66
:10402000891CF7E74A68816A4B1C83620A70E0E7E3
:104030000168CA6822F02002CA600168CA6822F4D6
:104040008072CA6001684A6922F001024A61202137
:1040500080F83A10FFF742F8002010BD2DE9F0413A
:10406000044600680169E26821F44051114301618E
:104070002169A068E2690843616911430843216826
:10408000CA6849F20C639A430243CA6020684169D6
:10409000A26921F4407111434161E0691927642547
:1040A0003226B0F5004F354A354920684FF00008F8
:1040B00006D0884201D0904236D1FDF721FF35E08D
:1040C000884201D0904202D1FDF71AFF01E0FDF7CE
:1040D00007FF61684A18A0FB070148EB0803FCF7DB
:1040E000CFF80146B0FBF5F00201B1FBF5F06FF03F
:1040F0001803584301EB800006EBC000B0FBF5F05D
:1041000000F0F80002EB4002B1FBF5F0584301EB80
:10411000800006EBC000B0FBF5F000F0070021685E
:1041200010448860BDE8F081FDF7DAFE61688B0F0E
:104130008A00A0FB0701FCF7A3F80146B0FBF5F0ED
:104140006FF01802504301EB800006EB0010B0FB4B
:10415000F5F000F0F002B1FBF5F002EB0012B1FB5C
:10416000F5F06FF01803584301EB800006EB0010E8
:10417000B0FBF5F000F00F00D1E7000000140140A3
:104180000010014090F83910212901D00220704719
:104190008168B1F5805F016A0BD04A1C0262026837
:1041A00009785160C18C491E0904090CC1840ED0E4
:1041B00017E009880268C1F308015160016900290C
:1041C000016A02D0491C0162ECE7891CFBE7016827
:1041D000CA6822F08002CA600068C16841F04001EC
:1041E000C16000207047000038B51C4C2068016891
:1041F000C1F3001131B301680025416800910168E5
:1042000040682046FEF7B9FB154800684068C0F1D9
:104210001E00C0B2172817D11248817D212913D161
:104220000078252810D110490A7801205AB1216858
:10423000CA6822F01002CA600C490D700C4908705F
:104240000C49087005E008701E2206490348FEF775
:10425000F9FEBDE838400148FEF7BCBBC8040020A9
:104260002C080020C8050020910000200C0100202F
:104270008C0000208D0000200148FEF7ABBB000041
:104280000805002038B5194C20680168C1F30011F9
:10429000D9B1016841680091016840682046FEF785
:1042A0006CFB134800684068C0F13C00C0B22C2889
:1042B00006D110480178552902D1807D552809D0B2
:1042C0003C220C490948FEF7BDFEBDE838400748CE
:1042D000FEF780BB2068C16821F01001C16006496B
:1042E0000120087005490870EFE70000480500202C
:1042F000AC090020E60500208C0000209000002082
:104300000148FEF767BB000088050020FEE70000BB
:10431000104E08B5104DA6F134040E4B0096243310
:10432000A3F14E02911E2069FCF7BAFC28220B492A
:104330000948FEF787FE2868C16841F01001C16096
:104340000748FDF754FCE06900F04AFD012000F049
:1043500075F9E2E7C0000020480400202206002092
:10436000FC02002010B503460078012203E09C5CAB
:104370006040521CD2B28A42F9D310BD0907090E1F
:10438000002804DB00F1E02080F80014704700F002
:104390000F0000F1E02080F8141D704702E008C80B
:1043A000121F08C1002AFAD170477047002001E0AF
:1043B00001C1121F002AFBD17047000070B5BAB0CE
:1043C000FDF724FCFFF706FBFFF754F8FEF7D4FFD8
:1043D000FEF784FF6F486E4901600321416040F29F
:1043E000FF718160FDF7DAFBFFF7A4F8FFF706F92C
:1043F000FFF752F9694868494FF4E135002401603C
:10440000C0E901540C26C460C0E904468461C4615B
:10441000FEF76AFB6148624940300160C0E901541F
:10442000C460C0E904468461C461FEF75DFB5B487B
:104430005C4980300160C0E90154C460C0E90446B1
:104440008461C461FEF750FB54485749C030016095
:10445000C0E90154C460C0E904468461C461FEF748
:1044600043FB534851490160C0E90154C460C0E9AD
:1044700004468461C461FEF737FB4D484D49403026
:104480000160C0E90154C460C0E904468461C461AC
:10449000FEF72AFBFFF724F8404838948038464955
:1044A0003994016040F6FF61C0E9011446F2A81199
:1044B000C16080218161FDF785FF3848389438A9B3
:1044C00080383994FDF736FF39488030FCF782FA9E
:1044D0003048FDF78CFB1C2238496846FBF701FF8A
:1044E0000021684600F0B6F8354C34491C22606162
:1044F0001C3107A8FBF7F5FE002107A800F0AAF879
:104500002E49A0611C2238310EA8FBF7EAFE0021DB
:104510000EA800F09FF82949E0611C22543115A82B
:10452000FBF7DFFE002115A800F094F82349206274
:104530001C2270311CA8FBF7D4FE00211CA800F03F
:1045400089F81E4960621C228C3123A8FBF7C9FE42
:10455000002123A800F07EF81849A0621C22A8318F
:104560002AA8FBF7BEFE00212AA800F073F8134921
:10457000E0621C22C43131A8FBF7B3FE002131A850
:1045800000F068F8206300F060F83AB0002070BDD9
:1045900000300040FC020020004C00404804002095
:1045A000005000400010014000440040004800401E
:1045B0004805002000140140001400403852000853
:1045C0008C00002001460020842900D0C81C7047C0
:1045D000F0B50B30154D20F007010024144A0FE010
:1045E00003688B420BD38B4205D95E1A4318476888
:1045F000C3E9006700E04368136002C004E0021DE5
:1046000010680028ECD12046002802D1286808B1A3
:104610000020F0BD064A07481060074A121A22F02F
:104620000702C0E9002401202860D7E72802002003
:1046300024020020B44A0020B04C002010B500B97C
:10464000012000F033FB002010BD10B500F092FBFC
:10465000002010BD7FB50D4604464169B0F9080041
:1046600081B1A16971B1FFF7ADFFD4E905128DE801
:104670000700D4E900102B46226900F0ECFC0390FF
:1046800004B070BDFFF79EFF03A9CDE90001208AA9
:104690002B4682B2D4E9001000F0B0FC012801D012
:1046A0000020EDE70398EBE72DE9F041184C0F46A9
:1046B000054666692068001D00F034FA38B92068A4
:1046C00090F82C1001208840A1698143A161681CE9
:1046D00007D137B12168BDE8F0410E48091D00F04F
:1046E00065BA20683544B5424560216805D2A068A6
:1046F000BDE8F041091D00F041BA6068091D00F0F5
:104700003DFA206B854200D22563BDE8F0810000B0
:10471000C40100209C0E00202DE9F041054600F068
:1047200051FA2E4C2069401C206120682C4F10B19A
:10473000E06940B32DE025602069012829D10026D9
:1047400006EB860007EB800000F00AFA761C072EC5
:10475000F6D323488C3000F003FA2148A03000F053
:10476000FFF91F48B43000F0FBF91D48C83000F0D5
:10477000F7F91B48DC3000F0F3F919488C30606021
:104780001430A06005E02068E96AC06A884200D859
:104790002560E06A401CE062E96A0120A269884065
:1047A0001043A06101EB810007EB8000291D00F0A0
:1047B000FDF900F027FAE06900280CD02068E96ACA
:1047C000C06A884207D207494FF080500860BFF3A3
:1047D0004F8FBFF36F8FBDE8F0810000C401002050
:1047E000C00D002004ED00E010B5044690F8510023
:1047F00058B101280CD002280FD0502080F3118826
:10480000BFF34F8FBFF36F8FFEE7206B00F00EFA00
:104810002046BDE8104000F009BA10BD10484FF422
:104820007051420706D0C01D0D4920F00700411A03
:10483000C1F570510B4A00230144C2E90003083955
:10484000103A21F0070111604B600B600B1AC0E9B0
:10485000001393604FF000405360D0607047000039
:10486000B00E002010020020144E154CA6F1C8070F
:104870004FF08058DFF84C9012E000BF00F0A2F932
:10488000F068C568281D00F04DF92069401E2061C0
:10489000E068401EE06000F0B5F92846FFF7A4FF8D
:1048A000E0680028EAD138680128F9D9C9F8008001
:1048B000BFF34F8FBFF36F8FF2E70000880E002029
:1048C000C401002004ED00E02DE9F0479A46DDE93F
:1048D000098481466FF00303206B03EB82021044CE
:1048E000089D20F00706700707D0502080F311883C
:1048F000BFF34F8FBFF36F8FFEE723180A5C83F877
:1049000034200A5C12B1401C1028F6D3002784F82A
:104910004370072D00D30625E562C4E91157201D19
:1049200000F029F904F1180000F025F92461C5F11F
:1049300007006462A061E76484F8507052464946FB
:10494000304600F0D9F82060B8F1000F01D0C8F867
:104950000040BDE8F087000030B5114900E0114685
:104960000A688242FBD34B685C18844203D14068DA
:1049700018444860084643681C18944209D1084C02
:10498000103C2468A24209D052681A4442600A6866
:1049900012680260814200D0086030BD0460F9E70F
:1049A0001002002006484168096829B14168C968B9
:1049B000C9684968016370474FF0FF31FAE70000AA
:1049C000C401002008484068401C4FF0500080F3AC
:1049D000118804D0BFF34F8FBFF36F8FFEE7BFF393
:1049E0004F8FBFF36F8FFEE718020020002150B1F8
:1049F0000A4B42699A420FD1806AA3F12802904281
:104A00000AD040B108E0502080F31188BFF34F8FE7
:104A1000BFF36F8FFEE70121084670479C0E002010
:104A20002DE9F0410546002700F038FA314E306894
:104A300008B9FFF7F3FEF06805424BD1C5B308355E
:104A400068070ED005F00700C0F1080005446807AC
:104A500007D0502080F31188BFF34F8FBFF36F8FC3
:104A6000FEE72DB37068854234D8224810300146E5
:104A70000C6801E020460C466168A94202D2216818
:104A80000029F7D131688C4224D007682168016081
:104A900060680837411B10290FD96019420708D0F8
:104AA000502080F31188BFF34F8FBFF36F8FFEE765
:104AB00010E041606560FFF74FFF61687068401A61
:104AC0007060B268904200D2B060F068014300208C
:104AD000C4E9000100F04EFB780707D0502080F3B6
:104AE0001188BFF34F8FBFF36F8FFEE73846BDE8E5
:104AF000F08100000002002010B5031F4FF0807409
:104B00001C601B1F21F001011960191F044B0B6071
:104B100014390A60091F6FF0020244380A6010BDA0
:104B2000C5490008D0E9013201699A60D0E9012342
:104B30005A604A68824201D182684A60002202615A
:104B40000868401E0860086870470000034B036057
:104B500003F1540008608020106070472C0B002087
:104B600000F108014FF0FF32C0E90112C16001619C
:104B700000210160704700210161704730B50B686A
:104B80005A1C02D000F1080202E0026904E0224649
:104B9000546825689D42FAD953684B6099608A60D1
:104BA000516008610168491C016030BD42684A607B
:104BB00093688B6093685960916008610168491C33
:104BC00001607047502080F31188BFF34F8FBFF30F
:104BD0006F8F0A494868401C486001280CD108487A
:104BE000006810F0FF0F07D0502080F31188BFF34A
:104BF0004F8FBFF36F8FFEE7704700001802002051
:104C000004ED00E00849486828B1401E486001D121
:104C100080F311887047502080F31188BFF34F8FC5
:104C2000BFF36F8FFEE700001802002070B5002868
:104C300027D0144DA0F108046168E868014207D14B
:104C4000502080F31188BFF34F8FBFF36F8FFEE7C3
:104C500022683AB1502080F31188BFF34F8FBFF321
:104C60006F8FFEE78143616000F018F96068696842
:104C7000084468602046FFF76FFEBDE8704000F012
:104C800079BA70BD000200204FF0E02000210161E0
:104C9000816105494FF47A720968B1FBF2F1491E4E
:104CA0004161072101617047C001002010B5020079
:104CB00014D00F48806B38B1502080F31188BFF3B7
:104CC0004F8FBFF36F8FFEE700F0E8F8002110462A
:104CD000FFF7EAFC00F04EFA002807D105494FF033
:104CE00080500860BFF34F8FBFF36F8F10BD00007F
:104CF000C401002004ED00E070B504002BD01A4D73
:104D0000286884422FD0FFF75DFF2046FFF76EFE34
:104D1000E8B1201DFFF706FFE06A0121AA69814082
:104D20001143A961114900EB800001EB8000211DB6
:104D3000FFF73CFFE06A2968C96A884207D30C493B
:104D40004FF080500860BFF34F8FBFF36F8FBDE807
:104D50007040FFF757BF502080F31188BFF34F8F8B
:104D6000BFF36F8FFEE770BDC4010020C00D0020AF
:104D700004ED00E010B586B00024039405AA04A950
:104D800003A80494FFF7E2FEDDE903010094CDE9F6
:104D9000011000230EA11048059A00F05CF90F499C
:104DA0000028486311D0502080F31188BFF34F8F43
:104DB000BFF36F8F4FF0FF3008630120C8614C6173
:104DC00006B0BDE8104000F09FB806B010BD00006E
:104DD00049444C450000000069480008C401002017
:104DE00070B50446FFF7EEFE294D04B92C68201D6E
:104DF000FFF798FE58B9E06A264A00EB800152F8A6
:104E0000211021B901218140A8698843A861A06AC5
:104E100018B104F11800FFF785FE1E48211DDC3093
:104E2000FFF7C4FE94F850000026012801D184F851
:104E30005060FFF7E7FEE86928B1FFF7C3FEFFF710
:104E4000B1FDFFF7DFFE2868844213D1E86990B115
:104E5000A86B38B1502080F31188BFF34F8FBFF398
:104E60006F8FFEE70C494FF080500860BFF34F8F03
:104E7000BFF36F8F70BD0748DC3000682969884236
:104E800001D12E6070BDBDE8704000F00FB8000089
:104E9000C4010020C00D002004ED00E00248816B39
:104EA000491C816370470000C40100201448816BD5
:104EB00011B1012141627047002141628169B1FA5B
:104EC00081F1C1F11F0101EB81020E4951F822303D
:104ED0006BB101EB820101F108034A6852684A6034
:104EE0009A4201D152684A60D168016070475020EF
:104EF00080F31188BFF34F8FBFF36F8FFEE7000081
:104F0000C4010020C00D00201CB537480168374A95
:104F1000914207D1502080F31188BFF34F8FBFF328
:104F20006F8FFEE700683149491E884207D1502043
:104F300080F31188BFF34F8FBFF36F8FFEE72C49CB
:104F400008780190FF20087008788DF800009DF81F
:104F500000009DF8002000F0F000904207D05020A3
:104F600080F31188BFF34F8FBFF36F8FFEE79DF87B
:104F70000000204B00F0500018700720986005E0FA
:104F80009DF8002052008DF80020401E9DF8002062
:104F90001206F5D49860032807D0502080F31188BA
:104FA000BFF34F8FBFF36F8FFEE74FF440709860F1
:104FB000019808700C482030016841F470010160CC
:104FC000016841F070410160FFF75EFE002058600B
:104FD000FBF708F90848016841F040410160FBF720
:104FE000EDF800201CBD000000ED00E071C20F4193
:104FF00000E400E01802002034EF00E02DE9FF5F3C
:105000008346DDE90E87994616468A469000FFF7EB
:1050100007FD05001CD05420FFF702FD040014D04A
:105020000020256384F85100CDE90240CDE90087D6
:105030004B46324651465846FFF746FC2046FFF79E
:105040006BFB012004B0BDE8F09F2846FFF7EEFDA2
:105050004FF0FF30F6E7F0B585B0DDE90B640A9D4F
:10506000A6B1DCB1542700972663022684F851606C
:10507000002604AFCDE90246CDE90057FFF724FC36
:105080002046FFF749FB049805B0F0BD502080F39F
:105090001188BFF34F8FBFF36F8FFEE7502080F36F
:1050A0001188BFF34F8FBFF36F8FFEE72DE9F041FB
:1050B0002E4C0027A06B40B1206A401C2062606A21
:1050C00000B101273846BDE8F0816669761C66614B
:1050D00013D16068006838B1502080F31188BFF3A5
:1050E0004F8FBFF36F8FFEE76068A1686160A060BB
:1050F000A06A401CA062FFF755FC206BDFF87080AF
:10510000864209D36068006880B16068C068C5687D
:10511000686886420DD220632068C06A00EB800177
:1051200058F821000128CAD90127C8E74FF0FF30FD
:10513000F1E7281DFFF7F6FCA86A18B105F1180081
:10514000FFF7F0FCE86A0121A26981401143A161E7
:1051500000EB800108EB8100291DFFF727FDE86ABD
:105160002168C96A8842CDD30127CBE7C40100205A
:10517000C00D00202DE9F0472C4D00242746A86BD8
:1051800038B1FFF71FFDA86B401EA863A86B40B1A4
:1051900046E0502080F31188BFF34F8FBFF36F8F2D
:1051A000FEE72969224E0120D1B3A6F1B409804659
:1051B0003068E8B1F068C46804F11800FFF7B2FC89
:1051C000201DFFF7AFFCE06AAA6908FA00F111435D
:1051D000A96100EB800109EB8100211DFFF7E6FCCE
:1051E000E06A2968C96A8842E2D3C5F82480DFE70B
:1051F0000CB1FFF7D7FB2C6A44B14646FFF756FFC8
:1052000000B16E62641EF9D100202862686A38B16C
:105210000849012738070860BFF34F8FBFF36F8F2E
:10522000FFF7F0FC3846BDE8F0870000C40100201D
:10523000740E002004ED00E0645300087D0A0008AD
:1052400002000000000000008000000000000000DC
:1052500000000000905300088910000801000000C1
:1052600000000000800000000000000000000000BE
:105270007053000811430008000000000000000007
:10528000800000000000000000000000385300080B
:1052900085070008000000000000000080000000FA
:1052A00000000000000000009C530008DD11000811
:1052B000FDFF000000000000800000000000000072
:1052C0000000000048530008110900080000000019
:1052D000000000008000000000000000000000004E
:1052E000585300086531000803000000000000006A
:1052F0008000000000000000000000008053000853
:10530000FD380008020000000000000080000000DE
:105310000000000000000000000610160006101635
:105320000000000000000000010203040607080955
:10533000000000000102030441747469747564651F
:105340005461736B000000004175746F4D6F76659A
:105350005461736B00000000496E697469616C549C
:1053600061736B00436F6E74726F6C5461736B008A
:105370005761746572446565705461736B00000019
:1053800053776974636865725461736B0000000041
:10539000446973706C61795461736B00456D70740E
:1053A000795461736B000000C853000800000020AE
:1053B0002C02000078050008745400082C0200201C
:1053C000844E0000AC43000811022D012A2004196C
:1053D000333908011C13A5391408ED111B08D90431
:1053E00013EF371C08B9380C19041A2F0C1AFB08D4
:1053F00013CD121B08D71C1AF90C1AEB081AD50486
:10540000016012341C014038041A3C041A40042282
:105410003419101119101119101119030112155511
:105420000706012B550A0A1A310AF810B2D5C4DA58
:10543000A3B1B5E3C2A9CBAE5507071B6AB21BAA3D
:10544000051B9AA101D951A91B1816A3B0A3B1A39A
:10545000B2A3B3A3B4A3B5A3B6A3B7A3B8A3B9A388
:105460004C292C3931620832018210035924F41A74
:04547000AA01C100CC
:040000050800018965
:00000001FF
